:020000040800F2
:100000004004002045010008F5010008F701000840
:10001000FB010008FF0100080302000800000000C7
:1000200000000000000000000000000007020008BF
:1000300009020008000000000B0200080D02000881
:100040005F0100085F0100085F0100085F01000810
:100050005F0100085F0100085F0100085F01000800
:100060005F0100085F0100085F0100085F010008F0
:100070005F0100085F0100085F0100085F010008E0
:100080005F0100085F0100085F0100085F010008D0
:100090005F0100085F0100085F0100085F010008C0
:1000A0005F0100085F0100085F0100085F010008B0
:1000B0005F0100085F0100085F0100085F010008A0
:1000C0005F0100085F0100085F0100085F01000890
:1000D0005F0100085F0100085F0100085F01000880
:1000E0005F0100085F0100085F0100085F01000870
:1000F0005F0100085F0100085F0100085F01000860
:100100005F0100085F0100085F0100085F0100084F
:100110005F0100085F0100085F0100085F0100083F
:100120005F0100085F0100085F0100085F0100082F
:10013000DFF80CD005F090FC00480047690100088A
:10014000400400200648804706480047FEE7FEE7D7
:10015000FEE7FEE7FEE7FEE7FEE7FEE7FEE7FEE777
:10016000E5100008310100081CB505F03AFC01F06B
:10017000A3FD4FF4FC6005F00CF94FF478401249F0
:10018000088012A31022CDE9002313464FF4967283
:1001900032213C2005F0F2FB0FA31022CDE9002311
:1001A00013464FF4967246213C2005F0E7FB0DA361
:1001B0001022CDE9002313464FF496725A213C20B9
:1001C00005F0DCFB00201CBD280000204D3353202F
:1001D00053544D3332000000544F5543482054458A
:1001E000535400007777772E646F666C79652E6EB6
:1001F00065740000704700BFFEE700BFFEE700BF68
:10020000FEE700BFFEE77047704770477047000089
:1002100010B50446CA48844208D10121042000F0E8
:1002200024FB0021042000F020FB46E0C548844266
:1002300008D10121082000F018FB0021082000F05F
:1002400014FB3AE0C048844208D10121102000F09C
:100250000CFB0021102000F008FB2EE0BB4884427C
:1002600008D10121202000F000FB0021202000F017
:10027000FCFA22E0B648844208D10121402000F077
:10028000F4FA0021402000F0F0FA16E0B148844270
:1002900008D10121802000F0E8FA0021802000F040
:1002A000E4FA0AE0AC48844207D10121801500F04D
:1002B000DCFA0021A01500F0D8FA10BD10B501211C
:1002C000084600F0D2FA0021012000F0CEFA10BD5D
:1002D0002DE9F041024600250026002000230024DD
:1002E000002791F803C00CF00F0591F803C01CF033
:1002F000100F03D091F802C04CEA0505B1F800C018
:100300001CF0FF0F31D0146800202BE04FF0010CDF
:100310000CFA00F3B1F800C00CEA03069E4220D1AB
:1003200083004FF00F0C0CFA03F7BC4305FA03FCF3
:100330004CEA040491F803C0BCF1280F06D14FF039
:10034000010C0CFA00FCC2F814C00AE091F803C0DA
:10035000BCF1480F05D14FF0010C0CFA00FCC2F8BB
:1003600010C0401C0828D1D31460B1F800C0BCF103
:10037000FF0F34DD546800202EE000F1080C4FF030
:10038000010808FA0CF3B1F800C00CEA03069E421B
:1003900021D183004FF00F0C0CFA03F7BC4305FA90
:1003A00003FC4CEA040491F803C0BCF1280F05D10A
:1003B00000F1080C08FA0CF8C2F8148091F803C098
:1003C000BCF1480F07D100F1080C4FF0010808FA02
:1003D0000CF8C2F81080401C0828CED35460BDE849
:1003E000F0814FF6FF710180022181700421C170FC
:1003F00070470246002093680B4201D0012000E0C4
:10040000002070470146886880B27047024600208D
:10041000D3680B4201D0012000E000207047014664
:10042000C86880B2704701617047416170470AB186
:10043000016100E041617047C16070474FF4803254
:100440000A438261816182618269826970470246E2
:100450000020424B18684FF68073184040EA0210A3
:1004600008433E4B186070473D49C8617047F0B57E
:100470000A46002300240021002500F00046B6F1C2
:10048000004F02D1354EF16901E0344E7168C0F37E
:10049000034583B200F44016B6F5401F08D121F0A1
:1004A00070612E4E766826F070662C4F7E6012E0EA
:1004B00000F48016B6F5801F06D1032606FA05F46F
:1004C000A14341F0706106E0460D360103FA06F6DD
:1004D000B14341F0706122B1460D360103FA06F6D0
:1004E000314300F00046B6F1004F02D11B4EF161DE
:1004F00001E01A4E7160F0BD30B500228B071C0F71
:100500000F2303FA04F2154B08338C1053F82430F0
:100510009343124C08348D1044F8253023468C1038
:1005200053F824308C07240F00FA04F423430B4CB7
:1005300008348D1044F8253030BD0A4908607047F2
:1005400000080140000C014000100140001401406F
:1005500000180140001C0140002001400000014043
:1005600000002042DC002042DB48006840F001002F
:10057000D949086008464068D8490840D6494860CB
:1005800008460068D6490840D34908600846006814
:1005900020F4802008600846406820F4FE0048608F
:1005A0004FF41F0088607047CB49096821F48031FF
:1005B000C94A11601146096821F480211160B0F523
:1005C000803F03D0B0F5802F0ED106E0C249096804
:1005D00041F48031C04A116007E0BF49096841F425
:1005E000A021BD4A116000E000BF00BF704710B5F8
:1005F00001460022002300204A11012A02D1B64CF4
:10060000236806E0022A02D1B34C236A01E0B24C0F
:10061000636A01F01F02012494401C4201D00120B2
:1006200000E0002010BD70B500240025002600BFAA
:100630003120FFF7DCFF0646641CB4F5A06F01D043
:10064000002EF5D03120FFF7D2FF08B1012500E0E0
:100650000025284670BD014600209F4A106820F002
:10066000F80040EAC100106070479E49086070477A
:1006700002460020984B586820F47C1042EA01039F
:100680001843954B58607047964908667047014675
:100690000020914A506820F00300084350607047E2
:1006A0008D48406800F00C007047014600208A4ADF
:1006B000506820F0F0000843506070470146002069
:1006C000854A506820F4E060084350607047014656
:1006D0000020814A506820F4605040EAC100506018
:1006E000704729B17C4A527A02437B4B5A7206E02A
:1006F000794A527AC343DBB21A40774B5A72704739
:1007000079490860704701460020734A506820F418
:1007100040400843506070470021744A11706E4A8F
:1007200082F82010012802D0042808D103E001211A
:100730006E4A117004E005216C4A117000E000BFA0
:1007400000BF70476A49086070476349096A0143FE
:10075000614A1162704767490860704730B50021EF
:100760000022002400235C4D6D6805F00C0121B1CE
:10077000042905D0082923D105E05F4D056022E05A
:100780005D4D05601FE0544D6D6805F47012524DCB
:100790006D6805F48034022505EB92421CB9574D73
:1007A000554305600BE04C4D6D6815F4003F03D0D8
:1007B000524D5543056002E04F4D5543056002E040
:1007C0004D4D056000BF00BF434D6D6805F0F00161
:1007D00009094B4D6B5C0568DD4045603E4D6D6819
:1007E00005F4E061090A464D6B5C4568DD408560B3
:1007F000394D6D6805F46051C90A414D6B5C45681F
:10080000DD40C560344D6D6805F44041890B3D4DB8
:100810006B5CC568B5FBF3F5056130BD29B12E4AA7
:10082000526902432C4B5A6104E02B4A52698243BD
:10083000294B5A61704729B1274A92690243264BD6
:100840009A6104E0244A92698243234B9A6170477B
:1008500029B1214AD26902431F4BDA6104E01E4AE2
:10086000D26982431C4BDA61704729B11A4AD268B7
:100870000243194BDA6004E0174AD2688243164BF0
:10088000DA60704729B1144A12690243124B1A61A7
:1008900004E0114A126982430F4B1A6170471A49EA
:1008A000086070470F49C86470470B49C8717047AA
:1008B0000948406A40F08070074948627047014625
:1008C0000020054A92680A4201D0012000E0002081
:1008D0007047014988727047001002400000FFF81D
:1008E000FFFFF6FE00004242D800424220100240C4
:1008F000800442423C04424200127A0000093D005A
:1009000000000020100000204004424230B943F2B1
:10091000DB014FF0204242F8201005E043F2D20103
:100920004FF0204242F820106FF07042411C4FF00F
:10093000204343F8212011461A4602EB8002C2F8F8
:100940000411704710280AD118214FF02042116677
:10095000402151664FF0FC319166D16610E01821BC
:10096000F84A11604FF040014FF02042C2F8841065
:100970004FF0FC31F44A11604FF02042C2F88C1065
:1009800070471820F14908604FF000004FF02041F7
:10099000C1F8A4004FF0FC30ED49086001F10401FA
:1009A000086001F1040108607047D0E901121143A9
:1009B000C2681143026911434269114382691143BC
:1009C000C2691143026A1143426A1143826A1143A8
:1009D000C26A1143026B11434FF02043026843F88F
:1009E00022108168082908D11A46016852F821109E
:1009F00041F04001026843F82210416B0968426BE4
:100A0000526841EA0211426B926841EA0221426B4C
:100A1000D26841EA0241426B126941EA0251426BDB
:100A2000526941EA0261426B926911430268521CA9
:100A30004FF0204343F82210C16AB1F5804F1AD11C
:100A4000816B0968826B526841EA0211826B92687D
:100A500041EA0221826B126941EA0251826B5269BA
:100A600041EA0261826B92691143026803EB8202E0
:100A7000C2F8041108E06FF070414FF020430268A3
:100A800003EB8202C2F80411704730B50021002246
:100A90000023446844F0080485682C43C5682C434F
:100AA00005692C43456944EA4524856944EA453192
:100AB000C4692468C5696D6844EA0524C569AD68E0
:100AC00044EA0544C569ED6844EA0562046A24689D
:100AD000056A6D6844EA0524056AAD6844EA054480
:100AE000056AED6844EA05630468102C05D14FF0EF
:100AF00020442166A266E36607E0924C21604FF035
:100B00002044C4F88820934C236030BD016841F034
:100B10001001426841EA4221826841EA42318B4A2F
:100B20001160C1680968C268526841EA0221C2685E
:100B3000926841EA0241C268D26841EA0261844A8D
:100B40001160016909680269526841EA022102697B
:100B5000926841EA02410269D26841EA02617E4A32
:100B60001160416909684269526841EA022142699B
:100B7000926841EA02414269D26841EA02614FF05B
:100B80002042C2F8B010704700210160022141608C
:100B900000218160C160016141618161C1610162C7
:100BA0004FF480514162490081620021C1620163BA
:100BB0000F21426B1160426B5160FF21426B9160CB
:100BC0000F21426BD160426B1161426B5161002178
:100BD000426B91610F21826B1160826B5160FF212A
:100BE000826B91600F21826BD160826B1161826B8D
:100BF00051610021826B91617047102101600021D9
:100C000041608160C160016141618161FC21C26913
:100C10001160C2695160C2699160C269D160026AA3
:100C20001160026A5160026A9160026AD160704785
:100C30000021016041608160FC21C2681160C268CE
:100C40005160C2689160C268D16002691160026936
:100C50005160026991600269D16042691160426924
:100C60005160426991604269D160704751B14FF063
:100C7000204252F8202042F001024FF0204343F876
:100C8000202009E04FF0204252F82020334B1A4038
:100C90004FF0204343F82020704799B1102808D125
:100CA0004FF02042126E42F004024FF020431A66C9
:100CB0001DE0244A126842F004024FF02043C3F8BA
:100CC000802014E0102809D14FF02042126E234BEF
:100CD000DB1E1A404FF020431A6608E0194A1268DA
:100CE0001F4B02EA03024FF02043C3F880207047F5
:100CF00040B11649096841F004014FF02042C2F8A2
:100D0000A01008E011490968154A01EA02014FF0F4
:100D10002042C2F8A010704799B1102808D14FF0B6
:100D20002042126E42F040024FF020431A662DE03E
:100D3000044A126842F040024FF02043C3F880207A
:100D400024E00FE0800000A0880000A0A00000A028
:100D5000A80000A08C0000A0AC0000A0FEFF0F00C7
:100D6000FBFF0F00102808D14FF02042126E684B95
:100D70001A404FF020431A6608E0664A1268644B36
:100D800002EA03024FF02043C3F880207047014677
:100D90000020102903D14FF02042506F01E05E4A3D
:100DA0001068704710B5F2B1102807D14FF02043FA
:100DB0005B6E0B434FF02044636632E0B0F5807FFA
:100DC00008D1564B1B6843EA01034FF02044C4F896
:100DD000843026E0524B1B6843EA01034FF0204465
:100DE000C4F8A4301DE0102807D14FF020435B6EFB
:100DF0008B434FF02044636613E0B0F5807F08D149
:100E0000464B1B6823EA01034FF02044C4F88430AA
:100E100007E0434B1B6823EA01034FF02044C4F86A
:100E2000A43010BD10B5024600200023102A03D1C3
:100E30004FF02044636E07E0B2F5807F02D1374C5B
:100E4000236801E0364C23680B4201D0012000E00A
:100E5000002010BD102807D14FF02042526E8A4367
:100E60004FF020435A6613E0B0F5807F08D12B4A3B
:100E7000126822EA01024FF02043C3F8842007E001
:100E8000274A126822EA01024FF02043C3F8A42047
:100E9000704770B502460020002300240025102A68
:100EA00003D14FF02046736E07E0B2F5807F02D188
:100EB0001A4E336801E01A4E336803EA010403EA6C
:100EC000D10514B10DB1012000E0002070BD102843
:100ED00008D14FF02042526E22EAD1024FF0204357
:100EE0005A6613E0B0F5807F08D10C4A126822EAF6
:100EF000D1024FF02043C3F8842007E0084A12686B
:100F000022EAD1024FF02043C3F8A420704700002A
:100F1000BFFF0F00800000A0940000A0840000A08C
:100F2000A40000A036490143364A1160704770B5ED
:100F3000002100230F22C4784CB3324C246804F4FF
:100F4000E064C4F5E0644FEA1421C1F1040322FA1D
:100F500001F2447804FA03F1847804EA020444EAD2
:100F600001014FEA0111284C0678A155047804F0DC
:100F70001F054FF0010404FA05F405784FEA6515E2
:100F80004FF0E02606EB8505C5F8004109E004783E
:100F900004F01F050124AC401C4D0678761145F87D
:100FA000264070BD1A4A0A4002431A4B1A60704725
:100FB00041B1194A126842EA00024FF0E023C3F837
:100FC000102D07E0144A126822EA00024FF0E023D5
:100FD000C3F8102D7047042808D14FF0E0210969AB
:100FE00041F004014FF0E022116107E04FF0E021F1
:100FF000096921F004014FF0E022116170470000FF
:101000000000FA050CED00E000E400E080E100E003
:1010100080FFFF1F08ED00E010ED00E00021002040
:10102000674A126842F48032654B1A6000BF644A16
:10103000126802F40030491C10B9B1F5A06FF6D166
:101040005F4A126812F4003F01D0012000E0002046
:10105000012842D15B4A126842F01002594B1A60D3
:101060001A46126822F003021A601A46126842F009
:1010700002021A60524A5268514B5A601A4652682C
:101080005A601A46526842F480625A601A465268A0
:1010900022F47C125A601A46526842F4E8125A60EE
:1010A0001A46126842F080721A6000BF444A126801
:1010B00012F0007FFAD0424A526822F00302404BFD
:1010C0005A601A46526842F002025A6000BF3C4A17
:1010D000526802F00C02082AF9D1704710B5FFF7E8
:1010E0009DFF10BD10B53648006840F0010034493E
:1010F000086008464068344908403149486008465D
:101100000068324908402E4908600846006820F40B
:10111000802008600846406820F4FE0048604FF4D4
:101120001F008860FFF7DAFF4FF000602849086071
:1011300010BD10B5002100200022214B5B6803F098
:101140000C0121B1042906D0082928D107E0214B40
:10115000214C236027E01F4B1F4C236023E0184BDA
:101160005B6803F47010164B5B6803F48032022353
:1011700003EB904022B9194B4343174C23600DE019
:101180000F4B5B6813F4003F04D0144B4343124CE5
:10119000236003E00F4B43430F4C236003E00D4BF0
:1011A0000D4C236000BF00BF054B5B68C3F3031306
:1011B0000B4CE15C084B1B68CB40074C236010BD17
:1011C00000100240002002400000FFF8FFFFF6FE82
:1011D00008ED00E000127A001400002000093D0034
:1011E00018000020FC4908807047FC4908807047BF
:1011F000FA4800887047F84A10804FF0D842A2F8A9
:101200000018704710B504462046FFF7EBFF052095
:1012100004F0EDFBFFF7ECFF10BDF1480089EE494B
:1012200008807047ED490880704730B5014601F0ED
:101230001F04C1F34513CA0AE50205EB4315154423
:10124000A8B230BD00BF0100A0F10102D0B2FAD1B6
:10125000704710B503460C46E1488088A0F513415D
:10126000413905D0DE488088A0F5A641103914D157
:10127000DB494889FFF7B6FF1812FFF7B6FFD8B26F
:10128000FFF7B3FFD6498889FFF7ACFF2012FFF7BD
:10129000ACFFE0B2FFF7A9FF5DE0D1488088A0F580
:1012A000D04104391DD1CE488079012804D1CC48E1
:1012B0000088401EC01A83B2C9494889FFF792FFCF
:1012C0001812FFF792FFD8B2FFF78FFFC449888941
:1012D000FFF788FF2012FFF788FFE0B2FFF785FFD6
:1012E00039E0BF488088A0F5AA41103920D1BC4917
:1012F0004889FFF777FF1812FFF777FFB849498948
:10130000491C88B2FFF76EFFD8B2FFF76EFFB449F1
:101310008889FFF767FF2012FFF767FFB0498989C7
:10132000491C88B2FFF75EFFE0B2FFF75EFF12E0F4
:10133000AB488079012804D1A9480088401EC01A12
:1013400083B2A74948891946FFF755FFA449888900
:101350002146FFF750FF10BD2DE9F04105460E462E
:1013600000240027A0469E480088A84203DD9C4830
:101370004088B04202DC0020BDE8F08131462846BA
:10138000FFF767FF96488088A0F5134141390BD0DD
:1013900093488088A0F5D041043905D090488088D2
:1013A000A0F5A641103903D12E20FFF71BFF0DE059
:1013B0008B488088A0F5AA41103904D14FF43850E9
:1013C000FFF710FF02E02220FFF70CFF844880881F
:1013D000A0F51341203902D10220FFF733FF7F48E7
:1013E000008800B100240220FFF72CFF7B4804880E
:1013F0007B488088A0F5134141390BD0784880881C
:10140000A0F5A641103905D075488088A0F5AA41FD
:10141000103909D10220FFF715FF7048B0F800809D
:10142000E7B24FEA072707E06D488088A0F5D04172
:10143000043901D16948048869488088A0F51341BE
:10144000253917D066488088A0F58A41353911D0F2
:1014500063488088A0F58A4131390BD06048808884
:10146000A0F50941893905D05D488088A0F535414E
:10147000053901D120467FE759488088A0F51341FE
:1014800041390BD056488088A0F5A641103905D0C7
:1014900053488088A0F5AA41103907D1E012C00254
:1014A000B91240EA411040EAE82065E72046FFF71C
:1014B000BCFE61E700B54A488088A0F51341413978
:1014C0000BD047488088A0F5D041043905D0444866
:1014D0008088A0F5A641103903D12920FFF782FEAC
:1014E0000FE03F488088A0F5AA41103904D14FF49D
:1014F0002450FFF777FE04E040F273110720FFF756
:101500007AFE00BD00B536488088A0F51341413908
:101510000BD033488088A0F5D041043905D030483D
:101520008088A0F5A641103903D12820FFF75AFE84
:101530000EE02B488088A0F5AA41103904D14FF461
:101540002050FFF74FFE03E000210720FFF753FE76
:1015500000BD70B50446002300262148807901288B
:101560001ED11F488088A0F5D041043918D0082C1E
:1015700015D2DFE804F00406080A0C0E1012062447
:101580000DE007240BE0042409E0052407E0012412
:1015900005E0002403E0032401E0022400BF00BFB3
:1015A0000F488088A0F51341413911D00C4880883C
:1015B000A0F5D04104390BD009488088A0F5A64198
:1015C000103905D006488088A0F5AA4110397ED18F
:1015D000082C24D206E00000FE07006C0008006C16
:1015E0002C000020DFE804F00406090C0F12151887
:1015F00000BF14E043F0800311E043F040030EE02D
:1016000043F0C0030BE043F0200308E043F0600325
:1016100005E043F0A00302E043F0E00300BF00BF99
:10162000FD488088A0F5AA41103902D14FF45856E0
:1016300000E03626F8488088A0F5A641103907D08A
:10164000F5488088A0F5AA41103901D043F008037D
:10165000F1488088A0F5D041043901D143F002035C
:1016600019463046FFF7C7FD13F0200F03D1EA48B3
:10167000807901280DD1E8480088E74949888842E7
:1016800014DAE54805884088E34908800846458023
:101690000CE0E1480088E0494988884206DDDE48E0
:1016A00005884088DC49088008464580DA488088FB
:1016B000A0F5AA41103954D1D7494889FFF792FDC6
:1016C0000020FFF792FDD4494989491C00E077E0EA
:1016D00088B2FFF787FD0020FFF787FDCE494989D3
:1016E000891C88B2FFF77EFDCB490988491EC1F3EA
:1016F0000F20FFF77AFDC8494989C91C88B2FFF756
:1017000071FDC5490988491EC8B2FFF76EFDC2497F
:101710008889FFF767FD0020FFF767FDBE498989CB
:10172000491C88B2FFF75EFD0020FFF75EFDBA4955
:101730008989891C88B2FFF755FDB7494988491E38
:10174000C1F30F20FFF751FDB3498989C91C88B245
:10175000FFF748FDB0494988491EC8B2FFF745FD6B
:1017600060E0AD494889FFF73DFD0020FFF73DFDF2
:101770000020FFF73AFDA8490988491EC1F30F2050
:10178000FFF733FDA4490988491EC8B2FFF72DFDB4
:10179000A1498889FFF726FD0020FFF726FD0020DC
:1017A000FFF723FD9C494988491EC1F30F20FFF72D
:1017B0001CFD99494988491EC8B2FFF716FD31E062
:1017C000082C1CD2DFE804F004070A0D0F121518CC
:1017D00043F0300313E043F0100310E043F0200324
:1017E0000DE000BF0BE043F0380308E043F02803AE
:1017F00005E043F0180302E043F0080300BF00BF18
:1018000085488088A0F50941893904D1112646F21E
:1018100040010B4302E0032643F48053194630464F
:10182000FFF7E9FC70BD30B504460D462946204659
:10183000FFF70FFDFFF7F1FC784800887849088032
:1018400030BD30B503460C46154673488088A0F578
:101850001341413905D070488088A0F5A641103960
:1018600014D16D494889FFF7BDFC1812FFF7BDFC84
:10187000D8B2FFF7BAFC68498889FFF7B3FC201299
:10188000FFF7B3FCE0B2FFF7B0FC5DE06248808890
:10189000A0F5AA41103920D15F494889FFF7A2FC81
:1018A0001812FFF7A2FC5C494989491C88B2FFF76E
:1018B00099FCD8B2FFF799FC57498889FFF792FC49
:1018C0002012FFF792FC54498989491C88B2FFF71E
:1018D00089FCE0B2FFF789FC36E04F488088A0F52C
:1018E000D04104391DD14C488079012804D14A489F
:1018F0000088401EC01A83B247494889FFF772FC2E
:101900001812FFF772FCD8B2FFF76FFC42498889C2
:10191000FFF768FC2012FFF768FCE0B2FFF765FCF8
:1019200012E03D488079012804D13B480088401EE0
:10193000C01A83B2384948891946FFF75CFC36491A
:1019400088892146FFF757FC3348008935490880CC
:101950004FF0D840A0F8005830BD10B50446A4BBE5
:1019600000202D498871F02008804FF4A070488035
:1019700008468088A0F5134141390BD0264880885D
:10198000A0F5D041043905D023488088A0F5A641B0
:1019900010391BD12C20204908812A2048812B2076
:1019A000888108468088A0F5D041043905D01A48BE
:1019B0008088A0F5A641103906D14FF4A0701649D1
:1019C00008804FF4F07048809FE035E0124880882E
:1019D000A0F50941893907D122200F4908814E20FD
:1019E00048814F20888190E00B488088A0F5AA416B
:1019F000103919D14FF43050074908814FF428505D
:101A000048814FF42C5088814FF4F07008804FF4D7
:101A10004870488079E000002C0000202800002059
:101A20000008006CFE07006C2220FF49088120207E
:101A300048812120888168E00120FB4988714FF4AA
:101A4000A0700880F020488008468088A0F51341E7
:101A5000413905D0F4488088A0F5A641103907D156
:101A60002C20F14908812A2048812B20888139E0E7
:101A7000ED488088A0F5D041043907D12C20EA49EF
:101A800008812B2048812A2088812BE0E648808825
:101A9000A0F50941893907D12220E34908814F2067
:101AA00048814E2088811DE0DF488088A0F5AA414A
:101AB000103910D14FF43050DB4908814FF42850D1
:101AC00048814FF42C5088814FF4487008804FF4BF
:101AD000F070488006E02220D34908812120488107
:101AE00020208881D0488088A0F5D041043905D0D5
:101AF000CD488088A0F5A641103906D14FF4F0708A
:101B0000C94908804FF4A07048800020FFF721FDEC
:101B100010BD2DE9FF4F04460D4616461F46A0197D
:101B2000401E86B2E819401E87B2BF488088A0F5E3
:101B3000134141390BD0BC488088A0F5A64110392B
:101B400005D0B9488088A0F5D041043920D1B649E4
:101B50004889FFF747FB2012FFF747FBE0B2FFF78A
:101B600044FB3012FFF741FBF0B2FFF73EFBAE49FA
:101B70008889FFF737FB2812FFF737FBE8B2FFF73A
:101B800034FB3812FFF731FBF8B2FFF72EFB91E080
:101B9000A5488088A0F5AA41103944D1A2494889B6
:101BA000FFF720FB2012FFF720FB9F494989491CC2
:101BB00088B2FFF717FBE0B2FFF717FB9A49498994
:101BC000891C88B2FFF70EFB3012FFF70EFB964917
:101BD0004989C91C88B2FFF705FBF0B2FFF705FB86
:101BE00091498889FFF7FEFA2812FFF7FEFA8E491D
:101BF0008989491C88B2FFF7F5FAE8B2FFF7F5FAD0
:101C000089498989891C88B2FFF7ECFA3812FFF7F5
:101C1000ECFA85498989C91C88B2FFF7E3FAF8B262
:101C2000FFF7E3FA46E08048807901280ED1A84604
:101C3000B9467D480088801B401E80B200907A48DB
:101C40000088001B401E1FFA80FB03E0A046B1463F
:101C50000095BB4674488088A0F5094189390DD1AB
:101C60004FF0440A4420039048EA09201FFA80F804
:101C7000C146452002904620019007E04FF0500AEF
:101C8000512003905220029053200190414650462B
:101C9000FFF7B1FA49460398FFF7ADFA00990298A9
:101CA000FFF7A9FA59460198FFF7A5FA29462046F9
:101CB000FFF7CFFABDE8FF8F00B59FB00121080202
:101CC000FEF7ACFD012140F26910FEF7B4FD0120E2
:101CD000ADF8780010208DF87B0003208DF87A0095
:101CE0001EA95248FEF7F4FA4CF23370ADF87800B2
:101CF00018208DF87B0003208DF87A001EA94C482F
:101D0000FEF7E6FA4FF68070ADF8780018208DF8EF
:101D10007B0003208DF87A001EA94648FEF7D8FA0A
:101D200041F20100ADF8780018208DF87B00032007
:101D30008DF87A001EA94048FEF7CAFA01200890E3
:101D4000002009900F200A9000200B900C900D901D
:101D50000E900190029003200390002004900590C3
:101D60000690079006200F900020109011901020F0
:101D700012900020139015901490169017904FF425
:101D800080501890002019904FF480401A90002045
:101D90001B9008A81C9001A81D900FA8FEF705FE37
:101DA00001210620FEF762FF322003F03AFE0121F6
:101DB0000020FFF720FA322003F033FE0020FFF767
:101DC00021FA1949888008468088FF280ADB0846DE
:101DD0008088A0F57F41FF3904D013488088B0F592
:101DE000134F7ED1D320FFF7FDF9FFF701FAFFF77C
:101DF000FFF9FFF7FDF90C49888008468088000646
:101E0000000C8880FFF7F4F90749898808430649E0
:101E1000888008468088A0F5134141396FD0BF20E3
:101E2000FFF7E0F90AE000002C000020000C014060
:101E3000001401400018014000200140FFF7D8F9CC
:101E4000FFF7D6F9FFF7D4F9FFF7D2F9FD498880FB
:101E5000084680880006000C8880FFF7C9F9F94918
:101E600089880843F749888008468088A0F5D041D2
:101E7000043944D0D420FFF7B5F9FFF7B9F9FFF7DB
:101E8000B7F9FFF7B5F9EF49888008468088000662
:101E9000000C8880FFF7ACF9EA4989880843E949D2
:101EA000888008468088A0F5A641103927D04FF4D5
:101EB0005A40FFF797F9FFF79BF94FF45B40FFF7A4
:101EC00091F9FFF795F9DF49888008468088000678
:101ED000000C88804FF45C40FFF784F9FFF788F925
:101EE00000E00CE0D74989880843D6498880084635
:101EF0008088B0F5004F02D145F210508880D1485B
:101F00008088A0F5134141397ED1CF20FFF76AF9CF
:101F10000020FFF76AF9C120FFF767F93020FFF7CB
:101F200064F9ED20FFF75EF96420FFF75EF9032006
:101F3000FFF75BF91220FFF758F98120FFF755F9F9
:101F4000E820FFF74FF98520FFF74FF91020FFF742
:101F50004CF97A20FFF749F9CB20FFF743F93920F4
:101F6000FFF743F92C20FFF740F90020FFF73DF978
:101F70003420FFF73AF90220FFF737F9F720FFF78F
:101F800031F92020FFF731F9EA20FFF72BF9002083
:101F9000FFF72BF90020FFF728F9C020FFF722F9FF
:101FA0001B20FFF722F9C120FFF71CF90120FFF7E2
:101FB0001CF9C520FFF716F93020FFF716F930207D
:101FC000FFF713F9C720FFF70DF9B720FFF70DF959
:101FD0003620FFF707F94820FFF707F93A20FFF707
:101FE00001F95520FFF701F9B120FFF7FBF80020B8
:101FF000FFF7FBF81A20FFF7F8F8B620FFF7F2F822
:102000000A20FFF7F2F800E096E0A220FFF7EDF8D3
:10201000F220FFF7E7F80020FFF7E7F82620FFF7A8
:10202000E1F80120FFF7E1F8E020FFF7DBF80F20EF
:10203000FFF7DBF82A20FFF7D8F82820FFF7D5F8BC
:102040000820FFF7D2F80E20FFF7CFF80820FFF79F
:10205000CCF85420FFF7C9F8A920FFF7C6F84320B1
:10206000FFF7C3F80A20FFF7C0F80F20FFF7BDF80D
:102070000020FFF7BAF80020FFF7B7F80020FFF7BD
:10208000B4F80020FFF7B1F8E120FFF7ABF800202B
:10209000FFF7ABF81520FFF7A8F81720FFF7A5F812
:1020A0000720FFF7A2F81120FFF79FF80620FFF79F
:1020B0009CF82B20FFF799F85620FFF796F83C2064
:1020C000FFF793F80520FFF790F81020FFF78DF841
:1020D0000F20FFF78AF83F20FFF787F83F20FFF730
:1020E00084F80F20FFF781F82B20FFF77BF8002002
:1020F000FFF77BF80020FFF778F80120FFF775F86D
:102100003F20FFF772F82A20FFF76CF80020FFF756
:102110006CF80020FFF769F80020FFF766F8EF2061
:10212000FFF763F81120FFF75DF8782003F079FCE2
:102130002920FFF757F8FEE342488088A0F5D041F8
:1021400004397ED11120FFF74DF8142003F069FC0B
:10215000D020FFF747F80720FFF747F84220FFF7A6
:1021600044F81D20FFF741F8D120FFF73BF800208D
:10217000FFF73BF81A20FFF738F80920FFF735F88A
:10218000D220FFF72FF80120FFF72FF82220FFF7CA
:102190002CF8C020FFF726F81020FFF726F83B2088
:1021A000FFF723F80020FFF720F80220FFF71DF8C3
:1021B0001120FFF71AF8C520FFF714F80320FFF7E6
:1021C00014F8C820FFF70EF80020FFF70EF82520BE
:1021D000FFF70BF82120FFF708F80520FFF705F8B7
:1021E0000020FFF702F80A20FEF7FFFF6520FEF748
:1021F000FCFF2520FEF7F9FF7720FEF7F6FF5020C1
:10220000FEF7F3FF0F20FEF7F0FF0020FEF7EDFFD3
:10221000F820FEF7E7FF0120FEF7E7FFFE20FEF7BC
:10222000E1FF0020FEF7E1FF0220FEF7DEFF2020A5
:10223000FEF7D8FF3620FEF7D5FF0820FEF7D5FFC2
:1022400002E02CE02C0000203A20FEF7CBFF5520C6
:10225000FEF7CBFF2B20FEF7C5FF0020FEF7C5FFE2
:102260000020FEF7C2FF0120FEF7BFFF3F20FEF770
:10227000BCFF2A20FEF7B6FF0020FEF7B6FF0020C5
:10228000FEF7B3FF0120FEF7B0FFDF20FEF7ADFF42
:10229000782003F0C6FB2920FEF7A4FF4BE3FF489C
:1022A0008088A0F5A64110397ED1ED20FEF79AFF77
:1022B0000120FEF79AFFFE20FEF797FFEE20FEF7C3
:1022C00091FFDE20FEF791FF2120FEF78EFFF12027
:1022D000FEF788FF0120FEF788FFDF20FEF782FF70
:1022E0001020FEF782FFC420FEF77CFF8F20FEF750
:1022F0007CFFC620FEF776FF0020FEF776FFE22087
:10230000FEF773FFE220FEF770FFE220FEF76DFF9D
:10231000BF20FEF767FFAA20FEF767FFB020FEF799
:1023200061FF0D20FEF761FF0020FEF75EFF0D202C
:10233000FEF75BFF0020FEF758FF1120FEF755FF68
:102340000020FEF752FF1920FEF74FFF0020FEF796
:102350004CFF2120FEF749FF0020FEF746FF2D200D
:10236000FEF743FF0020FEF740FF3D20FEF73DFF54
:102370000020FEF73AFF5D20FEF737FF0020FEF752
:1023800034FF5D20FEF731FF0020FEF72EFFB12065
:10239000FEF728FF8020FEF728FF0020FEF725FF2C
:1023A0008B20FEF722FF00E0FEE30020FEF71DFF7A
:1023B0009620FEF71AFF0020FEF717FFB220FEF767
:1023C00011FF0020FEF711FF0020FEF70EFF022094
:1023D000FEF70BFF0020FEF708FF0320FEF705FFC6
:1023E0000020FEF702FFB320FEF7FCFE0020FEF700
:1023F000FCFE0020FEF7F9FE0020FEF7F6FE0020AE
:10240000FEF7F3FE0020FEF7F0FE0020FEF7EDFEE3
:102410000020FEF7EAFE0020FEF7E7FE0020FEF7B0
:10242000E4FE0020FEF7E1FE0020FEF7DEFE0020C5
:10243000FEF7DBFE0020FEF7D8FE0020FEF7D5FEFB
:102440000020FEF7D2FE0020FEF7CFFE0020FEF7B0
:10245000CCFE0020FEF7C9FE0020FEF7C6FE0020DD
:10246000FEF7C3FE0020FEF7C0FE0020FEF7BDFE13
:102470000020FEF7BAFE0020FEF7B7FEB420FEF7FC
:10248000B1FE8B20FEF7B1FE0020FEF7AEFE9620D7
:10249000FEF7ABFE0020FEF7A8FEA120FEF7A5FE8A
:1024A0000020FEF7A2FEB520FEF79CFE0220FEF7FC
:1024B0009CFE0020FEF799FE0320FEF796FE00200A
:1024C000FEF793FE0420FEF790FE0020FEF78DFE3F
:1024D000B620FEF787FE0020FEF787FE0020FEF7FD
:1024E00084FEB720FEF77EFE0020FEF77EFE002071
:1024F000FEF77BFE3F20FEF778FE0020FEF775FE1C
:102500005E20FEF772FE0020FEF76FFE6420FEF7ED
:102510006CFE0020FEF769FE8C20FEF766FE0020B0
:10252000FEF763FEAC20FEF760FE0020FEF75DFEC6
:10253000DC20FEF75AFE0020FEF757FE7020FEF763
:1025400054FE0020FEF751FE9020FEF74EFE0020C4
:10255000FEF74BFEEB20FEF748FE0020FEF745FE9F
:10256000DC20FEF742FE0020FEF73FFEB820FEF71B
:1025700039FE0020FEF739FE0020FEF736FE00206F
:10258000FEF733FE0020FEF730FE0020FEF72DFEA2
:102590000020FEF72AFE0020FEF727FE0020FEF7AF
:1025A00024FEBA20FEF71EFE2420FEF71EFE0020A9
:1025B000FEF71BFE0020FEF718FE0020FEF715FEBA
:1025C000C120FEF70FFE2020FEF70FFE0020FEF7D1
:1025D0000CFE5420FEF709FE0020FEF706FEFF2049
:1025E000FEF703FE0020FEF700FEC220FEF7FAFD14
:1025F0000A20FEF7FAFD0020FEF7F7FD0420FEF7A3
:10260000F4FD0020FEF7F1FDC320FEF7EBFD3C20BA
:10261000FEF7EBFD0020FEF7E8FD3A20FEF7E5FDB2
:102620000020FEF7E2FD3920FEF7DFFD0020FEF777
:10263000DCFD3720FEF7D9FD0020FEF7D6FD3C205B
:10264000FEF7D3FD0020FEF7D0FD3620FEF7CDFDCE
:102650000020FEF7CAFD3220FEF7C7FD0020FEF77E
:10266000C4FD2F20FEF7C1FD0020FEF7BEFD2C208B
:10267000FEF7BBFD0020FEF7B8FD2920FEF7B5FDF3
:102680000020FEF7B2FD2620FEF7AFFD0020FEF78A
:10269000ACFD2420FEF7A9FD002001E02C00002065
:1026A000FEF7A3FD2420FEF7A0FD0020FEF79DFD10
:1026B0002320FEF79AFD0020FEF797FD3C20FEF751
:1026C00094FD0020FEF791FD3620FEF78EFD0020E0
:1026D000FEF78BFD3220FEF788FD0020FEF785FD1A
:1026E0002F20FEF782FD0020FEF77FFD2C20FEF755
:1026F0007CFD0020FEF779FD2920FEF776FD002005
:10270000FEF773FD2620FEF770FD0020FEF76DFD3D
:102710002420FEF76AFD0020FEF767FD2420FEF767
:1027200064FD0020FEF761FD2320FEF75EFD002022
:10273000FEF75BFDC420FEF755FD6220FEF755FD58
:102740000020FEF752FD0520FEF74FFD0020FEF7AA
:102750004CFD8420FEF749FD0020FEF746FDF020E9
:10276000FEF743FD0020FEF740FD1820FEF73DFD7B
:102770000020FEF73AFDA420FEF737FD0020FEF70B
:1027800034FD1820FEF731FD0020FEF72EFD50200D
:10279000FEF72BFD0020FEF728FD0C20FEF725FD9F
:1027A0000020FEF722FD1720FEF71FFD0020FEF798
:1027B0001CFD9520FEF719FD0020FEF716FDF32005
:1027C000FEF713FD0020FEF710FDE620FEF70DFDDD
:1027D0000020FEF70AFDC520FEF704FD3220FEF7BB
:1027E00004FD0020FEF701FD4420FEF7FEFC002062
:1027F000FEF7FBFC6520FEF7F8FC0020FEF7F5FC79
:102800007620FEF7F2FC0020FEF7EFFC8820FEF7B2
:10281000ECFC0020FEF7E9FCC620FEF7E3FC2020DC
:10282000FEF7E3FC0020FEF7E0FC1720FEF7DDFCDE
:102830000020FEF7DAFC0120FEF7D7FC0020FEF7AF
:10284000D4FCC720FEF7CEFC0020FEF7CEFC002013
:10285000FEF7CBFC0020FEF7C8FC0020FEF7C5FC0D
:10286000C820FEF7BFFC0020FEF7BFFC0020FEF7EB
:10287000BCFC0020FEF7B9FC0020FEF7B6FCC92026
:10288000FEF7B0FC0020FEF7B0FC0020FEF7ADFC28
:102890000020FEF7AAFC0020FEF7A7FC0020FEF7B0
:1028A000A4FC0020FEF7A1FC0020FEF79EFC002007
:1028B000FEF79BFC0020FEF798FC0020FEF795FC3D
:1028C0000020FEF792FC0020FEF78FFC0020FEF7B0
:1028D0008CFC0020FEF789FC0020FEF786FC00201F
:1028E000FEF783FCE020FEF77DFC1620FEF77DFC62
:1028F0000020FEF77AFC1C20FEF777FC0020FEF794
:1029000074FC2120FEF771FC0020FEF76EFC3620DF
:10291000FEF76BFC0020FEF768FC4620FEF765FC26
:102920000020FEF762FC5220FEF75FFC0020FEF75D
:102930005CFC642000E0FEE3FEF757FC0020FEF79D
:1029400054FC7A20FEF751FC0020FEF74EFC8B2051
:10295000FEF74BFC0020FEF748FC9920FEF745FCF3
:102960000020FEF742FCA820FEF73FFC0020FEF707
:102970003CFCB920FEF739FC0020FEF736FCC420F1
:10298000FEF733FC0020FEF730FCCA20FEF72DFCDA
:102990000020FEF72AFCD220FEF727FC0020FEF7DD
:1029A00024FCD920FEF721FC0020FEF71EFCE020CD
:1029B000FEF71BFC0020FEF718FCF320FEF715FCC9
:1029C0000020FEF712FCE120FEF70CFC1620FEF7BB
:1029D0000CFC0020FEF709FC1C20FEF706FC002082
:1029E000FEF703FC2220FEF700FC0020FEF7FDFBB3
:1029F0003620FEF7FAFB0020FEF7F7FB4520FEF736
:102A0000F4FB0020FEF7F1FB5220FEF7EEFB002066
:102A1000FEF7EBFB6420FEF7E8FB0020FEF7E5FB8A
:102A20007A20FEF7E2FB0020FEF7DFFB8B20FEF7AB
:102A3000DCFB0020FEF7D9FB9920FEF7D6FB002037
:102A4000FEF7D3FBA820FEF7D0FB0020FEF7CDFB5E
:102A5000B920FEF7CAFB0020FEF7C7FBC420FEF733
:102A6000C4FB0020FEF7C1FBCA20FEF7BEFB00201E
:102A7000FEF7BBFBD220FEF7B8FB0020FEF7B5FB4C
:102A8000D820FEF7B2FB0020FEF7AFFBE020FEF7F8
:102A9000ACFB0020FEF7A9FBF320FEF7A6FB00200D
:102AA000FEF7A3FBE220FEF79DFB0520FEF79DFB52
:102AB0000020FEF79AFB0B20FEF797FB0020FEF7A5
:102AC00094FB1B20FEF791FB0020FEF78EFB3420C9
:102AD000FEF78BFB0020FEF788FB4420FEF785FB0A
:102AE0000020FEF782FB4F20FEF77FFB0020FEF761
:102AF0007CFB6120FEF779FB0020FEF776FB792056
:102B0000FEF773FB0020FEF770FB8820FEF76DFBDD
:102B10000020FEF76AFB9720FEF767FB0020FEF718
:102B200064FBA620FEF761FB0020FEF75EFBB720EA
:102B3000FEF75BFB0020FEF758FBC220FEF755FBBB
:102B40000020FEF752FBC720FEF74FFB0020FEF7E8
:102B50004CFBD120FEF749FB0020FEF746FBD620B8
:102B6000FEF743FB0020FEF740FBDD20FEF73DFBB8
:102B70000020FEF73AFBF320FEF737FB0020FEF7BC
:102B800034FBE320FEF72EFB0520FEF72EFB002092
:102B9000FEF72BFB0A20FEF728FB0020FEF725FBA3
:102BA0001C20FEF722FB00E002E30020FEF71DFBE5
:102BB0003320FEF71AFB0020FEF717FB4420FEF738
:102BC00014FB0020FEF711FB5020FEF70EFB002047
:102BD000FEF70BFB6220FEF708FB0020FEF705FB6B
:102BE0007820FEF702FB0020FEF7FFFA8820FEF7B0
:102BF000FCFA0020FEF7F9FA9720FEF7F6FA00201B
:102C0000FEF7F3FAA620FEF7F0FA0020FEF7EDFA41
:102C1000B720FEF7EAFA0020FEF7E7FAC220FEF737
:102C2000E4FA0020FEF7E1FAC720FEF7DEFA002002
:102C3000FEF7DBFAD120FEF7D8FA0020FEF7D5FA2E
:102C4000D520FEF7D2FA0020FEF7CFFADD20FEF7FE
:102C5000CCFA0020FEF7C9FAF320FEF7C6FA0020EE
:102C6000FEF7C3FAE420FEF7BDFA0120FEF7BDFA35
:102C70000020FEF7BAFA0120FEF7B7FA0020FEF7AF
:102C8000B4FA0220FEF7B1FA0020FEF7AEFA2A20CD
:102C9000FEF7ABFA0020FEF7A8FA3C20FEF7A5FAF3
:102CA0000020FEF7A2FA4B20FEF79FFA0020FEF765
:102CB0009CFA5D20FEF799FA0020FEF796FA742040
:102CC000FEF793FA0020FEF790FA8420FEF78DFAC3
:102CD0000020FEF78AFA9320FEF787FA0020FEF71D
:102CE00084FAA220FEF781FA0020FEF77EFAB320D4
:102CF000FEF77BFA0020FEF778FABE20FEF775FAA1
:102D00000020FEF772FAC420FEF76FFA0020FEF7EB
:102D10006CFACD20FEF769FA0020FEF766FAD320A0
:102D2000FEF763FA0020FEF760FADD20FEF75DFA99
:102D30000020FEF75AFAF320FEF757FA0020FEF7BC
:102D400054FAE520FEF74EFA0020FEF74EFA002076
:102D5000FEF74BFA0020FEF748FA0020FEF745FA8E
:102D60000220FEF742FA0020FEF73FFA2920FEF784
:102D70003CFA0020FEF739FA3C20FEF736FA002034
:102D8000FEF733FA4B20FEF730FA0020FEF72DFA5B
:102D90005D20FEF72AFA0020FEF727FA7420FEF7DE
:102DA00024FA0020FEF721FA8420FEF71EFA002004
:102DB000FEF71BFA9320FEF718FA0020FEF715FA2B
:102DC000A220FEF712FA0020FEF70FFAB320FEF75A
:102DD0000CFA0020FEF709FABE20FEF706FA0020E2
:102DE000FEF703FAC420FEF700FA0020FEF7FDF913
:102DF000CD20FEF7FAF90020FEF7F7F9D320FEF711
:102E0000F4F90020FEF7F1F9DC20FEF7EEF90020DE
:102E1000FEF7EBF9F320FEF7E8F90020FEF7E5F9FD
:102E2000E620FEF7DFF91120FEF7DFF90020FEF7BC
:102E3000DCF93420FEF7D9F90020FEF7D6F9562048
:102E4000FEF7D3F90020FEF7D0F97620FEF7CDF992
:102E50000020FEF7CAF97720FEF7C7F90020FEF739
:102E6000C4F96620FEF7C1F90020FEF7BEF98820FC
:102E7000FEF7BBF90020FEF7B8F99920FEF7B5F987
:102E80000020FEF7B2F9BB20FEF7AFF90020FEF7F5
:102E9000ACF99920FEF7A9F90020FEF7A6F9662003
:102EA000FEF7A3F90020FEF7A0F95520FEF79DF9E3
:102EB0000020FEF79AF95520FEF797F90020FEF75B
:102EC00094F94520FEF791F90020FEF78EF9432092
:102ED000FEF78BF90020FEF788F94420FEF785F90C
:102EE0000020FEF782F9E720FEF77CF93220FEF79A
:102EF0007CF90020FEF779F95520FEF776F90020DD
:102F0000FEF773F97620FEF770F90020FEF76DF9F1
:102F10006620FEF76AF90020FEF767F96720FEF7E2
:102F200064F90020FEF761F96720FEF75EF90020E2
:102F3000FEF75BF98720FEF758F90020FEF755F9F8
:102F40009920FEF752F90020FEF74FF9BB20FEF75B
:102F50004CF90020FEF749F99920FEF746F90020C8
:102F6000FEF743F97720FEF740F90020FEF73DF920
:102F70004420FEF73AF90020FEF737F95620FEF715
:102F800034F90020FEF731F92320FEF72EF9002056
:102F9000FEF72BF93320FEF728F90020FEF725F97C
:102FA0004520FEF722F90020FEF71FF9E820FEF782
:102FB00019F90020FEF719F90020FEF716F99920FB
:102FC000FEF713F90020FEF710F98720FEF70DF940
:102FD0000020FEF70AF98820FEF707F90020FEF727
:102FE00004F97720FEF701F90020FEF7FEF86620CD
:102FF000FEF7FBF80020FEF7F8F88820FEF7F5F85A
:103000000020FEF7F2F8AA20FEF7EFF80020FEF706
:10301000ECF8BB20FEF7E9F80020FEF7E6F899206F
:10302000FEF7E3F80020FEF7E0F86620FEF7DDF893
:103030000020FEF7DAF85520FEF7D7F80020FEF75B
:10304000D4F85520FEF7D1F80020FEF7CEF8442042
:10305000FEF7CBF80020FEF7C8F84420FEF7C5F8CD
:103060000020FEF7C2F85520FEF7BFF80020FEF75B
:10307000BCF8E920FEF7B6F8AA20FEF7B6F8002063
:10308000FEF7B3F80020FEF7B0F80020FEF7ADF829
:103090000020FEF7A7F8AA20FEF7A7F8CF20FEF73A
:1030A000A1F80020FEF7A1F80020FEF79EF800200E
:1030B000FEF79BF80020FEF798F80020FEF795F841
:1030C0000020FEF792F80020FEF78FF80020FEF7B0
:1030D0008CF80020FEF789F80020FEF786F8002023
:1030E000FEF783F80020FEF780F80020FEF77DF859
:1030F0000020FEF77AF80020FEF777F80020FEF7B0
:1031000074F80020FEF771F8F020FEF76BF800204D
:10311000FEF76BF85020FEF768F80020FEF765F820
:103120000020FEF762F80020FEF75FF8F320FEF7BC
:1031300059F8002000E0FEE3FEF757F8F920FEF70B
:1031400051F80620FEF751F81020FEF74EF829201E
:10315000FEF74BF80020FEF748F83A20FEF742F859
:103160005520FEF742F81120FEF73CF8642002F0EB
:1031700058FC2920FEF736F83520FEF733F80020FA
:10318000FEF733F85120FEF72DF8FF20FEF72DF85B
:103190005320FEF727F82C20FEF727F85520FEF7DE
:1031A00021F88220FEF721F82C20FEF71BF8C2E35D
:1031B000FF488088A0F5AA4110397ED155214FF4EF
:1031C0007040FEF718F8AA214FF20100FEF713F83D
:1031D00052214FF20200FEF70EF808214FF20300D1
:1031E000FEF709F801214FF20400FEF704F80D2163
:1031F0004FF43040FDF7FFFF0D214BF20100FDF7CA
:10320000FAFF0D214BF20200FDF7F5FF34214FF4D8
:103210003640FDF7F0FF34214BF20160FDF7EBFF84
:1032200034214BF20260FDF7E6FF0D214FF43140EF
:10323000FDF7E1FF0D214BF20110FDF7DCFF0D2141
:103240004BF20210FDF7D7FF34214FF43740FDF762
:10325000D2FF34214BF20170FDF7CDFF34214BF248
:103260000270FDF7C8FF00214FF43240FDF7C3FFA5
:1032700000214BF20120FDF7BEFF00214BF202209E
:10328000FDF7B9FF24214FF43840FDF7B4FF2421A6
:103290004BF60100FDF7AFFF24214BF60200FDF7CE
:1032A000AAFF01214FF43F40FDF7A5FF0F214FF486
:1032B0003340FDF7A0FF0F2100E0FEE34BF20130A9
:1032C000FDF799FF0F214BF20230FDF794FF3421F7
:1032D0004FF43940FDF78FFF34214BF60110FDF715
:1032E0008AFF34214BF60210FDF785FF08214FF4C9
:1032F0003540FDF780FF08214BF20150FDF77BFFC1
:1033000008214BF20250FDF776FF03214FF44240B3
:10331000FDF771FF24214FF43A40FDF76CFF2421A3
:103320004BF60120FDF767FF24214BF60220FDF745
:1033300062FF00214FF43C40FDF75DFF78214BF622
:103340000140FDF758FF00214BF60240FDF753FF07
:1033500000214FF43D40FDF74EFF78214BF6015020
:10336000FDF749FF00214BF60250FDF744FF002115
:103370004FF43E40FDF73FFF64214BF60160FDF73F
:103380003AFF00214FF45140FDF735FF33214DF254
:103390000110FDF730FF00214DF20210FDF72BFF69
:1033A00034214DF20310FDF726FF00214DF20410E9
:1033B000FDF721FF3A214DF20510FDF71CFF00211A
:1033C0004DF20610FDF717FF4A214DF20710FDF7E9
:1033D00012FF00214DF20810FDF70DFF5C214DF2A8
:1033E0000910FDF708FF00214DF20A10FDF703FF59
:1033F00081214DF20B10FDF7FEFE00214DF20C1065
:10340000FDF7F9FEA6214DF20D10FDF7F4FE0021A7
:103410004DF20E10FDF7EFFEE5214DF20F10FDF716
:10342000EAFE01214DF21010FDF7E5FE13214DF2E9
:103430001110FDF7E0FE01214DF21210FDF7DBFE49
:1034400054214DF21310FDF7D6FE01214DF2141058
:10345000FDF7D1FE82214DF21510FDF7CCFE0121C2
:103460004DF21610FDF7C7FECA214DF21710FDF7F9
:10347000C2FE02214DF21810FDF7BDFE00214DF2F3
:103480001910FDF7B8FE02214DF21A10FDF7B3FE38
:1034900001214DF21B10FDF7AEFE02214DF21C1072
:1034A000FDF7A9FE34214DF21D10FDF7A4FE022107
:1034B0004DF21E10FDF79FFE67214DF21F10FDF724
:1034C0009AFE02214DF22010FDF795FE84214DF267
:1034D0002110FDF790FE02214DF22210FDF78BFE28
:1034E000A4214DF22310FDF786FE02214DF2241097
:1034F000FDF781FEB7214DF22510FDF77CFE02217C
:103500004DF22610FDF777FECF214DF22710FDF783
:1035100072FE02214DF22810FDF76DFEDE214DF204
:103520002910FDF768FE02214DF22A10FDF763FE17
:10353000F2214DF22B10FDF75EFE02214DF22C1010
:10354000FDF759FEFE214DF22D10FDF754FE03212B
:103550004DF22E10FDF74FFE10214DF22F10FDF70A
:103560004AFE03214DF23010FDF745FE33214DF2A6
:103570003110FDF740FE03214DF23210FDF73BFE06
:103580006D214DF23310FDF736FE00214FF452400D
:10359000FDF731FE33214DF20120FDF72CFE002115
:1035A0004DF20220FDF727FE34214DF2032001E009
:1035B0002C000020FDF71FFE00214DF20420FDF736
:1035C0001AFE3A214DF20520FDF715FE00214DF2BD
:1035D0000620FDF710FE4A214DF20720FDF70BFEF5
:1035E00000214DF20820FDF706FE5C214DF2092076
:1035F000FDF701FE00214DF20A20FDF7FCFD8121BF
:103600004DF20B20FDF7F7FD00214DF20C20FDF7E8
:10361000F2FDA6214DF20D20FDF7EDFD00214DF24A
:103620000E20FDF7E8FDE5214DF20F20FDF7E3FD4B
:1036300001214DF21020FDF7DEFD13214DF2112086
:10364000FDF7D9FD01214DF21220FDF7D4FD5421E3
:103650004DF21320FDF7CFFD01214DF21420FDF7AF
:10366000CAFD82214DF21520FDF7C5FD01214DF265
:103670001620FDF7C0FDCA214DF21720FDF7BBFD56
:1036800002214DF21820FDF7B6FD00214DF2192060
:10369000FDF7B1FD02214DF21A20FDF7ACFD01212D
:1036A0004DF21B20FDF7A7FD02214DF21C20FDF776
:1036B000A2FD34214DF21D20FDF79DFD02214DF2AA
:1036C0001E20FDF798FD67214DF21F20FDF793FDA9
:1036D00002214DF22020FDF78EFD84214DF22120A4
:1036E000FDF789FD02214DF22220FDF784FDA42182
:1036F0004DF22320FDF77FFD02214DF22420FDF73E
:103700007AFDB7214DF22520FDF775FD02214DF21E
:103710002620FDF770FDCF214DF22720FDF76BFD30
:1037200002214DF22820FDF766FDDE214DF2292011
:10373000FDF761FD02214DF22A20FDF75CFDF2212B
:103740004DF22B20FDF757FD02214DF22C20FDF705
:1037500052FDFE214DF22D20FDF74DFD03214DF2CE
:103760002E20FDF748FD10214DF22F20FDF743FDDF
:1037700003214DF23020FDF73EFD33214DF2312083
:10378000FDF739FD03214DF23220FDF734FD6D21A7
:103790004DF23320FDF72FFD00214FF45340FDF78C
:1037A0002AFD33214DF20130FDF725FD00214DF2B8
:1037B0000230FDF720FD34214DF20330FDF71BFDF3
:1037C00000214DF20430FDF716FD3A214DF205308F
:1037D000FDF711FD00214DF20630FDF70CFD4A21E9
:1037E0004DF20730FDF707FD00214DF20830FDF7DF
:1037F00002FD5C214DF20930FDF7FDFC00214DF288
:103800000A30FDF7F8FC81214DF20B30FDF7F3FC97
:1038100000214DF20C30FDF7EEFCA6214DF20D30EB
:10382000FDF7E9FC00214DF20E30FDF7E4FCE52147
:103830004DF20F30FDF7DFFC01214DF21030FDF7A6
:10384000DAFC13214DF21130FDF7D5FC01214DF2C8
:103850001230FDF7D0FC54214DF21330FDF7CBFCB4
:1038600001214DF21430FDF7C6FC82214DF21530D6
:10387000FDF7C1FC01214DF21630FDF7BCFCCA2159
:103880004DF21730FDF7B7FC02214DF21830FDF76D
:10389000B2FC00214DF21930FDF7ADFC02214DF2D2
:1038A0001A30FDF7A8FC01214DF21B30FDF7A3FCF7
:1038B00002214DF21C30FDF79EFC34214DF21D30EB
:1038C000FDF799FC02214DF21E30FDF794FC6721B3
:1038D0004DF21F30FDF78FFC02214DF22030FDF735
:1038E0008AFC84214DF22130FDF785FC02214DF246
:1038F0002230FDF780FCA4214DF22330FDF77BFC44
:1039000002214DF22430FDF776FCB7214DF225302F
:10391000FDF771FC02214DF22630FDF76CFCCF2142
:103920004DF22730FDF767FC02214DF22830FDF7FC
:1039300062FCDE2100E0C6E34DF22930FDF75BFCBE
:1039400002214DF22A30FDF756FCF2214DF22B30C8
:10395000FDF751FC02214DF22C30FDF74CFCFE210D
:103960004DF22D30FDF747FC03214DF22E30FDF7CF
:1039700042FC10214DF22F30FDF73DFC03214DF2AA
:103980003030FDF738FC33214DF23130FDF733FC98
:1039900003214DF23230FDF72EFC6D214DF2333014
:1039A000FDF729FC00214FF45440FDF724FC33219E
:1039B0004DF20140FDF71FFC00214DF20240FDF7E2
:1039C0001AFC34214DF20340FDF715FC00214DF2A5
:1039D0000440FDF710FC3A214DF20540FDF70BFCC9
:1039E00000214DF20640FDF706FC4A214DF207404A
:1039F000FDF701FC00214DF20840FDF7FCFB5C21C6
:103A00004DF20940FDF7F7FB00214DF20A40FDF7AA
:103A1000F2FB81214DF20B40FDF7EDFB00214DF251
:103A20000C40FDF7E8FBA6214DF20D40FDF7E3FB4E
:103A300000214DF20E40FDF7DEFBE5214DF20F4077
:103A4000FDF7D9FB01214DF21040FDF7D4FB132106
:103A50004DF21140FDF7CFFB01214DF21240FDF771
:103A6000CAFB54214DF21340FDF7C5FB01214DF275
:103A70001440FDF7C0FB82214DF21540FDF7BBFB62
:103A800001214DF21640FDF7B6FBCA214DF2174059
:103A9000FDF7B1FB02214DF21840FDF7ACFB002110
:103AA0004DF21940FDF7A7FB02214DF21A40FDF738
:103AB000A2FB01214DF21B4000E005E3FDF79BFB5B
:103AC00002214DF21C40FDF796FB34214DF21D40C2
:103AD000FDF791FB02214DF21E40FDF78CFB6721A3
:103AE0004DF21F40FDF787FB02214DF22040FDF70C
:103AF00082FB84214DF22140FDF77DFB02214DF236
:103B00002240FDF778FBA4214DF22340FDF773FB23
:103B100002214DF22440FDF76EFBB7214DF2254006
:103B2000FDF769FB02214DF22640FDF764FBCF2132
:103B30004DF22740FDF75FFB02214DF22840FDF7D3
:103B40005AFBDE214DF22940FDF755FB02214DF2D3
:103B50002A40FDF750FBF2214DF22B40FDF74BFBC5
:103B600002214DF22C40FDF746FBFE214DF22D4087
:103B7000FDF741FB03214DF22E40FDF73CFB1021E8
:103B80004DF22F40FDF737FB03214DF23040FDF79A
:103B900032FB33214DF23140FDF72DFB03214DF275
:103BA0003240FDF728FB6D214DF23340FDF723FB3A
:103BB00000214FF45540FDF71EFB33214DF201501B
:103BC000FDF719FB00214DF20250FDF714FB3421E3
:103BD0004DF20350FDF70FFB00214DF20450FDF7AD
:103BE0000AFB3A214DF20550FDF705FB00214DF28D
:103BF0000650FDF700FB4A214DF20750FDF7FBFA96
:103C000000214DF20850FDF7F6FA5C214DF2095003
:103C1000FDF7F1FA00214DF20A50FDF7ECFA81218F
:103C20004DF20B50FDF7E7FA00214DF20C50FDF775
:103C3000E2FAA6214DF20D50FDF7DDFA00214DF21A
:103C40000E50FDF7D8FAE5214DF20F50FDF7D3FAEB
:103C500001214DF21050FDF7CEFA13214DF2115013
:103C6000FDF7C9FA01214DF21250FDF7C4FA5421B3
:103C70004DF21350FDF7BFFA01214DF21450FDF73C
:103C8000BAFA82214DF21550FDF7B5FA01214DF235
:103C90001650FDF7B0FACA214DF21750FDF7ABFAF6
:103CA00002214DF21850FDF7A6FA00214DF21950ED
:103CB000FDF7A1FA02214DF21A50FDF79CFA0121FD
:103CC0004DF21B50FDF797FA02214DF21C50FDF703
:103CD00092FA34214DF21D50FDF78DFA02214DF27A
:103CE0001E50FDF788FA67214DF21F50FDF783FA49
:103CF00002214DF22050FDF77EFA84214DF2215031
:103D0000FDF779FA02214DF22250FDF774FAA42151
:103D10004DF22350FDF76FFA02214DF22450FDF7CA
:103D20006AFAB7214DF22550FDF765FA02214DF2EE
:103D30002650FDF760FACF214DF22750FDF75BFAD0
:103D400002214DF22850FDF756FADE214DF229509E
:103D5000FDF751FA02214DF22A50FDF74CFAF221FB
:103D60004DF22B50FDF747FA02214DF22C50FDF792
:103D700042FAFE214DF22D50FDF73DFA03214DF29E
:103D80002E50FDF738FA10214DF22F50FDF733FA7F
:103D900003214DF23050FDF72EFA33214DF2315010
:103DA000FDF729FA03214DF23250FDF724FA6D2177
:103DB0004DF23350FDF71FFA00214FF45640FDF746
:103DC0001AFA33214DF20160FDF715FA00214DF288
:103DD0000260FDF710FA34214DF20360FDF70BFA93
:103DE00000214DF20460FDF706FA3A214DF205601C
:103DF000FDF701FA00214DF20660FDF7FCF94A21BA
:103E00004DF20760FDF7F7F900214DF20860FDF76C
:103E1000F2F95C214DF20960FDF7EDF900214DF258
:103E20000A60FDF7E8F981214DF20B60FDF7E3F937
:103E300000214DF20C60FDF7DEF9A6214DF20D6078
:103E4000FDF7D9F900214DF20E60FDF7D4F9E52117
:103E50004DF20F60FDF7CFF901214DF21060FDF733
:103E6000CAF913214DF21160FDF7C5F901214DF298
:103E70001260FDF7C0F954214DF21360FDF7BBF954
:103E800001214DF21460FDF7B6F982214DF2156063
:103E9000FDF7B1F901214DF21660FDF7ACF9CA2129
:103EA0004DF21760FDF7A7F902214DF21860FDF7FA
:103EB000A2F900214DF21960FDF79DF902214DF2A2
:103EC0001A60FDF798F901214DF21B60FDF793F997
:103ED00002214DF21C60FDF78EF934214DF21D6078
:103EE000FDF789F902214DF21E60FDF784F9672183
:103EF0004DF21F60FDF77FF902214DF22060FDF7C2
:103F00007AF984214DF22160FDF775F902214DF215
:103F10002260FDF770F9A4214DF22360FDF76BF9E3
:103F200002214DF22460FDF766F9B7214DF22560BC
:103F3000FDF761F902214DF22660FDF75CF9CF2112
:103F40004DF22760FDF757F902214DF22860FDF789
:103F500052F9DE214DF22960FDF74DF902214DF2B3
:103F60002A60FDF748F9F2214DF22B60FDF743F985
:103F700002214DF22C60FDF73EF9FE214DF22D603D
:103F8000FDF739F903214DF22E60FDF734F91021C8
:103F90004DF22F60FDF72FF903214DF23060FDF750
:103FA0002AF933214DF23160FDF725F903214DF255
:103FB0003260FDF720F96D214DF23360FDF71BF9FA
:103FC00055214FF47040FDF716F9AA214FF2010078
:103FD000FDF711F952214FF20200FDF70CF908210B
:103FE0004FF20300FDF707F900214FF20400FDF73F
:103FF00002F9CC214FF43140FDF7FDF800214BF2DE
:104000000110FDF7F8F805214FF43640FDF7F3F8FD
:1040100070214FF43740FDF7EEF870214BF201703C
:10402000FDF7E9F801214FF43840FDF7E4F80321EA
:104030004BF60100FDF7DFF803214BF60200FDF718
:10404000DAF803214BF60300FDF7D5F802214FF40F
:104050003C40FDF7D0F800214BF60140FDF7CBF8CE
:1040600000214BF60240FDF7C6F8D0214FF449403D
:10407000FDF7C1F802214CF60110FDF7BCF8502104
:104080004CF60210FDF7B7F850214CF60310FDF77F
:10409000B2F850214CF60410FDF7ADF800214FF4B2
:1040A0005450FDF7A8F855214FF46850FDF7A3F8D8
:1040B0004FF48850FDF796F8782001F098FC4FF403
:1040C0002450FDF78FF88DE2FF488088A0F513415A
:1040D00025397ED147F6F001E520FDF78CF84FF445
:1040E00080710120FDF787F84FF4E0610220FDF7B1
:1040F00082F841F230010320FDF77DF80021042011
:10410000FDF779F840F202210820FDF774F800214C
:104110000920FDF770F800210A20FDF76CF8002156
:104120000C20FDF768F800210D20FDF764F8002150
:104130000F20FDF760F800211020FDF75CF8072143
:104140001120FDF758F800211220FDF754F8002146
:104150001320FDF750F800210720FDF74CF841F23D
:1041600090611020FDF747F840F227211120FDF75C
:1041700042F89D211220FDF73EF84FF4C85113205C
:10418000FDF739F825212920FDF735F80D212B20E1
:10419000FDF731F807213020FDF72DF840F203310B
:1041A0003120FDF728F803213220FDF724F840F2F2
:1041B00006213520FDF71FF808213620FDF71BF8F2
:1041C00040F206413720FDF716F84FF441713820D0
:1041D00000E057E0FDF70FF807213920FDF70BF855
:1041E00040F202613C20FDF706F808213D20FDF772
:1041F00002F800215020FCF7FEFFEF215120FCF7D0
:10420000FAFF00215220FCF7F6FF40F23F11532045
:10421000FCF7F1FF4FF427416020FCF7ECFF012190
:104220006120FCF7E8FF00216A20FCF7E4FF002191
:104230008020FCF7E0FF00218120FCF7DCFF00215B
:104240008220FCF7D8FF00218320FCF7D4FF002157
:104250008420FCF7D0FF00218520FCF7CCFF102143
:104260009020FCF7C8FF4FF4C0619220FCF7C3FF19
:1042700040F233110720FCF7BEFF22210020FCF79B
:10428000BAFFAFE190488088A0F5134128397ED16C
:1042900041F28F01EC20FCF7AEFF41F23421EF2018
:1042A000FCF7A9FF4FF480710120FCF7A4FF4FF445
:1042B000E0610220FCF79FFF41F230010320FCF790
:1042C0009AFF00210420FCF796FF40F2022108200B
:1042D000FCF791FF00210920FCF78DFF00210A2047
:1042E000FCF789FF01210C20FCF785FF00210D2040
:1042F000FCF781FF00210F20FCF77DFF002110203B
:10430000FCF779FF07211120FCF775FF002112202F
:10431000FCF771FF00211320FCF76DFF012107203E
:10432000FCF769FF322001F07CFB41F29041102044
:10433000FCF761FF40F227211120FCF75CFF3220DF
:1043400001F06FFB8A211220FCF755FF322001F0AB
:1043500068FB4FF4D0511320FCF74DFF06212920B4
:10436000FCF749FF0D212B20FCF745FF322001F01F
:1043700058FB00212020FCF73EFF00212120FCF704
:104380003AFF322001F04DFB0021302000E074E0C4
:10439000FCF731FF40F204613120FCF72CFF40F2C2
:1043A00005313220FCF727FF00213520FCF723FFE1
:1043B00040F609413620FCF71EFF4FF4017137200B
:1043C000FCF719FF40F201313820FCF714FF40F2EE
:1043D00007713920FCF70FFF00213C20FCF70BFF91
:1043E00040F60A213D20FCF706FF322001F019FBC0
:1043F00000215020FCF7FFFEEF215120FCF7FBFECF
:1044000000215220FCF7F7FE40F23F115320FCF749
:10441000F2FE4FF427416020FCF7EDFE0121612000
:10442000FCF7E9FE00216A20FCF7E5FE0021802070
:10443000FCF7E1FE00218120FCF7DDFE0021822057
:10444000FCF7D9FE00218320FCF7D5FE0021842053
:10445000FCF7D1FE00218520FCF7CDFE1021902035
:10446000FCF7C9FE4FF4C0619220FCF7C4FE40F295
:1044700033110720FCF7BFFEB4E013488088A0F595
:10448000134120397DD10846FCF7B5FE4FF4807109
:104490000120FCF7B0FE4FF4E0610220FCF7ABFE18
:1044A00041F230010320FCF7A6FE00210420FCF7B6
:1044B000A2FE40F202210820FCF79DFE0021092007
:1044C000FCF799FE002101E02C0000200A20FCF7F7
:1044D00092FE01210C20FCF78EFE00210D20FCF73E
:1044E0008AFE00210F20FCF786FE322001F099FAA7
:1044F00040F201110720FCF77EFE322001F091FA14
:104500004FF486511020FCF776FE07211120FCF7AE
:1045100072FE4FF488711220FCF76DFE4FF430618B
:104520001320FCF768FE00212920FCF764FE44F20A
:1045300010012B20FCF75FFE00215020FCF75BFEF2
:10454000EF215120FCF757FE00215220FCF753FECB
:1045500040F23F115320FCF74EFE4FF41C516020F7
:10456000FCF749FE01216120FCF745FE00216A208D
:10457000FCF741FE00218020FCF73DFE0021812058
:1045800000E030E0FCF737FE00218220FCF733FE2C
:1045900000218320FCF72FFE00218420FCF72BFE56
:1045A00000218520FCF727FE10219020FCF723FE38
:1045B00000219220FCF71FFE01219320FCF71BFE37
:1045C0004FF488719520FCF716FE00219720FCF728
:1045D00012FE00219820FCF70EFE40F27311072016
:1045E000FCF709FEAEE2FF488088A0F5134131399F
:1045F0007DD141F21401E720FCF7FDFD4FF48071FD
:104600000120FCF7F8FD4FF400710220FCF7F3FDE8
:1046100041F238010320FCF7EEFD40F202210820B0
:10462000FCF7E9FD00210920FCF7E5FD00210A2047
:10463000FCF7E1FD00210C20FCF7DDFD00210D2041
:10464000FCF7D9FD00210F20FCF7D5FD002110203B
:10465000FCF7D1FD07211120FCF7CDFD0021122030
:10466000FCF7C9FD00211320FCF7C5FDC82001F0AF
:10467000D8F941F290611020FCF7BDFD40F22721EE
:104680001120FCF7B8FD322001F0CBF90C211220EB
:10469000FCF7B1FD322001F0C4F94FF400611320A2
:1046A000FCF7A9FD11212920FCF7A5FD0B212B20EA
:1046B000FCF7A1FD322001F0B4F900212020FCF725
:1046C0009AFD40F23F112120FCF795FD002130209A
:1046D000FCF791FD4FF483713120FCF78CFD002134
:1046E0003220FCF788FD4FF40171352000E064E0D2
:1046F000FCF781FD41F20A613620FCF77CFD40F2B7
:1047000007713720FCF777FD4FF483713820FCF7F1
:1047100072FD40F207713920FCF76DFD40F2024155
:104720003C20FCF768FD40F60F413D20FCF763FD9F
:1047300000215020FCF75FFDEF215120FCF75BFDCD
:1047400000215220FCF757FD40F23F115320FCF7A7
:1047500052FD4FF41C516020FCF74DFD01216120FA
:10476000FCF749FD00216A20FCF745FD002180206F
:10477000FCF741FD00218120FCF73DFD0021822056
:10478000FCF739FD00218320FCF735FD0021842052
:10479000FCF731FD00218520FCF72DFD1021902034
:1047A000FCF729FD4FF4C0619220FCF724FD40F294
:1047B00033110720FCF71FFDC4E18A488088A0F56B
:1047C000A84108397ED14FF480710120FCF713FD18
:1047D0004FF4E0610220FCF70EFD41F230010320AE
:1047E000FCF709FD00210420FCF705FD40F207213C
:1047F0000820FCF700FD00210920FCF7FCFC00214B
:104800000A20FCF7F8FC00210C20FCF7F4FC002146
:104810000D20FCF7F0FC00210F20FCF7ECFC14202D
:1048200001F0FFF841F2B0611020FCF7E4FC012137
:104830001120FCF7E0FC01211720FCF7DCFC4FF411
:104840009C711220FCF7D7FC4FF400611320FCF799
:10485000D2FC09212920FCF7CEFC09212A20FCF7F3
:10486000CAFC0021A420FCF7C6FC00215020FCF764
:10487000C2FCEF215120FCF7BEFC00215220FCF7C6
:10488000BAFC40F23F115320FCF7B5FC4FF41C5129
:104890006020FCF7B0FC01216120FCF7ACFC00219A
:1048A0006A20FCF7A8FC00218020FCF7A4FC002172
:1048B0008120FCF7A0FC00218220FCF79CFC002159
:1048C000832000E023E0FCF796FC00218420FCF725
:1048D00092FC00218520FCF78EFC13219020FCF730
:1048E0008AFC00219220FCF786FC03219320FCF730
:1048F00082FC4FF488719520FCF77DFC40F2731127
:104900000720FCF778FC322001F08BF81AE13548DB
:104910008088A0F5A851053963D10720FCF76BFC0E
:10492000322001F07EF84FF48E711220FCF763FC08
:104930000121A420FCF75FFC0F210820FCF75BFCA1
:1049400008210A20FCF757FC08210D20FCF753FC36
:1049500040F207713020FCF74EFC07213120FCF7B4
:104960004AFC40F203613220FCF745FC4FF4E06161
:104970003320FCF740FC40F202213420FCF73BFCE2
:1049800002213520FCF737FC41F60F713620FCF789
:1049900032FC40F207713720FCF72DFC0021382053
:1049A000FCF729FC00213920FCF725FC40F20771B7
:1049B0003A20FCF720FC00213B20FCF71CFC0721DF
:1049C0003C20FCF718FC00213D20FCF714FC3220B1
:1049D00001F027F801210720FCF70DFC0121172029
:1049E00002E0B0E02C000020FCF705FC322001F0D2
:1049F00018F84FF4BD511020FCF7FDFB40F21721D1
:104A00001120FCF7F8FB4FF48F711220FCF7F3FB39
:104A10004FF470611320FCF7EEFB00212A20FCF715
:104A2000EAFB0A212920FCF7E6FB4FF49F711220D4
:104A3000FCF7E1FB00215020FCF7DDFBEF215120CA
:104A4000FCF7D9FB00215220FCF7D5FB40F23F11C7
:104A50005320FCF7D0FB4FF41C516020FCF7CBFB3C
:104A600001216120FCF7C7FB00216A20FCF7C3FB92
:104A700000218020FCF7BFFB00218120FCF7BBFB5D
:104A800000218220FCF7B7FB00218320FCF7B3FB59
:104A900000218420FCF7AFFB00218520FCF7ABFB55
:104AA00013219020FCF7A7FB4FF440719220FCF7F4
:104AB000A2FB05219320FCF79EFB00219520FCF72B
:104AC0009AFB00219720FCF796FB00219820FCF729
:104AD00092FB4FF480710120FCF78DFB4FF4E061F5
:104AE0000220FCF788FB41F238010320FCF783FB2E
:104AF00000210420FCF77FFB00210C20FCF77BFB4E
:104B000000210F20FCF777FB00212020FCF773FB2E
:104B100000212120FCF76FFB21210720FCF76BFB14
:104B2000142000F07EFF61210720FCF764FB1420B5
:104B300000F077FF40F273110720FCF75CFB1420B4
:104B400000F06FFFA3E2FF488088A0F535410539EA
:104B50007DD10846FCF74FFB00210846FCF74BFBD4
:104B600000210846FCF747FB00210846FCF743FB01
:104B70000121A420FCF73FFB142000F052FF4FF46A
:104B80001C516020FCF737FB40F202210820FCF7A3
:104B900032FB4FF405713020FCF72DFB43F2157109
:104BA0003120FCF728FB40F204613220FCF723FBA4
:104BB00040F616613320FCF71EFB42F2112134202F
:104BC000FCF719FB4FF4A8513520FCF714FB48F211
:104BD00007513620FCF70FFB41F207413720FCF765
:104BE0000AFB41F203413820FCF705FB2021392064
:104BF000FCF701FB1A219020FCF7FDFA00211020A0
:104C0000FCF7F9FA07211120FCF7F5FA0021122030
:104C1000FCF7F1FA00211320FCF7EDFA142000F064
:104C200000FF4FF4E6611020FCF7E5FA40F237117F
:104C30001120FCF7E0FA142000F0F3FE4FF4DC71D1
:104C40001220FCF7D8FA142000F0EBFE00E083E01D
:104C50004FF470611320FCF7CEFA80212A20FCF774
:104C6000CAFA48212920FCF7C6FA142000F0D9FE20
:104C70004FF480710120FCF7BEFA4FF4E06102208E
:104C8000FCF7B9FA41F238010320FCF7B4FA40F21C
:104C900002210820FCF7AFFA00210A20FCF7ABFA4A
:104CA00000210C20FCF7A7FA00210D20FCF7A3FA45
:104CB00030210E20FCF79FFA00215020FCF79BFAD0
:104CC000EF215120FCF797FA00215220FCF793FACC
:104CD00040F23F115320FCF78EFA4FF41C51602034
:104CE000FCF789FA01216120FCF785FA00216A208E
:104CF000FCF781FA11219020FCF77DFA4FF4C06196
:104D00009220FCF778FA40F202419320FCF773FA04
:104D100002219420FCF76FFA142000F082FE01219A
:104D20000720FCF768FA142000F07BFE61210720C1
:104D3000FCF761FA40F273110720FCF75CFA0021DE
:104D40002020FCF758FA00212120FCF754FA2221F8
:104D50000020FCF750FA14E37A488088A0F545411A
:104D600005397DD10846FCF746FA00210846FCF7D4
:104D700042FA142000F055FE00210846FCF73BFAE9
:104D800000210846FCF737FA00210846FCF733FA01
:104D900000210846FCF72FFA0121A420FCF72BFA8A
:104DA000142000F03EFE4FF41C516020FCF723FA63
:104DB00040F606010820FCF71EFA40F2037130208D
:104DC000FCF719FA01213120FCF715FA04213220F1
:104DD000FCF711FA4FF481713320FCF70CFA4FF411
:104DE00040713420FCF707FA40F203113520FCF73C
:104DF00002FA1F213620FCF7FEF940F2037137203A
:104E0000FCF7F9F901213820FCF7F5F904213920E4
:104E1000FCF7F1F915219020FCF7EDF94FF48261D0
:104E20001020FCF7E8F940F247211120FCF7E3F9E4
:104E30004FF4DE711220FCF7DEF94FF460611320AD
:104E4000FCF7D9F9782000F0ECFD4FF480710120D7
:104E5000FCF7D1F94FF400710220FCF7CCF900E027
:104E600050E041F230010320FCF7C5F908210A2087
:104E7000FCF7C1F900210C20FCF7BDF920210E2020
:104E8000FCF7B9F900210F20FCF7B5F9002120202B
:104E9000FCF7B1F900212120FCF7ADF93D212A20D2
:104EA000FCF7A9F9142000F0BCFD2D212920FCF706
:104EB000A2F900215020FCF79EF94DF2EF0151209C
:104EC000FCF799F900215220FCF795F940F23F11C7
:104ED0005320FCF790F900216120FCF78CF90021A8
:104EE0006A20FCF788F94FF440719220FCF783F9AF
:104EF00005219320FCF77FF94FF480710720FCF720
:104F00007AF93EE20F488088A0F5094189397ED1BF
:104F100001210020FCF76FF94AF6A4010320FCF7F9
:104F20006AF900210C20FCF766F940F60C010D200F
:104F3000FCF761F94FF42C510E20FCF75CF9B0211D
:104F40001E2001E02C000020FCF755F942F63F310D
:104F50000120FCF750F94FF4C0610220FCF74BF937
:104F600000211020FCF747F946F278011120FCF7E8
:104F700042F900210520FCF73EF900210620FCF74C
:104F80003AF94EF61C711620FCF735F9032117206B
:104F9000FCF731F940F233210720FCF72CF900210E
:104FA0000B20FCF728F900210F20FCF724F9002141
:104FB0004120FCF720F900214220FCF71CF90021D8
:104FC0004820FCF718F940F23F114920FCF713F98B
:104FD00000214A20FCF70FF900214B20FCF70BF9C8
:104FE0004FF46F414420FCF706F900214520FCF7FF
:104FF00002F940F23F114620FCF7FDF840F207713C
:105000003020FCF7F8F84FF40171312000E03FE068
:10501000FCF7F1F84FF401713220FCF7ECF840F2A4
:1050200002513320FCF7E7F840F207513420FCF737
:10503000E2F84FF401713520FCF7DDF84FF401710F
:105040003620FCF7D8F840F202513720FCF7D3F8AD
:1050500040F202313A20FCF7CEF840F202313B2018
:10506000FCF7C9F800212320FCF7C5F80021242013
:10507000FCF7C1F84FF400412520FCF7BCF80021F3
:105080004F20FCF7B8F800214E20FCF7B4F878E187
:10509000F9488088A0F58A4131397ED1012100206C
:1050A000FCF7A9F80A2000F0BCFC41F228611020AE
:1050B000FCF7A1F80E211220FCF79DF840F63921EB
:1050C0001320FCF798F80A2000F0ABFC40211120D7
:1050D000FCF791F850211520FCF78DF80A2000F01C
:1050E000A0FC1E211220FCF786F80A2000F099FC93
:1050F0004FF4B1511020FCF77EF842F6392113200D
:10510000FCF779F80A2000F08CFC4FF48071012044
:10511000FCF771F84FF440710220FCF76CF841F293
:1051200038010320FCF767F840F202210820FCF761
:1051300062F808210A20FCF75EF800213020FCF715
:105140005AF840F202413120FCF755F84FF48371D0
:105150003220FCF750F840F203513320FCF74BF8B3
:105160004FF482713420FCF746F840F201313520CB
:10517000FCF741F840F207713620FCF73CF840F2AA
:1051800005313720FCF737F84FF402713820FCF76F
:1051900032F840F60B71392000E03BE0FCF72BF8C9
:1051A00002214120FCF727F84FF41C516020FCF746
:1051B00022F801216120FCF71EF84FF404719020C1
:1051C000FCF719F84FF485719220FCF714F80421CC
:1051D0009320FCF710F84FF48071A020FCF70BF837
:1051E00001210720FCF707F821210720FCF703F82D
:1051F00023210720FBF7FFFF33210720FBF7FBFFED
:1052000040F233110720FBF7F6FF0021A020FBF747
:10521000F2FFB6E098488088A0F58A4135397ED102
:1052200030211520FBF7E7FF10219A20FBF7E3FF61
:1052300020211120FBF7DFFF43F228411020FBF76C
:10524000DAFF02211220FBF7D6FF41F238011320CA
:10525000FBF7D1FF282000F0E4FB12210846FBF702
:10526000CAFF282000F0DDFB43F220411020FBF7AD
:10527000C2FF43F238011320FBF7BDFF462000F0C8
:10528000D0FB00213020FBF7B6FF40F20241312075
:10529000FBF7B1FF40F207313220FBF7ACFF4FF4D0
:1052A00041713320FBF7A7FF04213420FBF7A3FF54
:1052B00040F201413520FBF79EFF40F20771362096
:1052C000FBF799FF40F205313720FBF794FF4FF4CD
:1052D000C2613820FBF78FFF4FF4C2613920FBF722
:1052E0008AFF4FF480710120FBF785FF4FF4407176
:1052F0000220FBF780FF41F230010320FBF77BFF28
:1053000040F608010820FBF776FF08210A20FBF78A
:1053100072FF4FF41C516020FBF76DFF00E030E09E
:1053200001216120FBF767FF4FF49F719020FBF78D
:1053300062FF4FF480719220FBF75DFF4FF48071A4
:105340009320FBF758FF4FF44051A020FBF753FF89
:105350001021A320FBF74FFF01210720FBF74BFF94
:1053600021210720FBF747FF23210720FBF743FFFD
:1053700033210720FBF73FFF40F233110720FBF7F3
:105380003AFF0020FCF7E9FA00203C4908601FB012
:1053900000BD70B50446002637480588408845435F
:1053A00035488088A0F5D041043916D1324880793B
:1053B000012812D10020304988712A2048812B20F1
:1053C000888100210846FBF744FF01202A498871A3
:1053D0002B2048812A20888103E000210846FBF722
:1053E00038FFFBF71AFF002603E02548048006F18A
:1053F0000106AE42F9D370BD2DE9FC4F05460E46BD
:1054000017469846DDF82C90002001901A488088B5
:10541000A0F5D041043929D117488079012825D138
:10542000AB46354614480088C01B401E86B247462E
:1054300011480088A0EB0B00401E1FFA80F80020E6
:105440000D4988712A2048812B20888143463A469D
:1054500031462846CDF80090FFF7CEFF01200649DF
:1054600088712B2048812A20888122E0781B401CEB
:1054700080B2019034461AE02C0000208081214245
:105480000008006C21462846FBF7E3FEFBF7C5FE4B
:105490004FF0000A06E04846FBF7A7FE0AF10100BC
:1054A0001FFA80FA01988245F5DB601C84B24445FE
:1054B000E8DDBDE8FC8F2DE9F84F07460D46904624
:1054C0009946DDF828B0A8EB0700401C80B2009098
:1054D000A9EB0500401C1FFA80FA002416E02819E9
:1054E00081B23846FBF7B5FEFBF797FE002608E0D1
:1054F00004FB0A603BF81000FF49088006F1010038
:1055000086B200988642F3DB601C84B25445E6DB29
:10551000BDE8F88F2DE9FF4F84B081468A46002010
:10552000039002900698A0EB09050798A0EB0A06E5
:10553000CDF80490CDF800A0002D01DD012705E095
:105540000DB9002702E04FF0FF376D42002E02DD5B
:105550004FF0010806E016B94FF0000802E04FF0E6
:10556000FF387642B54201DD2C4600E034464FF06C
:10557000000B21E0009881B2019880B2FCF753F94A
:105580000398284403900298304402900398A04264
:1055900005DD0398001B03900198384401900298A0
:1055A000A04205DD0298001B029000984044009044
:1055B0000BF101001FFA80FB601C8345DADD08B0A7
:1055C000BDE8F08FF0B504460D4616461F462B4643
:1055D000324629462046FFF79DFF3B462246294694
:1055E0002046FFF797FF3B46324639462046FFF7F5
:1055F00091FF3B46324629463046FFF78BFFF0BD10
:105600002DE9F04306460F46904600244546032008
:10561000A0EB48093CE07A1B91B2321990B2FCF73A
:1056200002F93A1B91B2721990B2FCF7FCF83A19E0
:1056300091B2721990B2FCF7F6F87A1991B2321958
:1056400090B2FCF7F0F87A1991B2321B90B2FCF7E5
:10565000EAF83A1991B2721B90B2FCF7E4F87A1B9F
:1056600091B2321B90B2FCF7DEF83A1B91B2721B7A
:1056700090B2FCF7D8F8641CB9F1000F03DAA0006F
:10568000801D814404E0601B80000A3081446D1E4F
:10569000AC42C0DDBDE8F0832DE9FF4F81B0054687
:1056A0000F4690461E4600979448B0F80090A8F127
:1056B000200000F0FF080E9890BB00244BE00C2E59
:1056C00007D108EB48008E4901EB800010F804A0D8
:1056D00004E08C4800EB081010F804A04FF0000B19
:1056E00033E01AF0800F03D08448A0F8009003E064
:1056F000854800888149088039462846FCF793F898
:105700004FEA4A604FEA106A781C87B27F480088E7
:10571000A84206DC7948A0F8009005B0BDE8F08FFB
:105720001CE00098381AB0420BD1009F681C85B26B
:1057300076480088A84203DC7048A0F80090ECE7A7
:1057400006E00BF1010000F0FF0BBBF1080FC8DB16
:1057500000BF601CC4B2B442B1DB44E0002440E0AE
:105760000C2E07D108EB4800654901EB800010F8CA
:1057700004A004E0634800EB081010F804A04FF008
:10578000000B28E01AF0800F03D039462846FCF7BA
:105790004AF84FEA4A604FEA106A781C87B25B48C1
:1057A0004088A84203DC5548A0F80090B5E700986F
:1057B000381AB0420BD1009F681C85B2534800884C
:1057C000A84203DC4D48A0F80090A6E706E00BF1E4
:1057D000010000F0FF0BBBF1080FD3DB00BF601C22
:1057E000C4B2B442BCDB4548A0F8009000BF94E7C7
:1057F00010B50246012000E050430B00A1F1010466
:10580000E1B2F9D110BD2DE9FF4F81B007469146B5
:105810001E460E9D4FF0000A00243BE0301B401E48
:10582000C1B20A20FFF7E4FFB9FBF0F00A21B0FB98
:10583000F1F201FB120000F0FF08BAF1000F16D1DF
:10584000701EA04213DDB8F1000F0ED10023AB464D
:1058500005EBD571491001FB047188B200932B460A
:1058600020220299FFF718FF12E04FF0010A0023EF
:10587000AB4605EBD571491001FB047188B200936A
:105880002B4608F13001CAB20299FFF705FF00BFAD
:10589000601CC4B2B442C1DB05B0BDE8F08F2DE995
:1058A000FF4F82B0064692461F46DDE90F480020B2
:1058B000019000255DE0781B401EC1B20A20FFF771
:1058C00097FFBAFBF0F00A21B0FBF1F201FB1200E6
:1058D00000F0FF090198A8BB781EA84235DDB9F198
:1058E000000F30D118F0800F1CD008F00103A34640
:1058F00004EBD47149100BE00008006C2800002074
:105900009A5A00080E5F00082A0000202C00002090
:1059100001FB056188B20093234630220399FFF70B
:10592000BBFE0EE008F00103A34604EBD47149105E
:1059300001FB056188B20093234620220399FFF7FB
:10594000ABFE14E001E00120019008F00103A34642
:1059500004EBD471491001FB056188B20093234622
:1059600009F13001CAB20399FFF796FE00BF681C27
:10597000C5B2BD429FDB06B0BDE8F08F2DE9F84708
:1059800004460D4690469946DDE9096704F0FF0A92
:1059900008EB04001FFA80F809EB05001FFA80F9F4
:1059A00016E0444502DB5446A81985B24D4500DB9C
:1059B00014E0002300933A78334629462046FFF747
:1059C0006BFE304606EBD67104EB61018CB27F1C96
:1059D00038787E2802DC38782028E2DA00BFBDE87B
:1059E000F88710B54FF4A060FBF79CFA10BD014694
:1059F00001EBC1024FF0E0235A6101221A6100223B
:105A00009A6100BF4FF0E022106910F0010F02D040
:105A100010F4803FF6D000224FF0E0231A619A6123
:105A20007047014642F228324A434FF0E0235A6160
:105A300001221A6100229A6100BF4FF0E022106932
:105A400010F0010F02D010F4803FF6D000224FF08A
:105A5000E0231A619A617047064C074D06E0E06842
:105A600040F0010394E8070098471034AC42F6D3A5
:105A7000FAF762FB006500082065000802E008C82C
:105A8000121F08C1002AFAD170477047002001E0B8
:105A900001C1121F002AFBD1704700000000000066
:105AA000000000000000000000003F400000000077
:105AB00000000000300040003000400000000900FD
:105AC0000BC03D000BC03D00090018C024407FE022
:105AD000224031800000180024C01B000D8032409D
