:020000040000FA
:06000000020A820201C7A2
:03002B000208BD0B
:030033000206D9E9
:030043000207723F
:030053000200F8B0
:03006B000206BFCB
:1000830002015C0101FF05030148104810481048B4
:1000930010040FFE0E4810F91D00000000BD1E00E5
:1000A3000000000C0000000C00010000161200000C
:1000B30000000000D012000000000000000000005B
:1000C300FFFF0101010020050000007105E8036442
:1000D300006400B801020200080000050207051EC3
:1000E30002051E0A03B80B020102F1FF0296511822
:1000F3000002020612C0E074F21203E0A2AFE4337E
:10010300FED2AFE5A7FFE5A1F5085F541060061224
:10011300191E75A1EFE5085F5408600812192475CC
:10012300A1F7802BEFA2E0C0D0E508A2E092F01285
:1001330009BF158182F05017906198E0F890084A42
:10014300E0C398A2D265D0335002E8F075A1FEEE69
:10015300A2E092AF7F0102043FC0E074F21203E019
:10016300A2AFE433FED2AF9061A4E0F8759B00E543
:100173009158540860087591F712196C802AE5911B
:1001830058541060087591EF121972801BE8A2E0B1
:10019300C0D0E591A2E092F01209BF158182F05020
:1001A30007E0C2E0F0121AB69061A3E0F8E5E9585F
:1001B3005404600E121A8C75E9FB906193E0A2E679
:1001C30040F2808BC0E074F21203E0A2AFE433FE8E
:1001D300D2AF9061A5E0F8E5BF585404600675BF3F
:1001E300FB121ACE020152C3E498F8E499F9120201
:1001F3002B8026C3E49AFAE49BFBE920E7E9120289
:100203002BE498F8E499F922C3E498F8E499F912F5
:10021300022BE498F8E499F9C3E49AFAE49BFB22ED
:10022300EB20E7CFE920E7E0B90010BB0008E88A3C
:10023300F084F8AAF022E4FBC8FA22EB70227B10C8
:10024300C833C8C933C9335007C39AC3DBF2800626
:100253009A50012ADBEAC833F4C8C933F4C9FA2235
:1002630075F008E4C833C8C933C933C99AC99B5068
:1002730004C92AC93BD5F0ECFBC833F4C8E4C9FA76
:1002830022080808EAC0E0EBC0E086F0E7A4FA1809
:100293000986F0E7A42AFA180986F0E7A42AFA18CF
:1002A3000986F0E7A42AFA1986F0E7A4FBE5F02A09
:1002B300FA190886F0E7A42BFBE5F03AFA19088649
:1002C300F0E7A42BFBE5F03AFA18180986F0E7A447
:1002D300C5F02BFBE43AFA1908E7C5F0C6A426F6E5
:1002E300E5F03BFBE43AFA1886F0E7A4F6E5F008FC
:1002F30026F6E43B08F6E43A08F6D0E0FBD0E0FA51
:1003030022E4CFC0E0E4CEC0E0E4CDC0E0E4CCC062
:10031300E075F020C3E633F608E633F608E633F675
:1003230008E633F6181818EC33FCED33FDEE33FE14
:10033300EF33FFC3EC9709ED9709EE9709EF971990
:100343001919400FFFEC97FC09ED97FD09EE97FE95
:10035300191906D5F0BEECF709EDF709EEF709EF29
:10036300F7191919D0E0FCD0E0FDD0E0FED0E0FF92
:10037300222518C582C0E0E51934FFC583C0E0E536
:1003830018C3958224F810AF0885831985821880D5
:1003930008858319858218D2AFCEF0A3E520F0A398
:1003A3007808E608F0A3DEFAEFF0A3E58124FAF873
:1003B300E608F0A3E608F0A3E608F0A30808E608B9
:1003C300F0A3E608F0A315811581D0E0FED0E0F894
:1003D300158115811581E8C0E0EEC0E022C0D0256B
:1003E30018C582C0E0E51934FFC583C0E0E518C332
:1003F300958224F310AF08858319858218800885B8
:100403008319858218D2AFC8F0A3E9F0A3EAF0A359
:10041300EBF0A37908E709F0A3D8FAECF0A3EDF029
:10042300A3EEF0A3EFF0A3D0E0F0A3D0E0F0A3D0CD
:10043300E0F0A3E520F0A3E5F0F0A322851983857E
:100443001882E0C0E0A3E0F9A3E0FAA3E0FBA378FD
:1004530008E0F608A3DFFAE0FCA3E0FDA3E0FEA3B7
:10046300E0FFA3E0C0E0A3E0C0E0A3E0F5D0A3E099
:10047300F520A3E0A3F5F010AF0885831985821852
:100483008008858319858218D2AFD082D083D0E0CB
:10049300F8D0E032120AE4B900030204D9E490036D
:1004A3000178A1790A8002F0A3D8FCD9FA900CA1B3
:1004B300AA82AB83900086787379018015E493A3B5
:1004C300AC82AD838A828B83F0A3AA82AB838C82B6
:1004D3008D83D8E9D9E77582E675838F7403120893
:1004E3003575826275831D74001208350875F01026
:1004F3008E1A8F1B85821F85831E8518828519831B
:10050300E0CEA3E0CF851F82851E83EBC9EAC8ED49
:10051300CBECCAC3E833C8E933C9EA33CAEB33CBFC
:10052300C3EA9EF51DEB9FF51CB35004AB1CAA1D3B
:10053300EC33CCED33CDD5F0DAAE1AAF1B22D0833A
:10054300D082ECC0E0EDC0E0E493A3FCE493A3FD10
:10055300ED4C600D120619EC24FFFCED34FFFD8019
:10056300EFE493A3FCE493A3FDED4C600D12071D90
:10057300EC24FFFCED34FFFD80EFD0E0FDD0E0FC88
:10058300E493A3C0E0E493C0E02285198385188235
:10059300E0A3FEE0A3F5207808E0A3F608DFFAE085
:1005A300A3FFE0A3C0E0E0A3C0E0E0A3C0E0E0A3BA
:1005B300C0E0E0A3C0E010AF0885821885831980EE
:1005C30008858218858319D2AFD083D08202083B75
:1005D300D083D082E9C0E0E493A3C386F0C5F0954D
:1005E300F0F908E493A386F0C5F095F0700BE4935B
:1005F300A3C3994005E9048002A3E475F002A4258E
:1006030082F582E5F03583F583D0E0F9E493A3C066
:10061300E0E493C0E022C0E0C3E49396087401933E
:100623009618400FE4936670080874019366187077
:10063300007019A3A3C3E49396087401939618A3B7
:10064300A3400DD0E0D0E0D0E002057DA3A3A3A397
:10065300A3A3D0E022D083D082C5F0E493A3C5F056
:10066300C395F0F5F0E493A3C395F04005E5F004DA
:100673008001E475F002A42582F582E5F03583F567
:1006830083E493A3C0E0E493C0E022740480047481
:10069300028000CCC0E0EDC0E0E518C39CCCAD19EE
:1006A30050011D10AF068C188D1980068C188D19FA
:1006B300D2AF1207B7D0E0FDD0E0FC22C0E074F265
:1006C3001203E0E589A2E150031217F8758900C20D
:1006D300C57F0102043FC0E074F21203E0E58BA280
:1006E300E050031217F8758B00C2E880E4740280AF
:1006F30000CCC0E0EDC0E0E518C39CCCAD195001BF
:100703001D10AF068C188D1980068C188D19D2AF69
:10071300120795D0E0FDD0E0FC22C0E0C0F088F0E5
:10072300E4936670080874019366187000A8F0A338
:10073300A3700BD0F0D0E0D0E0D0E002057DA3A3FE
:10074300D0F0D0E022D083D082CCC0E0E493A36089
:10075300061208161470FAE493A36006120907142C
:1007630070FAD0E0FCE493A3C0E0E493C0E022C0BD
:10077300E074F21203E0A2AFE433FED2AFC2C0E5ED
:10078300D1A2E45003121894EEA2E092AF7F0102CB
:10079300043FCAC0E0E493A3C582CCC582C583CD20
:1007A300C583F0A3C582CCC582C583CDC583DAE5F5
:1007B300D0E0CA22CAC0E0E0A3C582CCC582C5830B
:1007C300CDC583F0A3C582CCC582C583CDC583DAED
:1007D300E6D0E0CA22700908080822601618181823
:1007E300C6C333C608C633C608C633C608C633C62F
:1007F300D5E0EA22C008C3E096F50808A3E09642D4
:100803000808A3E096420808A3E09645087001D3C0
:10081300D00822C0E0E493A3D39C5010E493A3C375
:100823009C400AD0E0D0E0D0E0020765A3A3A3D0A8
:10083300E022C09FF59FE473D09F22D083D082C073
:100843009FE493C0E0740193C0E0740293F59F2288
:100853007404800A74038006740280027401C0E089
:10086300F40412086ED0E0120ABF222518F5821094
:10087300AF08F518400215198008F518400215193C
:10088300D2AF85198322BB0102E722C082C08389CC
:10089300828A83BB0003E08002E493D083D0822268
:1008A300C0D0251810AF08F518500205198008F5B7
:1008B3001850020519D2AFD0D022C0E0C0D0E8C092
:1008C300E0E5A8D2AFC2C7A2E792AFD0E0F8D0D09C
:1008D300D0E0326016080808C6C313C618C613C68C
:1008E30018C613C618C613C6D5E0EA22C3E0C696D7
:1008F300F608A3E0C696F608A3E0C696F608A3E0BA
:10090300C696F622C0E0E493A36C7009D0E0D0E071
:10091300D0E0020765A3A3D0E022251810AF08F5A5
:1009230018400215198008F51840021519D2AF2294
:10093300E76670100809E766700A0809E76670043D
:100943000809E76622E066701008A3E066700A08EB
:10095300A3E066700408A3E06622C3E09608A3E060
:100963009608A3E09608A3E096A2D265D03322C3EB
:10097300E096F008A3E096F008A3E096F008A3E061
:1009830096F022E026F008A3E036F008A3E036F064
:1009930008A3E036F022E627F60809E637F6080949
:1009A300E637F60809E637F622E026F608A3E0362E
:1009B300F608A3E036F608A3E036F622C0E0E8C066
:1009C300E0E58124FCF8E6A2E7D0E0F8D0E022E6F7
:1009D30047F60809E647F60809E647F60809E64731
:1009E300F622E657F60809E657F60809E657F60829
:1009F30009E657F622E056F608A3E056F608A3E008
:100A030056F608A3E056F622E056F008A3E056F0A7
:100A130008A3E056F008A3E056F022700422600D0C
:100A230018C6C333C608C633C6D5E0F41822E4C3D8
:100A330096F608E496F608E496F608E496F622603D
:100A43000D08C6A2E713C618C613C6D5E0F322C61F
:100A5300F4C608C6F4C608C6F4C608C6F4C622C35C
:100A6300E7960809E7960809E7960809E79622C377
:100A7300E09608A3E09608A3E09608A3E096227503
:100A8300D00075814075180175190300020497E0C1
:100A9300F608A3E0F608A3E0F608A3E0F622600C4C
:100AA30008C6C313C618C613C6D5E0F422E6F00879
:100AB300A3E6F008A3E6F008A3E6F022CAC0E0E646
:100AC300F0A308DAFAD0E0FA22E0FAA3E0FBA3E00D
:100AD300FCA3E0FD22EAF0A3EBF0A3ECF0A3EDF01E
:100AE30022E5C754F84401F5C77901222518F58298
:100AF300E43519F58322C2AF75D69F020000221296
:100B0300083EADB20112083EA4B30112083EF3B58C
:100B13000112083E46B70112083EE9B70112083E2A
:100B230034B90112083E52B90112083E935800121B
:100B3300083EA5580012083EF7580012083E5859BF
:100B43000012083EE2590012083E865A0012083E7F
:100B5300DA5A0012083EF35A0012083E195B0012DB
:100B6300083E545B0012083E985B0012083EBF5BD0
:100B73000012083E105C0012083EC05C0012083EE2
:100B8300785D0012083E405E0012083E1D5F0012B1
:100B9300083EA35F0012083EB25F0012083EBD5F2D
:100BA3000012083EC6600012083ED7600012083EDD
:100BB3004D610012083EDF610012083E37620012E9
:100BC300083EFD620012083E2E630012083E736366
:100BD3000012083E80630012083E14650012083EAE
:100BE30077660012083E93670012083EFD69001203
:100BF300083E086A0012083E126A0012083E1D6A87
:100C03000012083E276A0012083E316A0012083EAD
:100C13003C6A0012083E476A0012083E786A0012D6
:100C2300083E9C6A0012083EC06A0012083E256B0B
:100C33000012083E696B0012083E856B0012083EE5
:100C4300FC6B0012083E346C0012083E806C0012EC
:100C5300083EDD6C0012083EBF6E0012083E456F71
:100C63000012083E16700012083E26730012083E5A
:100C73007B730012083EA7730012083EF374001240
:100C8300083E43750012083E98750012083E997697
:100C93000012083E31770012083EB3770012083E77
:100CA30053780012083EDE200012083E172100127E
:100CB300083EF1220012083E30230012083E7A2338
:100CC3000012083E1F240012083E7E240012083E34
:100CD300B2240012083E1F250012083E3C260012D3
:100CE300083E44270012083EDA270012083E212B53
:100CF3000012083ECA2B0012083EA62C0012083E22
:100D0300072D0012083E242E0012083E4E3000121A
:100D1300083E05310012083E0F310012083E4231F1
:100D23000012083E09320012083EA4320012083EA7
:100D330009330012083E32330012083E54330012C6
:100D4300083E83350012083E5A360012083E9E368E
:100D53000012083E0B370012083EC6370012083E49
:100D6300F8370012083E3C380012083E6F38001274
:100D7300083EC4380012083E19390012083EAD3946
:100D83000012083E0F3A0012083E773A0012083E5E
:100D9300203C0012083E083D0012083E4A3E001265
:100DA300083E78400012083E38410012083E67436F
:100DB3000012083E0A440012083E48440012083E4E
:100DC300F4450012083E08460012083E124600127F
:100DD300083E3C460012083E48460012083E67465D
:100DE3000012083E1E470012083E5D470012083EEF
:100DF30067470012083E1B480012083E1A490012BA
:100E0300083E134A0012083EB04A0012083E524BF5
:100E13000012083E694B0012083EA04B0012083E28
:100E2300BE4B0012083E024C0012083E274C001233
:100E3300083E0D4D0012083E794D0012083EF34D59
:100E43000012083E024F0012083E41500012083EB5
:100E5300A3500012083E5D510012083E805100125B
:100E6300083E54520012083E9F520012083EE152BF
:100E73000012083E38530012083E6F530012083E1A
:100E83009D530012083ED6530012083EFB53001236
:100E9300083E83540012083EA6560012083E05572A
:100EA3000012083E99570012083E05580012083EEA
:100EB30059580012083E22B20312083E61B20312CF
:100EC300083E97BA0112083EF1BA0112083E4DBB23
:100ED3000112083E99BB0112083EB4BB0112083E41
:100EE300E5BB0112083E02BC0112083E0EBC011212
:100EF300083E82BD0112083E9BBD0112083E02BEA0
:100F03000112083E15BE0112083E23BE0112083E1F
:100F1300D7BE0112083EBBBF0112083EC1C0011279
:100F2300083E47C10112083E51C10112083EBEC12D
:100F33000112083ED5C10112083E07C20112083E44
:100F430040C20112083E6AC20112083ECBC201121E
:100F5300083EEBC20112083E09C30112083E4FC30B
:100F63000112083E75C40112083EC2C40112083EB4
:100F7300F1C40112083E67C50112083E8FC5011274
:100F8300083EC8C50112083ED6C50112083E2EC64A
:100F93000112083E7DC60112083EBCC60112083E7E
:100FA300ECC60112083E18C70112083E23C70112FE
:100FB300083E41C70112083E03C80112083E0DC88E
:100FC3000112083E48C80112083E5EC80112083EDD
:100FD30067C80112083EBCC80112083ED0C80112FE
:100FE300083EDEC90112083EF1C90112083E06CAD5
:100FF3000112083EA8CA0112083E2BCB0112083E7B
:10100300E9CB0112083EF4CB0112083E1ACD0112BE
:10101300083E36CD0112083E88CD0112083EC7CDE9
:101023000112083EDCCD0112083E1ECE0112083E1D
:101033006BD00112083EE9D00112083E5CD10112C7
:10104300083E7ED30112083E96D30112083E99D37F
:101053000112083EA5D30112083EB9D30112083E7E
:10106300C1D30112083EF4D30112083EA4D40112E5
:10107300083E1AD50112083E8DD50112083E41D60D
:101083000112083EF6D60112083E15D70112083E9A
:10109300B5D70112083EC1D70112083EECD70112A1
:1010A300083EEFD70112083E59D80112083E81D9F4
:1010B3000112083E59DA0112083EE4DA0112083E31
:1010C300FDDB0112083EBADC0112083EF3DC01121B
:1010D300083E24DD0112083EC4DD0112083EF4DDA2
:1010E3000112083ECFDE0112083E68DF0112083EFE
:1010F300F3DF0112083EA4E00112083E26E10112CB
:10110300083E58E10112083E99E10112083E71D2EE
:101113000212083ED6D20212083E13D30212083E30
:1011230062D30212083E78D50212083E5BD7021240
:10113300083EC5DA0212083E00DB0212083E22DB3B
:101143000212083E85DB0212083EB9DB0212083E9A
:10115300DCDB0212083E09DC0212083E65DC0212E7
:10116300083E5BBC0212083ED9BC0212083E0FBD0A
:101173000212083E7BBD0212083EEEBE0212083E7A
:101183000ABF0212083E4FBF0212083EDDBF021221
:10119300083E36C00212083E63C10212083E75C201
:1011A3000212083ED2C20212083E3EC30212083E99
:1011B3009FC30212083EE0C30212083E8DC402120E
:1011C300083E9FC50212083ECAC50212083E15C654
:1011D3000212083E5CC60212083EEEC60212083E28
:1011E300A9C70212083E2CA60312083E3DA603120D
:1011F300083E8EA60312083ED3A60312083E7DA71F
:101203000312083E92AE0312083EF8A20312083EF0
:1012130050A40312083E20C80212083EC5C8021299
:10122300083EE5C80212083E05C90212083E19C964
:101233000212083E71C90212083EA1C90212083EF9
:1012430022CB0212083EC8CB0212083EAACC0212DD
:10125300083EFBCC0212083E3ECD0212083E81CD71
:101263000212083EE7CD0212083E08CE0212083EE3
:1012730094CE0212083EC5CE0212083E39CF0212A6
:10128300083EE7D00212083EC1D10212083E03D243
:101293000212083E5DD20212083E27A10312083E45
:1012A30048A10312083E7EA20312083EA8A203121D
:1012B300083E248D0312083E9F8D0312083EAA8D1B
:1012C3000312083ECB8D0312083E1EB00212083EE5
:1012D30021B00212083EDBB00212083E06B1021230
:1012E300083E4DB10212083E72B10212083E93B19C
:1012F3000212083EC7B10212083E00B20212083EB3
:1013030029B30212083E60B30212083E80B30212F0
:10131300083E1BB40212083EE0B40212083E17B5A1
:101323000212083E8CB60212083E2FB70212083E84
:1013330028B80212083E51B80212083EA5B802129C
:10134300083E6BB90212083E99B90212083E2EBB41
:101353000212083EAFBB0212083EE2BB0212083E75
:101363001CF60112083E26F60112083E72F601121F
:10137300083EE0F60112083E01F70112083E68A993
:101383000112083EC8F70112083E5CFA0112083E3A
:1013930065FA0112083EB8FA0112083EE1FA011299
:1013A300083E48FB0112083ED9FB0112083E1BFC14
:1013B3000112083E65FC0112083EC4FC0112083EFE
:1013C30055FD0112083E94FD0112083ED3FD0112A2
:1013D300083E08FE0112083E91B20112083E2CFE9F
:1013E3000112083E4BFE0112083E54FE0112083E54
:1013F3000AFF0112083E4AFF0112083E12F40212CC
:10140300083EE5F40212083EFFF40212083E10F50E
:101413000212083E25F70212083E44F70212083E64
:10142300F59E0312083E2B9F0312083E749F03127E
:10143300083EC4A00312083ECEE10112083E0DE3AC
:101443000112083E49E30112083E08E50112083E75
:1014530031E50112083EC4E70112083E08E8011213
:10146300083E91E90112083E29EA0112083E91EA79
:101473000112083E32EB0112083E74EB0112083EE2
:10148300B4EB0112083E3FED0112083EAFEE01122C
:10149300083ED4F00112083E02F10112083E29F180
:1014A3000112083E32F10112083E8DF10112083E8D
:1014B30020F20112083E3EF50112083EBFF501126B
:1014C300083EB6B30312083ED7B10312083E808329
:1014D3000312083E93830312083E30840312083E2E
:1014E3006B840312083E86840312083EAB84031206
:1014F300083EF0840312083E21850312083E5285FC
:101503000312083ED8860312083EF5A80312083ECC
:101513002BA90312083E47A90312083E89A9031207
:10152300083E99A90312083E2EAA0312083EE58637
:101533000312083E9E870312083E4E880312083E9C
:101543008C880312083E2B890312083EA0890312DC
:10155300083E8FA00212083EE7A00212083E91A1A6
:101563000212083E39A20212083E96A20212083E57
:10157300EFA20212083E03A30212083ECDA40212F8
:10158300083E48A50212083E72A50212083E2FA784
:101593000212083E4AA70212083E99A70212083E09
:1015A300AFA70212083EBCA70212083EF0A7021220
:1015B300083E06A80212083E8CA80212083E9BA809
:1015C3000212083EF4A80212083E4EA90212083E77
:1015D3009CA90212083EA6AA0212083E28AD0212D6
:1015E300083EC2AD0212083E04AE0212083E99AE96
:1015F3000212083EB6AE0212083EB9AE0212083E0F
:10160300BCAE0212083E2FAF0212083E4AAF0212CE
:10161300083E76AF0212083EB1AF0212083EB4AFE5
:101623000212083EC7AF0212083EEEAF0212083E96
:1016330073FF0112083E7FFF0112083EB9FF01123A
:10164300083EBE900212083EE9900212083EB59190
:101653000212083E3A920212083EA3920212083E78
:10166300EF920212083E6E930212083E0094021299
:10167300083E8C940212083ECE940212083E3A9918
:101683000212083EBA9A0212083EF99A0212083E62
:10169300C29B0212083E769C0212083E269E02124C
:1016A300083EB29E0212083E00800212083EBA8033
:1016B3000212083E2C810212083E3B810212083EB0
:1016C300B5810212083E24820212083E2E830212C2
:1016D300083E57830212083EF7830212083E4584F0
:1016E3000212083EB5840212083EE9850212083E42
:1016F300C5860212083E36870212083EB3880212DC
:10170300083E75890212083E108A0212083E6B8A4F
:101713000212083ED68A0212083EDA8B0212083EF3
:101723009B8D0212083E3A8E0212083EAC8E0212C4
:10173300083E698F0212083EAB920312083EFF92E5
:101743000312083E57930312083EA2930312083E66
:1017530004940312083E9D940312083E0595031258
:10176300083E11950312083E9F9C0312083ED09C2D
:101773000312083E8A9D0312083EF09D0312083EA1
:10178300619E0312083E71900312083EFD910312FD
:10179300083E85AF0312083E96AF0312083E36B0EB
:1017A3000312083E3B7E0012083E497E0012083EAB
:1017B300CCB30312083EF0B00312083E00B103128B
:1017C300083E1BB10312083E7CB10312083E90ADE4
:1017D3000312083E15AE0312083E79AE0312083E0B
:1017E3007EAC0312083EA0AC0312083E0AAD0312FE
:1017F300083E15AD0312083E59AD0312083E9DF88D
:101803000212083EABF80212083EECF80212083E40
:1018130006F90212083E90F90212083EB5F90212C7
:10182300083ED2F90212083EEFF90212083E14FAFA
:101833000212083E3CFA0212083E84FA0212083EE3
:10184300FFFA0212083EAFFB0212083E6EFC0212C0
:10185300083E7CFC0212083EF6FC0212083EDAFD4A
:101863000212083E93FF0212083E76B30312083EAB
:1018730006790012083E73790012083E347A00128A
:10188300083EA47A0012083EAD7B0012083E257D77
:101893000012083E897D0012083EDE7D0012083EDC
:1018A300E77D0012083EF67D0012083E097E001215
:1018B300083E1F7E0012083E287E0012083EEDE51A
:1018C3000212083E42E60212083E3EE80212083EB9
:1018D30070E80212083E92E80212083EABE80212D8
:1018E300083EC4E80212083ECEE90212083E69EA45
:1018F3000212083E94A70312083EB8A70312083E3B
:10190300D1A70312083E04A80312083E35A8031208
:10191300083E63A80312083EC5A80312083ED4A8D4
:101923000312083EDEA80312083EEBA80312083E8A
:101933004C950312083E72950312083EAF950312AD
:10194300083EBE950312083EDD950312083E4596F8
:101953000312083E4E960312083EAD960312083E4C
:10196300D1960312083E90970312083E9D970312E7
:10197300083EAE970312083EAFB20312083ECCB244
:101983000312083EE0EA0212083E3EEC0212083E51
:101993004BEC0212083E5EEC0212083E7DEC021292
:1019A300083E93EC0212083EA7EC0212083E1CED1F
:1019B3000212083E81ED0212083E31EE0212083E89
:1019C30006EF0212083E16EF0212083E25EF02123E
:1019D300083E57B00312083E7BB00312083EA3B083
:1019E3000312083ECBB00312083EDC970312083EF5
:1019F30003980312083E24980312083E89980312A1
:101A0300083E429A0312083E5B9A0312083E679A05
:101A13000312083E7B9A0312083E999A0312083E6A
:101A2300A39A0312083EAD9A0312083EC09A03120A
:101A3300083E139B0312083E4C9B0312083E7B9BFC
:101A43000312083EC99B0312083E189C0312083E6A
:101A5300339C0312083E3D9C0312083E4E9C031226
:101A6300083E949C0312083E86B10312083EB1DC83
:101A73000212083EDBDC0212083EF7DC0212083ECB
:101A83000ADD0212083E20DD0212083E7DDD02124D
:101A9300083EB0DD0212083EECE10212083E12E3FA
:101AA3000212083E45E30212083E91E30212083E89
:101AB300BDE40212083EE5E40212083EFAE4021213
:101AC300083E0AE50212083E4EE50212083EAFE563
:101AD3000212083EBFE50212083E38AA0312083E6E
:101AE30053AA0312083E7CAA0312083E96AA0312C5
:101AF300083EBBAA0312083EDAAA0312083EF2AA62
:101B03000312083E20AB0312083E3AAB0312083E11
:101B13006BB20312083E00800312083E07800312D3
:101B2300083E13810312083E43810312083E698174
:101B33000312083E8C810312083EAE810312083E55
:101B4300E8810312083E4E820312083E8782031285
:101B5300083ED3820312083E00830312083E20830B
:101B63000312083E9FA40312083EB1A40312083EC9
:101B73009CA50312083E29A60312083E6BAB031271
:101B8300083EDDAB0312083E1BAC0312083E5CACFF
:101B93000312083E118A0312083E2D8A0312083EDF
:101BA3007C8A0312083E988A0312083EC98A0312EC
:101BB300083ED98A0312083EC58B0312083ECF8B19
:101BC3000312083EDC8B0312083EEC8C0312083E22
:101BD300008D0312083E098D0312083E5EEF0212C8
:101BE300083EA3F30212083EA8F30212083E21B3F3
:101BF3000312083EEBB20312083E4EB30312083E33
:101C030098B30312083EBCA80112083E0DA70112A7
:101C1300083EC8A40112083E4FA40112083EF6A3D1
:101C23000112083E8AA30112083E61A30112083E75
:101C330054A10112083E20A10112083EEDA0011299
:101C4300083ED1A00112083EF79F0112083EAF9F44
:101C53000112083EE49D0112083E649D0112083EF4
:101C6300619D0112083E689C0112083E369C0112D8
:101C7300083E739B0112083E9E990112083E2F995C
:101C83000112083E01990112083E21B20112083ED9
:101C9300D8B10112083E90B10112083ECEB0011234
:101CA300083E41B00112083EFE980112083EEB982F
:101CB3000112083E83980112083E72980112083EF1
:101CC30034B00112083E53970112083E1D970112CA
:101CD300083EE0960112083E81960112083E42AD8D
:101CE3000112083E1AFE0112083E50960112083EE8
:101CF3000B930112083EFC910112083E8B910112D5
:101D0300083E50910112083E1B910112083E0F91AB
:101D13000112083E6F900112083EB68F0112083E71
:101D2300898D0112083E158B0112083ED38A0112D8
:101D3300083E9E890112083E53890112083E858898
:101D43000112083EDC870112083E78870112083E23
:101D5300B2870112083E94AA0112083E18F7010047
:101D6300000080FBE473000136360101000102012B
:101D7300000103010001040106060502000007013A
:101D830000340801000F090401010D0100FF0E08D2
:101D9300000017020000190100FF1A0100011B01D6
:101DA30000FE1C0100081D0200001F0100012001AC
:101DB3000001210200002301000F2402000026017C
:101DC300000127010008280200FF2A0100072B0158
:101DD30002402C0100002D0100012E0100012F0102
:101DE30000FF30010B1C310800003A0100083B01E1
:101DF300000F2F010000030071003001600011008B
:101E030070003102200350048000100061000000C4
:101E130014006300730072006200430000001300AB
:101E23000600000000000400120000000000000093
:101E3300000004000400370037003C0244000000A7
:101E43000000000000006500000035008100000074
:101E530005000000830000000302710230016002EC
:101E630011027002010202020202800210026102E8
:101E73003A004100630273027202620243020002EB
:101E830013023800000200020402120200020002E0
:101E93000002000204020402370037003C0244023D
:101EA30000023900000200026502000235028102CD
:101EB300000205028202830200020103710301038F
:101EC30001030103010301032203020301031003BE
:101ED30000030003000300030003000300034203A5
:101EE3000003240306030003000304031203250372
:101EF3002303250323030403040300030003000354
:101F03004403000300032303000365032100350397
:101F130081030003050300030003000301017101B2
:101F230001010101110101013101010101018001DF
:101F3300100161013B00140063017301720162012E
:101F430043010001130106013D01350004011201A3
:101F53000001000100010001040104013301330108
:101F63003C0144013201360000010001650100011A
:101F73003500810100010501820183010001360062
:101F83000100060000000F00000000000000000038
:101F93000000000003FFFF00000403FFFF0000FF39
:101FA300FF0FF4010005C4040320000100030B002C
:101FB3000000000000000003010F0100E41602000E
:101FC3005A16030060160400661605006C16060018
:101FD3007816110090161400961615008A16FFFF46
:101FE300000003EAF5E5D5D5C5B5A59595858575B5
:101FF30075656555554545353525251515055E0F1B
:102003008E0F640F6A0F880F7C0F760F940F9A0F51
:10201300A00FAC0F700F580F520F0A2A0D02F40CC9
:1020230005060D07FA0C0CD60C0DE80CFF0000009A
:10203300160F00000B150B020002220F32000006E0
:1020430048105A106010280F6610220F2E0FA81088
:10205300C610CC10AE10BA10B4100C0E020B040B49
:102063000A0708000F303016181920231A1C1E30D7
:1020730000011916181616152303000003494842D8
:102083004D181725050200383C3E363B3B352B43A4
:102093002C303017181921301B1D1F309C106C1069
:1020A30072107E107810820FA60FC010B20FB80FF7
:1020B3000204020101010109020000000000000006
:1020C300BE040A0E00E803040015002800040C05F2
:1020D300030908FF1E1E0A040F100C74F712037481
:1020E300E99003B0F0900365E4F0121B649003B52C
:1020F300E4F0A3F09003B1F0A3F0120E62121B6A96
:10210300900334E4F0A3F09020DB93FA7902121BDE
:10211300CA024D7474F2120374EAFEEBFF5480603A
:10212300699003B0E0F91213A28A088B09EA450902
:10213300604F7C0080010CEC75F003A4F8A9F074E7
:102143001D28F582742039F583E493F4602CE4931D
:10215300F88508828B83E06870DCAA08EC75F003CD
:10216300A4F8741E28F582742039F583E493C0E043
:10217300740193F583D082121D67AA08AB09121369
:1021830096EEFAEF6480FB0222E4EF5420601D1206
:102193000D848A088B09EA4509600A120CE8AA082B
:1021A300AB09121396EEFAEF642080DAEEA2E05048
:1021B3001A90036AE0640F700B7900120CB2E960A5
:1021C300031222E7EE6401FAEF80BB54207003028E
:1021D30022B2750C001237B98B09EA450970107CDD
:1021E300027D007A207B009003B0E0F91214EC7CAE
:1021F3000079047A007B00120D608A088B0980182D
:10220300850882850983A3A3A3A3A3A3A3A3A3747C
:1022130001F0850A08850B09E5084509606D7C0016
:102223007904AA08AB09120D608A0A8B0B750C019D
:10223300E5082404F8E50912355D24FFF0A3E03432
:10224300FF12585070CC850882850983A3A3A3A3EA
:10225300A3A3A3A3A3A3E0640170A58508828509B2
:1022630083A3A3A3A3A3A3E0540470948508828546
:102273000983A3A3A3A3A3A3A3A3A37406F07AB779
:102283008508828509831224138087120D307C0010
:1022930079017A007B00120D608B09EA4509700908
:1022A300E50C70057A20124713EE64200221CAEF71
:1022B3005402600B120E5CEEFAEF6402022189EF06
:1022C300540460191248AA1247CA79019003631291
:1022D3004B2E120BF8EEFAEF64040221897A007B8D
:1022E3000002251A900CEB122BB1120CCA22C082E9
:1022F300C08374EA12091D851882851983AA82ABEB
:1023030083794B121BA07408120AEF7402F074094C
:10231300120AEFAA82AB837950121BA07413120A1C
:10232300EFE4124CFD121BBE7416023CD774F71275
:10233300037474E112091DEAFEEBFFEE4F6033856F
:102343001882851983AC82AD83120DA87406120A14
:10235300EFE0601E7417120AEFE0FD7401120AEF3A
:10236300E0FCEEFAEFFB7900120B20E9600479A49C
:1023730080027900024D6F74F6120374EAFEEBFFDC
:102383008E828F83A3A3A3A3A3A3E05440601B1255
:1023930051EC1224E160067AFF7BFF801A8E828F54
:1023A30083123963FAA3E0FB8003120DCC74FE6A37
:1023B300700374FF6B60411251EC124757120E20E9
:1023C300E98E828F83600612240CE4800512240CAC
:1023D3007401F07CB87D0C8E828F83124B2E121BFE
:1023E300C4E9F5087015EE4F60097901EEFAEFFBC9
:1023F300120D3CA9080247887508CDAA088E828F62
:1024030083122413E960DF80EAE0240D123E3222B6
:10241300E0240C123E32E0F9120CC42274F61203CB
:1024230074E9FEEAFF7A0F7B00121390EA4B6019FE
:102433008A828B83740CF0EEA3A3F0EF8A828B83E2
:10244300A3F01247B37900802FEEF9120D668A08C4
:102453008B09A808A909E849601C88828983A3A37A
:10246300A3A3A3A3A3A3A37406125477E0F9120CA6
:102473007CEEF9120D427910024788C082C0839026
:10248300036AE0640F7014EA4B6010900365E06424
:10249300086005E0640470031224A1023D01EAFC14
:1024A300EBFD7A017B009003B0E0F91214E622C041
:1024B30082C0837900EA241DF582EB12396024FD82
:1024C300600B14600824FD600424FD700109023DC3
:1024D300018E828F83A3A3A3A3A3A3A3A3A31224E5
:1024E300E5221239A8FB120E20E9228E828F83A3E4
:1024F300A3A3A3A3A3A3A3A31224E56402228E820E
:102503008F83A3A3A3A3A3A3A3A3A3123CF8900322
:1025130056E068221208A37F0602058D74F41203A5
:102523007474FD12091D8A088B098A828B83A3A305
:10253300E0F9120D668A0A8B0BAE0AAF0BEE4F70F1
:1025430003022626850882850983A3E064F16030AF
:10255300850882850983A3E064CD6024850882858C
:102563000983A3E0641A6018850882850983A3E0C0
:1025730064E9600C850882850983A3E064E170083F
:102583007900120D3CE9706C850882850983A3E00C
:10259300C0E07402120AEFD0E0123CDCEEF0A3EFCD
:1025A300123007851882851983AA82AB83700512BE
:1025B3000BE08003120E087402120AEFE064E97064
:1025C300338E828F83122632750A01780A12085FCE
:1025D300750AE9780A12085FE508240CF582E50913
:1025E300122AF9122FE4FCA3E0FD8A828B83122FB7
:1025F300FE1208A38E828F83A3A3A3A3A3A3A3A3E3
:10260300A3E0640270108E828F83A3A3A3A3A3A36A
:10261300A3A3A37406F0850882850983A3A3E0F925
:10262300120D42120D30900CEF1222EA022BB6E08B
:10263300F8A3E0F9E8FAE9FB2274F4120374EAFE62
:10264300EBFF7508008E828F83A3A3A3A3A3E0608F
:10265300427508088E828F83A3A3A3A3A3A3A3A376
:10266300123C0B8B0BEA450B601075082C8E828F86
:1026730083A3A3A3A3A3E0D2E0F08E828F83A3A3BB
:10268300A3A3A3E0540364016003022725430811B5
:10269300022725EE2418122BC36033EE241A122BC3
:1026A300C3700F1225017003A3E0697075750822CA
:1026B3008070EE241BF582EF12272A241AF582EF8D
:1026C30012300FEE2419125220120C6A8054122475
:1026D300EE70037508011225017003A3E06970060B
:1026E300E508D2E1F508E50860158E828F83A3A380
:1026F300E07006E508D2E58004E508D2E6F50812A5
:1027030024D464017006E508D2E0F5088E828F8335
:10271300A3A3E0600D12273864016006E508C2E058
:10272300F508A908022BBB12394E12273122E0FC0F
:10273300A3E0FDEE22123948123980F9120E0EE998
:1027430022C082C08379018A828B83A3A3E0C394CE
:10275300024001198A828B83A3A3A3A3E0C394023B
:10276300400279008A828B83A3A3A3A3A3A3A3A379
:10277300A3E064F87003A3E0F460458A828B83A32B
:10278300A3A3A3A3A3A3A3A3E064F97003A3E0F407
:10279300602E8A828B83A3A3A3A3A3A3A3A3A3E0F3
:1027A30064FA7003A3E0F460178A828B83A3A3A364
:1027B300A3A3A3A3A3A3E064FB7003A3E0F47002A9
:1027C30079008A828B83A3A3A3E0F8900353E06884
:1027D30060027900023D0174F012037474DE120981
:1027E3001DEAFEEBFF8E828F83A3A3A3A3E0600EFB
:1027F300900CED12477F6006900CED1222EA7403F1
:10280300120AEFAC82AD838E828F83A3A3A31248F7
:102813000112503AE9600F7403120AEFAA82AB83E4
:10282300120CE2E970087901121B76022AEEEE24FB
:102833001B1239537410120AEF1247CA7409120A91
:10284300EFE06021741A120AEFE0FD7404120AEF3C
:10285300E0FC8E828F83124B2C7901120B20E960EE
:1028630004790280C37403120AEFAA82AB83120CA9
:10287300DCE9F50A7409120AEFE0702A90034DE0CF
:1028830060247422550A6422601C7442550A64420F
:1028930070CF7420120AEF122B0C600A7420120AF4
:1028A300EF122B0570BBE9A2E650417403120AEF45
:1028B300AA82AB83120CD0E9700302282974201278
:1028C3000AEF1239636403700F7420120AEFA31224
:1028D3004771A3E0640D60147403120AEFAA82AB7C
:1028E30083120E32E964017003022AEEEE242C12E5
:1028F3002AF6122E1A7003A3E069701C750800787B
:102903000812085F780812085FEE242E1252201274
:102913002B12122FFE1208A37409120AEFE07003A0
:102923000229CB122B12124B2E120E868A088B0908
:10293300EA45097003022A687404120AEFE0F88E6C
:10294300828F83A3A3E028F8A3E03400F9E8240DE1
:10295300122AFD8A828B83A3A3A3E068601CE88A02
:10296300828B83A3A3A3F0908767120ACC85088286
:10297300850983A3A3A3A3120AD87904E9120AEF52
:102983001250172AF8A3E034008882F583A3AA82A1
:10299300AB83121D5C8A0C8B0D8C0E8D0F85088208
:1029A300850983A3A3A3A3780C1207F74003022A84
:1029B300EE90875F780C1209AC850882850983A3A2
:1029C300A3A3A3780C120AB0900365E06404600823
:1029D300E064096003022AEEE50AA2E54003022A45
:1029E300A6EE242E122BC3851882851983F0EE24BC
:1029F3002F122BC3C0E07401120AEFD0E0F0EE24D3
:102A030030122BC3C0E07402120AEFD0E0F074144A
:102A1300120AEFE064017027740E120AEF1239599B
:102A2300EE2412122BC3687003A3E0697011740CB7
:102A3300120AEF1224FB70077414120AEFE4F0EE8B
:102A43002424122AF612068E7404120AEFAC82AD05
:102A5300837407120AEFAA82AB83120BE674041283
:102A630008A3022AEE9003AAE0640160030229CBC3
:102A73007420120AEF122B0C7009E50AA2E6500328
:102A83000229CB7410120AEFE0F47003A3E0F460A0
:102A93005AEEFCEFFD7403120AEFAA82AB83120C09
:102AA300EE8048A2E650447420120AEF124B3D70A8
:102AB3001A741A120AEFE0640270307403120AEFF8
:102AC300AA82AB837900120DFC80207420120AEFD6
:102AD300122B057016741A120AEFE06404700C745A
:102AE30003120AEFAA82AB83120DF67422024EE997
:102AF300EE240BF582EF12394E22F582E91247E3F9
:102B0300F8221251FEE0640722123980640622EE95
:102B1300242A12394B122731241212394B2274F40E
:102B2300120374EAFEEBFF8C088D099005CEE0607A
:102B33000F1225017003A3E0697005120C58804F32
:102B43007900124B21120C888A828B83E58245839C
:102B53006035A3A3A3A3A3A3E05418602AE5082424
:102B63001BF582E509122AF91206921231F7122A8D
:102B7300F9120692EE2418125220122B94120C9A78
:102B830074041208A380087900122B94120C5E803F
:102B9300278E828F83A3A3A3A3A3A3A3A3A31227F5
:102BA30031240BF582EF122BAD223400F583123959
:102BB300A8FB2274031208A37F0402058DEE2417D9
:102BC300F582EF1247E32274F712037474F71209C4
:102BD3001DEAFEEBFF900365E06403600DE0640112
:102BE3006008E064096003022C948E828F83A3E063
:102BF300707E7C007D007A027B00121B70EE240243
:102C0300FAEF1235641239599003561247CA7953B1
:102C1300121BA67900122C99E06409600312302C70
:102C230085188285198374011247A0900365740483
:102C3300F07401120AEFAA82AB83794A121BA074C3
:102C430001120AEFAC82AD837A5B7B03121B8E9079
:102C530003561250307A03123036900350E0A2E349
:102C63005004D2F08002C2F012478D1222E7801E78
:102C73008E828F83A3AE82AF83FC7D007A037B10A9
:102C8300121B708E828F83E0F9122C99E4F0120DDF
:102C9300187409024D71900363122BB1120BF89053
:102CA300036522C082C08390033412477F701F9054
:102CB3000365E014600924FC600A14600C800F9023
:102CC300033C8032900338802D90033A8028E849F2
:102CD3006008900335122FDE700C8A828B83A3E089
:102CE300F9120BEC801B9003351232937005120E10
:102CF30050800E9003D212477F6006124771121D57
:102D030067023D0174F412037474FB12091D8A08EF
:102D13008B097A0F7B001213908A0A8B0BAE0AAFD2
:102D23000BEE4F7003022E0E8E828F83124CFB79B3
:102D330050121BA0850882850983A3E06003022D3E
:102D4300F6900363E0F47003A3E0F460349003634C
:102D5300E064FE7003A3E0F460278518828519837D
:102D6300122E1A7003A3E069601785088285098310
:102D7300A374EA1230147A637B037950121BA68082
:102D8300728518828519831251DF1247CA7A567BDE
:102D9300037953121BA09003561247FB1247CA7ABA
:102DA300597B03794B121BA07A587B0379E1121BE1
:102DB300A090036AE0C3940F5021900358E0C0E051
:102DC3007402120AEFD0E0F07404120AEF7401F0F7
:102DD30004120AEFAA82AB83121BB8750A00780AA1
:102DE30012085F780A12085F900D11E0F9122FF5AF
:102DF3001208A3850882850983122E13A3F090037A
:102E0300657403F0EEFAEFFB1247B37405022BB8B7
:102E1300A3E08E828F83221251E3E06822123E39AF
:102E23002274F512037474D812091D8A088B098A57
:102E3300828B83A3A3A31239857415120AEFAC8284
:102E4300AD838A828B83A3A3A3A3A3A3A3A3122FDC
:102E5300E4FAA3E0FB120D1E7415120AEFE0706B87
:102E6300850882850983A3A3A3A3A3A3A3A3E0C384
:102E7300940B40578E828F83A3A3A3A3A3A3A3A3DF
:102E8300E064027046EE240B122BC3F4703D9003F2
:102E930065E06402603AE0640660359003341247EB
:102EA3007F6005122FDE604F900365E064086005C4
:102EB300E0640470167417120AEFE0F9741C120A26
:102EC300EFAC82AD83124B21120D2474280256FD00
:102ED30090033412477F701F750800780812085F4B
:102EE300780812085FEE2410122AF61252381236AE
:102EF3004C122FFE1208A38E828F83124A9D123525
:102F0300761239597402120AEF1247CAEE240D12CF
:102F13002BC3C0E07404120AEFD0E0123007F508A7
:102F2300A3E0F509740F7808120AA17405120AEFD9
:102F3300E508F07419120AEFE0C0E07406120AEF14
:102F4300D0E0F0741B120AEFE0C0E07407120AEF3E
:102F5300D0E0F07416120AEFE0C0E07409120AEF31
:102F6300D0E0F07417120AEFE0C0E07408120AEF21
:102F7300D0E0F0EE2410122BC3C0E0740A120AEF63
:102F8300D0E0F0741A120AEFE0C0E0740B120AEFFB
:102F9300D0E0F07427120AEFE0C0E0740C120AEFDD
:102FA300D0E0F0741C120AEFA982AA8389088A0967
:102FB300750A0078081208577C087D007410120AFD
:102FC300EFAA82AB8312432E1208A38518828519B8
:102FD30083AA82AB83120BF2022ECE1232996401C2
:102FE30022E0F98A828B83A3A3A3A3A3A3A3A3A30E
:102FF300E022900363125034900359122BB1120D47
:10300300DE740222F0EE240B1247E0221247E3FAA9
:1030130022F07A567B03795312301F22121BA67AB1
:10302300597B03794B121BA622900363122BB11217
:103033000E80227B00121B709003591250347A04C5
:103043007B00121B7022F01252432274F21203749B
:1030530074F812091DEAFEEBFF8C0A8D0B890C85AF
:103063001882851983AC82AD837583867582DE747D
:10307300081207B7F50DEEFCEFFD8518828519835D
:10308300AA82AB831249FE7003750D019003B180D0
:103093003BEEFCEFFDE508240BFAE5093400124989
:1030A300FD601E850882850983A3A3E0650C70116A
:1030B300850882850983E0650A7004A3E0650B60D7
:1030C30038E5082414F582E509122AF912356EE56C
:1030D3000845096024E50DA2E040B685088285090C
:1030E30083E0650A7004A3E0650B70D585088285CB
:1030F3000983A3A3E0650C70C8AA08AB097408028E
:103103002517C082C0839003B1023CFE74F71203FB
:10311300749003B11239A88012EA2414F582EB12D9
:103123002AF9123985121432EEFAEFFBEA4B70E9F1
:103133009003B1E4F0A3F0024D747F0702058D7490
:10314300F1120374EAFEEBFF890A8C088D098E8263
:103153008F83E08C828D83123C15AE82AF83E012A5
:1031630043EE12435FC41243EE123200E054038C69
:10317300828D8312435DA2E2E4338C828D831243FA
:103183005C131313541F1243EE12435BA2E7E433A1
:103193008C828D83A3A3A3A31232008E0C8F0D7593
:1031A3000E00780C1208577C087D00E508240712EE
:1031B3004FA31208A312500E8E0C8F0D780C120819
:1031C300577C037D00E508240F124FA31208A3E5E3
:1031D3000AC3940F40148E828F83A3A3A3E0C0E09D
:1031E3001231F7122AF9D0E080061231F712546B2C
:1031F300F002313DE5082412F582E50922A3A3126A
:103203003C190EAF832274F412037474F912091D6E
:10321300EAFEEBFF890890033412477F600E1232F7
:10322300937009EEFAEFFB120E4A805F900363E09E
:103233006E7003A3E06F70537401650860097A77B9
:103243007B031249FE70447A007B021237BD8B0B5D
:10325300EA450B7036900366120ACC8518828519ED
:1032630083120AD890036CE0C0E07404120AEFD012
:10327300E0F07405120AEF7401F07406120AEF12FB
:103283004CFB120BBCE9609B120BC27407022BB8F8
:103293001232996402221251FFA3A3A3A3A3A3E0B2
:1032A3002274F51203748A088B098A828B83A3AE76
:1032B30082AF83E0F9120C108E828F83E064EB609F
:1032C3000C850882850983A3E064E170098508827F
:1032D300850983A3E4F01222E7750A01780A12082C
:1032E3005F850882850983A3E0F508780812085FE3
:1032F3007900122FF51208A3120D30025700EAF0DD
:10330300A3EBF0023D0174F61203749003B4E07072
:103313001B7C0079017A007B00120D60EA4B600C84
:103323008A828B8312477F6003120CBE024788C0D8
:1033330082C0831237A5401079FF120D5AE9F89025
:1033430020DDE493C3985004790180027900023DA3
:103353000174F01203748A088B09890B750C008AB7
:10336300828B83A3A3A3A3A3A3A3A3E0F9120D6654
:103373008A0E8B0FAE0EAF0F750A01EE4F6003027C
:103383003432850882850983A3A3A3A3A3A3125080
:1033930030850882850983A3A3A3A3A3A3A3124112
:1033A3002E124B2E120D4E8A0C8B0DAE0CAF0DEE62
:1033B3004F70030235558E828F83A3A3A3A3E4F03A
:1033C300A3F0E508240B123561E0C0E0122AF3D024
:1033D300E0F0120E26EE240CF582EF124753E508B7
:1033E300240EF582E509123956EE240EF582EF120A
:1033F30047C7750C01EE2406F8EF12355D547FF0D4
:10340300A3E054FC125295E0540460030234B890D4
:103413000CF312411F74077808120A1E8E828F83E1
:10342300A3A3A3A3A3A3E04508F0A3E04509F08E5B
:10343300828F83A3A3A3A312356C74077808120A9F
:10344300A1E5085407F508E50B607A8E828F83A304
:10345300A3A3A3A3A3A3A3A37402124360240D12E3
:103463003E2EE0A2E2500B9003511247FBA3A3129E
:1034730047CAE508700302352AEE2406F8EF340044
:10348300F9E8FAE9FB8A828B83E0547FFCA3E054DA
:10349300FCFDE50824FFF508E434FFF5097407781B
:1034A30008120A1EEC4508F8ED4509F98A828B8358
:1034B3001247CA80728E828F83A3A3A3A3A3A3E020
:1034C3004480023431E5087005750A0080598E8204
:1034D3008F83A3A3A3A3A3A3E05420601212138A90
:1034E300EA547F245F8E828F83A3A3A3A380238EBA
:1034F300828F83A3A3A3A3A3A3E05410600A121390
:103503008AEA540F240A80DD8E828F83A3A3A3A3A8
:103513007401F0A3E412357674041237B48B09EA0C
:1035230045097003124746E50CA2E050288E828FAE
:1035330083A3A3A3A3124D61F9EEFAEFFB120D547B
:10354300E96012124775600312393EEEFAEFFB127F
:103553001432750A00A90A024EEC1248BE22FAE59B
:10356300093400FB8A828B8322A3A3E0F508A3E03E
:10357300F5092212357A22124FBFA3A3A3A3A322D4
:1035830074F412037474F712091D7E00120D66EAB7
:103593004B70030236458A828B83A3A3A3A3A3A301
:1035A300A3A3A3E0640660030236458A828B83A348
:1035B300A3A3A3A3A3A3E0FF8A828B83123E41E0CC
:1035C300C0E07408120AEFD0E0123979124A0412EB
:1035D30047CA120D78EF54086066851882851983EF
:1035E3001250307A007B00120D488B0BEA450B70AA
:1035F3004F900363123A69121BD07C007D007A005E
:103603007B0080288E828F83123963F47003A3E0DA
:10361300F4602D90036312364C124B2E1218C4E93A
:10362300641A601C7C007D00EEFAEFFB120D488AE1
:103633000A8B0BAE0AAF0BEE4F70C97900121BD683
:103643007E01EEF97409022BB812365022E0FCA376
:10365300E0FD8E828F8322C082C083EA4B70059087
:1036630003B580068A828B83A3A312386960258AF7
:10367300828B83A3A3A3A3A3A3A3E0540860E5ECD5
:103683004D60158A828B831239636C7003A3E06DDE
:1036930070D280047A007B00023D0174F21203743D
:1036A300EAFEEBFF890A8C088D097A107B0012145D
:1036B3002CEA4B603F8A828B83A3A3A3A3A3A3A378
:1036C300A3A3E4123967A3E50A125205A312370133
:1036D3008A828B83A3A3A3A3E4F0A3123973A3F079
:1036E300125099EA240CF582EB123C051236FAA328
:1036F300A3F0A3F002251AA3F08A828B8322A3A34B
:10370300E508F0A3E509F02274F4120374EAFEEB72
:10371300FF89088C0A8D0BEE4F60557401650870A4
:10372300147901120D5AE9F89020D5E493C3985007
:103733000F7911806A74046508702F1237A540F160
:103743008E828F83A3A3A3A3A3A3A3A3A3E508129A
:103753003C15A312578A8E828F83A3A3E4F0A3F0B0
:103763009003B512477F6021800D7402650860D015
:1037730079C1802BE0F8A31247F4A3A31238698818
:10378300828983A3A370ED80039003B5EEF0A3EFCA
:103793001237B48B0BEA450B7003124746790002CC
:1037A3002BBB7904120D5AE9F89020D2E493C39805
:1037B30022F01237B9227A207B009003B0E0F9128D
:1037C30014F822C082C083E9F879009003B5801D04
:1037D3008A828B83A3A3A3A3A3A3A3A3A3E0686069
:1037E3000574FF687001098A828B83A3A312386969
:1037F30070DE023D0174F7120374EA4B7005900307
:10380300B580068A828B83A3A312386960248A82D7
:103813008B83A3A3A3A3A3A3A3A3A3E06970E4EC53
:1038230060148A828B83E0240D125021A2E240D3DC
:1038330080047A007B00024D74C082C0839003B57C
:1038430080068A828B83A3A312386960128A828BD3
:1038530083A3A3A3A3A3A3A3A3E06970E580047A2E
:10386300007B00023D01122BB1EA4B2274F21203DA
:10387300748A0A8B0B8C0C8D0D750800750900EA90
:10388300450B602E9003B580068E828F83A3A3120F
:1038930038BC601EAC0CAD0DEEFAEFFB850A8285D9
:1038A3000B83121D67E9640170DFEEF8EFF98808F6
:1038B3008909AA08AB0902251AE0FEA3E0FFEE4F2F
:1038C3002274F71203749003B51239597C007D00FA
:1038D300800DE8FCE9FD88828983A3A3123959E8A6
:1038E300496030EA687002EB6970E79003B5124BE8
:1038F3002EE86A7002E96B88828983A3A370081299
:1039030039599003B580091239598C828D83A3A349
:103913001247CA024D7474F7120374EAFEEBFFEE0A
:103923004F6015120D7212398B12477560031239ED
:103933003EEEFAEFFB121432024D74EE240C1239F0
:103943004B1239A022EE241DF582EF3400F58322B9
:10395300F582EF12394E123CF822F582EF12394EFE
:103963001239802212396B2212520DA3A3A3A32270
:1039730012396BA3A3221236FB123980221251F89B
:10398300E022E0FEA3E0FF228E828F83E0241C125C
:103993003E321239A08E828F831239A0221239A8A7
:1039A300FB12143222E0FAA3E022C082C083EAFCB5
:1039B300EBFDEC4D700479058044EC24FBF582EDBE
:1039C30034FF12477D7007123A04E0F460051213C6
:1039D3009680E39003B0E0C0E0123A04D0E0F090A8
:1039E30020D9E493F97AB77B031213C0E964017019
:1039F3000B7A007B2012474A790080027904023D4A
:103A030001EC24FFF582ED34FFF5832274F41203F5
:103A130074A2AFE433F508C2AF9003B71238BC60A9
:103A230038EE24FBF582EF34FF12477D7A007B20CA
:103A33009003B0600512474D8005E0F91213CCE402
:103A4300F50AF50B780A12085BEEFCEFFD7AB77BFB
:103A5300031213BA74021208A3E508A2E092AFEEB0
:103A6300FAEFFB022BBB125034851882851983AA07
:103A730082AB832274F212037474FC12091DEAFEF2
:103A8300EBFF750AFE750BFF120D36E96005791120
:103A9300023BFAEE2415122BC36037900D07E0C4E6
:103AA3003354E0F8E0333354FC48C0E0EE241512FD
:103AB3002AF6D0E0123C15123C0B8B09EA4509604B
:103AC30011750AFFEE240F122BC344041247D8D2F8
:103AD300E0F08E828F831224DF6006EE2412123C04
:103AE30002EE2413122BC370109020D8E493C0E08D
:103AF300EE2413122AF6D0E0F08E828F83E0A2E741
:103B030050045403801CEE2414122BC3701590032D
:103B130042E0C0E0EE2414122AF6D0E0F090034213
:103B2300E004F0EE2411122BC3640170169005C556
:103B3300E0600D90034DE0700A8E828F83E0700386
:103B4300123BFF8E828F83E064017013EE240B120D
:103B5300395D64027009EE240F122BC34440F085D3
:103B63001882851983AC82AD83EEFAEFFB120D9CAC
:103B73008A088B0974FE650A700374FFF470098E5A
:103B8300828F83A3A3124FAFEA450960668E828FAB
:103B930083E0C0E07401120AEFD0E0F07402120A6D
:103BA300EF12509D7401120AEF85820C85830D7804
:103BB3000C12085BEE240F122AF6120692EE240E64
:103BC300122BC3F50C780C12085F90035612069261
:103BD3007407120AEFE0F9AC0AAD0B120D967407E5
:103BE3001208A3E9FE74106E700BAA08AB09121435
:103BF3003280027E10EEF97404022517EE2411F5CB
:103C030082EF12394EE4F022A3122BB179FF121C7A
:103C13009622123C1922F08E828F83A322C082C087
:103C23008374DE12091D8A828B83A3A3A3A3123993
:103C330059740E120AEFE8F0A3E9123CEF740C1268
:103C43000AEF123CE8240DF582EB122BC6C0E07498
:103C53001A120AEFD0E0F0124EFCEB123956742020
:103C6300120AEF123CE82415F582EB122BC6C0E0D2
:103C73007408120AEFD0E0F0EA241CF582EB123943
:103C8300567412120AEF123CE82411F582EB122B40
:103C9300C6C0E07409120AEFD0E0123CDC74FFF0F6
:103CA3007401120AEF74FFF07402120AEF74FFF04A
:103CB30090876712068E7404120AEFAC82AD837488
:103CC30007120AEFAA82AB83120BE674041208A34D
:103CD300790074221208A38025123CE022F0851893
:103CE3008285198322E8F0A3E9F0EA221236FBA3C6
:103CF300123CF722A3E0F8A3E0F922124B2ED08363
:103D0300D08202083B74EC12037474EE12091D8A0C
:103D1300128B13ECFEEDFF89097426120AEF124F82
:103D2300AF7428120AEFE0F5107429120AEF123E5D
:103D330023742B120AEFE0F50EA3E0F50F750810BC
:103D43007A1E7B0012142C7402120AEF1247577466
:103D530002120AEF12477F7003023E1C8518828508
:103D63001983AA82AB837950124632124B2E740206
:103D7300120AEF123E41A31247577410120AEF12B0
:103D8300578C7402120AEFE0240B123E2E7402F0D9
:103D9300120AEF123E417402F0120AEF1251F012AE
:103DA300509D7402120AEF124B43E509F07402129C
:103DB3000AEFE0240C123E2EE510F07402120AEF13
:103DC300123E2BE512F0A3E513F07408120AEFE597
:103DD3000CF0A3E50DF0740A120AEFE510F0850E5E
:103DE30082850F83C082C083740D120AEFAC82AD4B
:103DF30083D083D08274031207B7F97402120AEFD7
:103E0300AA82AB83120D3CE964017005750800803A
:103E1300087402120AEF123944A9087412024FC639
:103E2300E0F50CA3E0F50D22E0241C123E3222F84B
:103E3300A3E0123E39223400F98882898322124B8F
:103E430036A3A3A3A3A32274EE120374EAFEEBFF2B
:103E53008C088D098E828F83A37408124813E06047
:103E6300088E828F83A37410F0122BC060098E8298
:103E73008F83A3E02408F0EE2415122BC360088E71
:103E8300828F83A3E004F08E828F83A3A3A3A3A3D3
:103E9300A3E060198E828F83A3A3A3A3A3A3A3E0AC
:103EA300C3332402F88E828F83A3E028F0EE24111B
:103EB300122BC36005750B0E8003750B008E828F6A
:103EC30083A3C082C083EE240D122BC3D083D08280
:103ED300F8E028250B8C828D83F0EE2411122BC37E
:103EE300600512433E28F0850882850983E0C39468
:103EF30075400975080075090002402CE0FA7B0043
:103F030012514B700302402CEEFAEFFB120DA2EAA2
:103F1300850882850983124758EE2402F8EF122E92
:103F230020124126124068F0EE24040808EF122EF6
:103F330020124568A3124068A3A3F0EE2413124095
:103F43004EF0EE241412404EA3F0750A08EE241628
:103F5300122BC36010EE241812502DE5082408120A
:103F6300522E750A10122BC06016EE241A12502D11
:103F7300850A0CE508250C12522E7408250AF50A49
:103F83008E828F83A3A3A3A3A3A3E06059EE240788
:103F9300F510EF3400F511851082F583E0C0E012CF
:103FA3004035122AF9D0E0124058E0C0E012403503
:103FB300122AF9D0E0124058A31240411208578543
:103FC3001082851183E0C333FCE433FD850A0CE5DD
:103FD30008250C124FA31208A3851082851183E0D4
:103FE300C333250AF50AEE2415122BC3600BC0E078
:103FF300124035122AF9D0E0F0122AF3124041128E
:104003000857EE240D122BC3FC7D00850B0A8E820C
:104013008F83A3E0F8E50828F8E5093400F9E825DB
:104023000AFAE9124FA61208A3AA08AB097F0A02EB
:10403300058D850A0CE508250CF582E50922E0F5D6
:104043000CA3E0F50D750E00780C2212394B1240CB
:1040530072A3A3A322F0050A8E828F83A3A3A3A333
:10406300A3A3A3A322A3A3125299A31240722212C1
:10407300456CA3A32274F61203748A828B83E0FC3B
:1040830090035312411F74027808120A1EEC45086C
:10409300FCAD09EA241212411974067808120A1EAB
:1040A300EC4508FCED4509FDEA2415F582EB122BDE
:1040B300C66004780180027800E4C8F9ED49FDEA9E
:1040C3002411F582EB122BC6F508880974097808C8
:1040D300120A1EED4509FDEA2416124119740B78E4
:1040E30008120A1EED4509FDEA2417124119740C42
:1040F3007808120A1EED4509FD8A828B83A3A3A3C8
:10410300A3A3A312411F740A7808120A1EECFAED46
:104113004509FB024788F582EB12394EE0F5087535
:10412300090022E085088285098322A3E0F9850836
:10413300828509832274EE1203748A0A8B0BECFEC8
:10414300EDFF750F01E9C394085005790002432B75
:104153008E828F83E9F0124591E96003750F001297
:1041630045758E828F831245BFEE124EFDEF1245C9
:10417300B4C0E0EE2411122AF6D0E01245ACC0E040
:10418300EE2412122AF6D0E0123C157408124FB72F
:10419300A3A3A3E0601512455DEE2413F582EF128D
:1041A30047C78E828F83A3E02408F08E828F83A378
:1041B300A3A3A3A3A3A3A3E060218E828F83A385DC
:1041C30082088583091245A0EE2415F582EF124774
:1041D300C7850882850983E02408F08E828F83A334
:1041E300A3A3A3A3E0601A8E828F83A3858208858D
:1041F30083091245848E828F83A3A3A3A3A31243AF
:1042030050EE2419123C02EE241B123C02A3124866
:104213000BE070030242BFEE2419F8EF3400F98E6D
:10422300828F83A3858208858309E0FAE50A2AF54C
:1042330082E50B122BC688828983124350FAE50A62
:104243002AF582E50B122BC6C0E0EE241A122AF6D9
:10425300D0E012435088828983E06059F89020D1DE
:10426300E493C398500575110C8008EE2419122BA2
:10427300C3F5118E828F83A3E0F8E50A28F50CE5D8
:104283000B124334120857E511C333FCE433FD7AB0
:10429300A57B0B12432E1208A3EE241B122AF674DD
:1042A300A5F0A3740BF0E511C333F88508828509E3
:1042B30083E0288006EE2418125468F08E828F83E0
:1042C300A3E0F88E828F83E0C398500302414EA38C
:1042D300E0FA8A08E50A2508F8E50B3400F9EE242C
:1042E3001DF582EF1248D3124360C39AC0E0EE2457
:1042F30017122AF6D0E01247D0602BEE2417F8EFFE
:104303003400F9880889098882F583E024F2124889
:10431300B4240EFAA3E03400FB8882898312475742
:1043230012433EC398F0A90F024030121366740380
:10433300223400F50D750E00780C2290034EE0F93F
:10434300120B26E9F8850882850983E022F08508A7
:1043530082850983E004F022A3A3A3A3A3F08E82A2
:104363008F83E02274F41203748A088B09EA1243E0
:10437300F5F0EA1313543F1243EEA3A3A3F0EAC4E8
:1043830013131243F5A3A3F0EB1243E71243FF7495
:1043930009780A120AA11243E51243FE740A780A45
:1043A300120AA1E50A5401C0E0EC2418F582ED12CB
:1043B3002AF9D0E0124404740B780A120AA11243BA
:1043C300E5A31243FE740C780A120AA11243E5A373
:1043D300A3A3A3A3A3A3A3F0740D7808120AA102B5
:1043E3002725E50A54018C828D8322540F8C828DFC
:1043F300832254038C828D83A3A322A3A3A3A3A309
:10440300A3F08A0A8B0B22C082C08379008A828B35
:1044130083A3A3A3A3A3A3E090034D600FE07022A3
:104423008A828B83A3A3E07019098016E060138A44
:10443300828B83124B25900356E06A7003A3E06BD3
:1044430070E7023D0174F01203748A0A8B0B890C26
:104453008C088D091245911245758508828509835B
:104463001245BFE508124EFDE5091245B4C0E0E56B
:10447300082411F582E509122AF9D0E01245ACC0EF
:10448300E01231F7122AF9D0E01248DB740812481F
:10449300F4601112455DE50824131248CF1248DB7E
:1044A300E02408F0850882850983A3A3A3A3A3A31B
:1044B300A3A3E06017850882850983A312459CE5C1
:1044C3000824151248CF1243602408F0850882851A
:1044D3000983A3A3A3A3A3E06019850882850983A5
:1044E300A3AE82AF83124584850882850983124374
:1044F3005B04F0AA08AB09120DB4E9F50D705685FB
:104503000882850983A3A3A3A3A3A31245687014F8
:10451300E0FA8A0EE50A250EF8E50B1247BCE50C16
:10452300C39A802112459CE8240EF8E91247BC90F7
:10453300034EE0F9120B268E828F83E0F8E50CC35D
:104543009824F2C399C0E0E5082417F582E509121F
:104553002AF9D0E0F0A90D024EECE50A2408F8E5AB
:104563000B3400F92212456C22E085088285098309
:10457300A322850A82850B83A3A31245D5E0F9EA1A
:1045830022E0F8E50A28F582E50B1247E3228A8246
:104593008B83124EF1120DAE22AE82AF83E0F8E5AB
:1045A3000A28F8E50B3400F9221245E8A3A3A3E097
:1045B3002212394EE81245E1A3A3E022A3A3A3A349
:1045C300A3A3A3A3A31245E11245D5A3A3E0F9EA4C
:1045D300F822E0FA850A82850B83A3A3A322F0A322
:1045E300E91245E822F0850A82850B83A3A3A3A3DE
:1045F30022C082C0837AC57B0379E2121BA07AC5ED
:104603007B03023D01C082C083900356023CFEC07F
:1046130082C08374FE12091D851882851983AA82BC
:10462300AB83794B124632124B2E7402023CD712E3
:104633001BA085188285198322C082C083794A1200
:104643001BA0023D0174F61203749003CDE0FE0437
:10465300F0EEF9120D668B09EA450970EDEE60EA9A
:10466300F902478874F0120374EAFEEBFF8C088D9D
:1046730009890A7410120AEFE0F50B7411120AEF9C
:10468300E0F50C120E86EA4B7013E50C7042A90A92
:10469300AC08AD09EEFAEFFB120E9E806EE50A60E0
:1046A30021EA2402F582EB122BC6850A082508F8B5
:1046B300E4340013E813F070098A828B83A3A37494
:1046C30001F0E50C6045E50B70068A828B83E4F00C
:1046D3007401650C7035E50B9003D47004E4F0802D
:1046E3002AE004F0900CF4E0F89003D4E0C398407F
:1046F3001AE4F0900359E06E7003A3E06F700CEEC0
:10470300FAEFFB7901120C0A124711024EEC7A01FF
:104713007B009003B0E0F91214F222C082C08374CC
:10472300016A7001EB70077A011247488012900CFE
:10473300EB124757EA4B60051224A180031247117D
:10474300023D017A207B009003B0E0F91213C622E8
:104753003400F583EAF0A3EBF022C082C083900C0F
:10476300ED023301C082C083900CEF02330112517A
:10477300FF22EE240CF582EF3400F583123CF8E8B7
:1047830049221208A37F0202058DA2F0E4338518A3
:10479300828519831247A97952121BA6221247A9AF
:1047A3007942121BA622F0AA82AB8322AA08AB0984
:1047B3009003B0E0F912139C223400F9E508241D9C
:1047C300F582E50912394EE8F0A3E9F022124FBB56
:1047D300A3A3E022A3F0EE24151247E022F582EF13
:1047E3003400F583E0221247ED223400F583E0F82C
:1047F300A3E0F98882898322E0F812480122A3E02A
:10480300F98E828F83A3A322F0EE241812394B2250
:10481300F0EE241612394B2274F4120374EAFEEB01
:10482300FF7A007B041247151248AA1247CA900365
:10483300657409F0120DC08A088B09AC08AD09EE46
:104843002413122AF6124B2E1249FE640170487A81
:104853000F12489D60418A828B8374021248B4FA16
:10486300A3E0FB8A828B83A3E0FC8A828B83A3A3CE
:10487300E0FBEC850882850983A3A312475888824D
:104883008983124B321241261247D7FAA3E0FB79F0
:104893004A121BA61247AF022BBB7B001213908A4E
:1048A300088B09EA450922900336123CF8900CEF75
:1048B30022F0EE241DF8EF1248BE22123E39E02208
:1048C3001248C7223400F5837401F022F582E5090A
:1048D30012394EE8F0A3E9221248DF221248E322FC
:1048E300F0850882850983A3221248E3A3A3A3A327
:1048F300221248ECA3A3E022124D05120E1422EE5D
:104903002417F582EF1248C7120DC0EE241A12398C
:104913004BEAF0A3EBF02274F412037474F312095C
:104923001D8908EAFEEBFF7C0D7D00790085188266
:10493300851983AA82AB83121372EE241D122AF601
:104943001251F0A3E0F8741F58600A7901121B7624
:1049530079000249F5E8A2E55008740C120AEF74D5
:1049630001F0E8A2E75008740B120AEF7401F0E8B3
:10497300A2E6740A5008120AEF7401F08008120AC2
:10498300EFE064017005EE24138003EE241512504A
:104993002D7402120AEFAA82AB83121B8E122AF322
:1049A300124A031247CA740A120AEFE06401703311
:1049B3001224D4703B120DCC8A0A8B0BA80AA90BC4
:1049C300EE240B122BC3687003A3E0697022120D4F
:1049D300C0EAFCEBFD7402120AEFAA82AB83124910
:1049E300FE600D851882851983AA82AB83120C049D
:1049F300A908740D022BB8EEFAEFFB121B88E9220B
:104A0300E0124A0822F8A3E0F98518828519832267
:104A130074F612037474F312091D8A088B09ECFEF1
:104A2300EDFF7C0D7D007900851882851983AA82AC
:104A3300AB83125395A3A3A3A3A3A3A3A3A3124A34
:104A43009D124AA6F8A2E55008740B120AEF7401EE
:104A5300F0E8A2E75008740A120AEF7401F0E8A222
:104A6300E6EE500424138002241512502D74021212
:104A73000AEF124A8FA3A3E0C0E0740C120AEFD02E
:104A8300E0124CFD120BFE740D024785AA82AB8324
:104A9300121B8E85088285098322E0124A08E8F0FA
:104AA300A3E922F01239481251F4A3E02274F71259
:104AB300037474E112091DEAFEEBFF8E828F8312E9
:104AC3004B32A3A3A3E0A2E050518E828F83122620
:104AD300348A828B83A3A3A3A3A3A3E054FE124B24
:104AE3004A8A828B83124B43E0F98A828B83E024C8
:104AF3001CFAA3E0123564124B2E120DBAE9701B97
:104B0300741D120AEF124B3D7011851882851983AB
:104B1300AC82AD83EEFAEFFB120E02024D6F8E8272
:104B23008F83A3A3A3A3A3A3A3A3A3122BB1221293
:104B33004B36221251F8A3A3A32212398064042214
:104B4300E0241B123E3222123CE0AC82AD8322E908
:104B5300F87900740468600A740A6860057403686D
:104B630070010902083B74F61203748A828B837402
:104B730020F0A3A37401F0120BB08A088B09AE08CE
:104B8300AF09EE4F60108E828F837401F09003A300
:104B9300E07003124902EEFAEFFB024788C082C0BD
:104BA300839003B97401F0E9A2E350037403F0E9BD
:104BB300A2E15004E0D2E2F0023D0174F612037464
:104BC30079007C008A088B0978081205D3F8FF075F
:104BD300F14BEF4BEF4BEF4BEF4BE84BEC4BF14B08
:104BE300E54B0C80097C0480050C80F67C0890035F
:104BF300B9E05C6003098003EC6001090247887433
:104C0300F61203748A828B83E07012A312477F60CB
:104C13000C8A828B83124B2D121CC680047A007B74
:104C23000002478874F512037474F312091D8A088D
:104C33008B09ECFEEDFF750A12EA45097005790050
:104C4300024CF6900356E065087004A3E065097012
:104C530014120DC0EAFCEBFD1249FA7005750A0146
:104C63008003750A00851882851983E4F004120A0B
:104C7300EFE508F0A3E509124CFD120B74E9602778
:104C83007403120AEFAA82AB83120B56E964017014
:104C930016750A017403120AEFAC82AD831249FA46
:104CA3006021750A00801C7412650A70169003A2B5
:104CB300E06402700EEEFCEFFDAA08AB09120B8C48
:104CC300E970DFEEFCEFFDAA08AB09120E8CE9F8E0
:104CD300740A687005750A01801774A0687012EE73
:104CE300FCEFFDAA08AB09120E98AA08AB09120E35
:104CF300AAA90A740D0256FD7402124D0122124D27
:104D03000522123CE0AA82AB832274F7120374EAF1
:104D1300FEEBFF8E828F83A3A3A3A3A3A3A3A3E08E
:104D23006015EE2415122AF6122BA1120E2CE9643B
:104D3300017004790180258E828F83A3A3A3A3A38B
:104D4300A3A3E06015EE2413122AF6124D61FAA311
:104D5300E0FB120E2CE9640160D97900801312364E
:104D630050A3A3A3A3A3A3A3A3A3E022741F120886
:104D7300A37F0102058D74F012037474FD12091DE3
:104D83008A088B09ECFEEDFF890B7413120AEFE01E
:104D9300F50C750A017401120AEF740412522860AB
:104DA30048E50C601DEA2417F582EB12546B12528E
:104DB300168A828B83E0D2E7F0EA2414F582EB12A1
:104DC3003C05124EFCEB1247E9740312578EEE8832
:104DD300828983A3A3F0EF88828983A3A31236FA7F
:104DE300123701120BAAE9F50AA90A7403024EE964
:104DF30074EC12037474F512091D8A0A8B0B890C67
:104E03008C0E8D0F741F120AEFE0F50D7420120A39
:104E1300EFE0F510A3E0F5117E01EE120AEF740A3C
:104E2300F0E97007E50DC333240AF0124FCE700387
:104E3300024ED0124FE37409F0A3E50CC43354E0DF
:104E4300450D124FF5E50C702D7C008023ECC33328
:104E5300F8E433F9E51028F8E51139F988828983F4
:104E6300124EDD88828983122E13F0A30EAF830CBA
:104E7300ECC3950D40D7E5082417F582E5091248E0
:104E8300C3120DC0E508241AF582E50912475374CD
:104E930003120AEFAC82AD83AA0AAB0B120B5CE9D7
:104EA3006019E5082416F582E509124ED7120AEFB8
:104EB300A882A983E50824181247C38508828509B7
:104EC3008312578AAA08AB09120BAAE9FEEEF974FA
:104ED3000B024FC61248C7740322E08E828F83F001
:104EE300A3AE82AF83221208A37F0802058D123975
:104EF300A8F9EA2400E439FB22EA240BF5822274A0
:104F0300EE1203748A0C8B0D890E8C088D097412B2
:104F1300120AEFE0F50F7413120AEF124FAF900568
:104F23003412477F6077E50FC333F8E433F9E8249D
:104F33000EFAE93400FB1213908A108B11AE10AFF6
:104F430011EE4F60588E828F8374D4F0A3A3E50CC7
:104F5300F0A3E50D124FB7E50EF0AC08AD09EE2452
:104F630005FAEF125231EE240D122AF6E50FF08501
:104F73000A08850B09750A007808120857E50FC35C
:104F830033FCE433FDEE240EFAEF124FA61208A30E
:104F9300EEFAEFFB9005341251F0121D6702403018
:104FA300FAE5093400FB121366740322E0F50AA341
:104FB300E0F50B22124FBB22124FBF22123C19A362
:104FC300A3A3221208A37F0C02058D8518828519DD
:104FD30083AA82AB83120E148A088B09EA4509223D
:104FE300EA240BF582EB1247E3FEA3E0FF8E828FE8
:104FF3008322F0A3AE82AF83AC0EAD0FEEFAEFFBCC
:1050030012500722121B8E12500E22EE2408FEEFBE
:105013003400FF22E0FA8E828F83A3A3E022FEA353
:10502300E03400FF8E828F83E02212394B1250341A
:1050330022E0FCA3E0FD22122BB1120DA82274F68C
:10504300120374EAFEEBFF9003BA8013888289830C
:10505300E06E7003A3E06F603A88828983A3A31292
:10506300477F70E87A047B0012142C8A088B09A806
:1050730008A909E849601C8882898312509D90031E
:10508300BA124B2E88828983A3A31247579003BA7F
:105093001247CA0247888A828B83EEF0A3EFF0227D
:1050A30074F41203747E009003BA80070E88828919
:1050B30083A3A312477F70F4EEC333FAE433FB12E6
:1050C300514B607E7F009003BA80248882898312CB
:1050D3005030EFC333FAE433FBE5082AF582E509E0
:1050E3003BF583ECF0A3EDF00F88828983A3A31231
:1050F300477F70D79003AB12250E7003A3E0697846
:1051030008701912085BEEF50A780A12085F7C77BB
:105113007D0379009003AB125156801A12085BEE9F
:10512300F50A780A12085F7C777D0379009003AB58
:10513300124B2E120E3E74031208A3AA08AB0912D7
:105143001432120BC2022BBB12142C8A088B09EAED
:10515300450922122BB1120E4422C082C083801251
:105163008A828B83A3A31239599003BA1247CA12B6
:1051730014329003BA12386970E6023D0174F612D4
:1051830003749003631239859003CE1251DF1247E3
:10519300CA7ACE7B037950121BA69003CE12272D19
:1051A300FAEFFB120EA49003CE1239859005361246
:1051B300477F60257A067B00121390EA4B601A8AB8
:1051C300828B8374D5F0A3A3E41252050412521602
:1051D3009005361251F0121D670247881251E322DF
:1051E300E0F8A3E0F9900363228E828F831251F4D7
:1051F300221251F822E0F81251FE22A3E0F583882F
:1052030082221252092212520D22F08A828B83A328
:10521300A3A322125209A3EEF0A3EFF022F582EF2B
:105223001247E3F9221248FBEA4B22FAE50934005C
:10523300FB121B8E22124802A3A3A3A3A3A3A322A0
:105243009020D3E4932401F8E43400F97A027B003C
:105253002274F71203747E0080041258410E125315
:105263006540F77E00EE12528074FEF0A3041252E2
:1052730095E4F00EEEC3940340EB024D7475F00316
:10528300A4F8A9F074BC28F8740339F988828983D7
:10529300A32212529922F0888289832274F712037F
:1052A300747F0080010F9020D0E493F8EFC39850EF
:1052B30026EF1254516A7003A3E06B70E81257EEA5
:1052C3006C7003A3E06D600A74FF6C700374FF6D70
:1052D30070D312535C80047A007B00024D7474F621
:1052E3001203747CFF7DFF7AFE7BFF120E68EA4B8C
:1052F30070407508008036E50875F017A4F8A9F02A
:10530300744028F582740A125463600C743F28F5C4
:1053130082740A1254637013743128FE740A39FFBD
:105323008E828F83125470EEFAEFFB05081253CB73
:1053330040C502478874F41203748A088B09ECFE93
:10534300EDFF800B120E7AEEFCEFFDAA08AB0912FB
:105353000E68EA4B70EE022BBB743128FA740A39DB
:10536300FB229020D0E493F8EEC3982274F7120343
:1053730074EAFEEBFFEE4F601012538F74FEF0A33E
:105383000412579414F0A304F0024D747C177D00AB
:1053930079001213728E828F832274F7120374EAD8
:1053A300FEEBFF7508008018E50875F017A4F8A94F
:1053B300F01257F97003A3E06F6003125849050810
:1053C3001253CB40E3024D749020D0E493F8E508E8
:1053D300C3982274F6120374120E688A088B09A804
:1053E30008A909E849600AE8240DFAE93400FB80BA
:1053F300047A007B0002478874F41203748A0A8BD0
:105403000BECFEEDFF750800750900802EE50975AC
:10541300F017A4F8A9F0125834601EE5091254518C
:10542300650A7004A3E0650B700375080AEEFCEFD0
:10543300FD1256F060034308A005099020D0E493C1
:10544300F8E509C3985004E50860C202272575F002
:1054530017A4F8A9F012545C22743128F582740A57
:1054630039F583E022F582EF12394EE422122BB193
:10547300120CA022125299A3A3A3A3A3A3A3A32212
:1054830074F21203748A088B09ECFEEDFF740E129A
:105493000AEF124FAF750C007C007D0180101213D0
:1054A3008AE50CF5F0EA84ACF0750C007D00780019
:1054B3007900800312562D125689400302554FE896
:1054C300FAE9FBEA75F017A4FA85F00D75F017EB0E
:1054D300A4250D1256657003A3E0F460D71256435A
:1054E30065087004A3E0650960CA1256436E700331
:1054F300A3E06F60BF125643650A7004A3E0650B17
:1055030060B2E8FAE9FBEA75F017A4FA75F017EB55
:10551300A4250DFB743F2AF582740A125624509475
:1055230074016D050C608DE50CC39C4087E875F034
:1055330017A4F8AAF075F017E9A42AF9743128F52D
:1055430082740A39F583124B2E02562178007900B2
:10555300800312562D1256964003025608E8FAE9C4
:10556300FBEA75F012A4FA85F00D12567564FE700D
:1055730003A3E0F460DC12566B65087004A3E065D6
:105583000960CF12566B6E7003A3E06F60C41256AE
:105593006B650A7004A3E0650B60B7E8FAE9FBEA00
:1055A30075F012A4FA75F012EBA4250DFB74C02A52
:1055B300F58274081256245099E8FAE9FBEA75F06B
:1055C30012A4FA75F012EBA4250D1256366401608D
:1055D30081E06402700302555574016D050C70037C
:1055E300025555E50CC39C5003025555E875F0125E
:1055F300A4F8AAF075F012E9A42AF974B728F58281
:105603007408025546E50C6011EC700E7401650CCC
:1056130060030254A17C010254AC7AFE7BFF022595
:105623001A3BF583E014C3940622E8240108E93405
:1056330000F922FB74BB2AF58274083BF583E02250
:10564300E8FAE9FBEA75F017A4FA75F017EBA4255D
:105653000D12565822FB74312AF582740A3BF583E6
:10566300E02212565864FE22E8FAE9FBEA75F012CA
:10567300A4FA75F012EBA4250DFB74B72AF5827416
:10568300083BF583E0229020D0E493FAC3E89AE93B
:105693009400229020CCE493FA740193FBC3E89A1C
:1056A300E99B2274F51203748A088B09ECFEEDFF63
:1056B300750A008002050A9020D0E493F8E50AC336
:1056C300985028EEFCEFFDE50A75F017A4F8A9F051
:1056D3001256F060E0E50A75F017A4F8A9F07431EA
:1056E30028F582740A39F58312370380107433283E
:1056F300FA740A39FB121B88E9221208A37F0302FA
:10570300058D74F01203748A088B098C0A8D0B893A
:105713000C120E6E8A0E8B0FAE0EAF0FEE4F60554E
:1057230012538FE508F0A3E50912579412578CE53D
:105733000C600AEE240F122AF6E50C8006EE240F05
:10574300125784F09003D012477F601A9003AAE0A7
:1057530064017008EE240E1254688010EE240E12B9
:105763002AF674078006EE240E125784123049126B
:10577300022312577B024EECEE240D12394BE8F054
:105783002212394B740122A3A3E50AF0A3E50BF01F
:105793002212357AA32274F51203748A088B09EC5A
:1057A300FEEDFF750A00800F1257F97003A3E06F37
:1057B3006003125849050A9020D0E493F8E50AC320
:1057C300985025E50A75F017A4F8A9F01257EE656D
:1057D300087004A3E0650970CF743B28F582740A4E
:1057E30039F58312509D80CD025700743B28F58212
:1057F300740A12546322743B28F582740A125463A8
:105803006E2274F7120374EAFEEBFF750800801929
:10581300E5081254516E7003A3E06F700A125834F6
:105823007005E50812584205081253CB40E2024DB9
:1058330074743328FA740A39FB120B56E922EE7595
:10584300F017A4F8A9F012535C120E7A221252999F
:10585300123CF8E84922C082C08374F812091D85FE
:105863001882851983AC82AD837583867582FE7435
:10587300081207B7851882851983AC82AD83124954
:10588300FE640170047900800279017408023CD738
:10589300C082C0838A828B83E0D2E7F01215FA02BA
:1058A3006327C082C0837900125D5F127300C082D8
:1058B300C083900330126F22D083D082C3E09CA3B5
:1058C300E09D500C1274CFFAA3E01258D660010980
:1058D300026327FBEA75F00BA4FAA8F075F00BEB53
:1058E300A428FB900332E02AF8A3E03B8882F583E7
:1058F300E0540F2274F71203748908125D5F125E7D
:1059030005ACF075F00BE9A42CF9900332E028FE06
:10591300A3E039FF7401650860067402650870200E
:105923008A828B83125DF11269D574026508701B3C
:10593300125CB0125E3870138E828F83E4F0800B9A
:10594300EA2403FCEB125DD3125DDFEEFAEFFB12E8
:105953000B2C02665A74F41203741278C379008E06
:10596300828F83E06076890A890B8065E50A75F08A
:105973000BA4FAA8F075F00BE50B1258E37046E59B
:105983000A75F00BA4F8AAF075F00BE50B125E177D
:105993008E828F83E0850882850983125EF98508EC
:1059A30082850983A31269D5EE2403FCEF125DDC23
:1059B3001264FE12727AAA08AB09120B2C790190B9
:1059C3000330126F3DE50A2401F50AE50B3400F5B7
:1059D3000B125CB8E50A9AE50B9B409002678E7444
:1059E300F5120374EAFEEBFF740B120AEF12650360
:1059F300750A01EC4D602BEC1278DFED1273001287
:105A030069CD7901120B38E5084509606F85088275
:105A1300850983A31278CD7902AA08AB09120B3842
:105A2300805AE5084509602B127304126BF7126460
:105A3300FF125E22700CEEFAEFFB120B3EE9F50A41
:105A430080CBEE2403FA125D5A70317903EEFAEF3C
:105A5300FB80CA8E828F83A3E064FE7003A3E0F40D
:105A6300700BEE24030A0A0A125D5A700CEEFAEF69
:105A7300FB120B3EE9F50A8003750A00A90A7F03AE
:105A830002058D74F712037490033012665FEA4BBC
:105A9300602FEA75F00BA4FAA8F075F00BEBA428BD
:105AA300FBEAFEEBFF12142C90033212665F9003A5
:105AB30032126F296012EEFCEFFD7900121372802F
:105AC30007900332E4F0A3F002665A900330126E9B
:105AD300ADC3EE98EF9922C082C083EC4D600512EE
:105AE3001B8E80097C087D007900121372026327E4
:105AF30074F61203747900EA4B6018780088081270
:105B03007486EB1274CB60047901780808E8C394B7
:105B13000840EA02667274F712037474F312091DE3
:105B2300ECFEEDFF851882851983E4F004120AEF79
