:020000040000FA
:06000000020A280201B310
:03002B0002087355
:0300330002068F33
:0300430002072889
:030053000200E4C4
:03006B0002067515
:100083000201480101FF01010503010F10FEFFB842
:1000930012B812B812B81274116E11B812871F0079
:1000A3000000004B20000000000C0000000C0001C9
:1000B300FFFF0102006605000000D905640002028B
:1000C30000080000050207051E02051E020A0A03B6
:1000D300B80B02803E0102F1FF1496511800020290
:1000E30006C0E074F21203CCA2AFE433FED2AFE554
:1000F300A7FFE5A1F5085F54106006121A4A75A11F
:10010300EFE5085F54086008121A5075A1F7802BB9
:10011300EFA2E0C0D0E508A2E092F012094F1581EA
:1001230082F05017906198E0F8900AB6E0C398A265
:10013300D265D0335002E8F075A1FEEEA2E092AF93
:100143007F0102042BC0E074F21203CCA2AFE433AC
:10015300FED2AF9061A4E0F8759B00E59158540876
:1001630060087591F7121A98802AE5915854106027
:10017300087591EF121A9E801BE8A2E0C0D0E591AA
:10018300A2E092F012094F158182F05007E0C2E01D
:10019300F0121BE29061A3E0F8E5E9585404600E05
:1001A300121BB875E9FB906193E0A2E640F2808BE5
:1001B300C0E074F21203CCA2AFE433FED2AF90617D
:1001C300A5E0F8E5BF585404600675BFFB121BFA9F
:1001D30002013EC3E498F8E499F91202178026C39A
:1001E300E49AFAE49BFBE920E7E9120217E498F8A2
:1001F300E499F922C3E498F8E499F9120217E49810
:10020300F8E499F9C3E49AFAE49BFB22EB20E7CFE5
:10021300E920E7E0B90010BB0008E88AF084F8AAF7
:10022300F022E4FBC8FA22EB70227B10C833C8C962
:1002330033C9335007C39AC3DBF280069A50012AAD
:10024300DBEAC833F4C8C933F4C9FA2275F008E409
:10025300C833C8C933C933C99AC99B5004C92AC909
:100263003BD5F0ECFBC833F4C8E4C9FA220808080C
:10027300EAC0E0EBC0E086F0E7A4FA180986F0E7ED
:10028300A42AFA180986F0E7A42AFA180986F0E7DF
:10029300A42AFA1986F0E7A4FBE5F02AFA190886DE
:1002A300F0E7A42BFBE5F03AFA190886F0E7A42B54
:1002B300FBE5F03AFA18180986F0E7A4C5F02BFB22
:1002C300E43AFA1908E7C5F0C6A426F6E5F03BFBC5
:1002D300E43AFA1886F0E7A4F6E5F00826F6E43BDC
:1002E30008F6E43A08F6D0E0FBD0E0FA22E4CFC007
:1002F300E0E4CEC0E0E4CDC0E0E4CCC0E075F020A3
:10030300C3E633F608E633F608E633F608E633F6D3
:10031300181818EC33FCED33FDEE33FEEF33FFC357
:10032300EC9709ED9709EE9709EF97191919400F03
:10033300FFEC97FC09ED97FD09EE97FE191906D519
:10034300F0BEECF709EDF709EEF709EFF719191904
:10035300D0E0FCD0E0FDD0E0FED0E0FF222518C5C0
:1003630082C0E0E51934FFC583C0E0E518C3958278
:1003730024F810AF088583198582188008858319AE
:10038300858218D2AFCEF0A3E520F0A37808E60863
:10039300F0A3DEFAEFF0A3E58124FAF8E608F0A370
:1003A300E608F0A3E608F0A30808E608F0A3E608C9
:1003B300F0A315811581D0E0FED0E0F815811581F9
:1003C3001581E8C0E0EEC0E022C0D02518C582C088
:1003D300E0E51934FFC583C0E0E518C3958224F333
:1003E30010AF088583198582188008858319858253
:1003F30018D2AFC8F0A3E9F0A3EAF0A3EBF0A37916
:1004030008E709F0A3D8FAECF0A3EDF0A3EEF0A30C
:10041300EFF0A3D0E0F0A3D0E0F0A3D0E0F0A3E5A9
:1004230020F0A3E5F0F0A322851983851882E0C0AC
:10043300E0A3E0F9A3E0FAA3E0FBA37808E0F60861
:10044300A3DFFAE0FCA3E0FDA3E0FEA3E0FFA3E04B
:10045300C0E0A3E0C0E0A3E0F5D0A3E0F520A3E073
:10046300A3F5F010AF08858319858218800885836A
:1004730019858218D2AFD082D083D0E0F8D0E03291
:10048300120A8AB900030204C5E4900301787D7956
:100493000E8002F0A3D8FCD9FA90107DAA82AB8318
:1004A300900086785F79018015E493A3AC82AD83D5
:1004B3008A828B83F0A3AA82AB838C828D83D8E953
:1004C300D9E77582F77583DE74031207EB75828EA5
:1004D30075831E74001207EB0975F0108E1A8F1BBB
:1004E30085821F85831E851882851983E0CEA3E04C
:1004F300CF851F82851E83EBC9EAC8EDCBECCAC347
:10050300E833C8E933C9EA33CAEB33CBC3EA9EF510
:100513001DEB9FF51CB35004AB1CAA1DEC33CCEDB3
:1005230033CDD5F0DAAE1AAF1B22D083D082ECC024
:10053300E0EDC0E0E493A3FCE493A3FDED4C600D78
:10054300120605EC24FFFCED34FFFD80EFE493A3DA
:10055300FCE493A3FDED4C600D1206D3EC24FFFCE9
:10056300ED34FFFD80EFD0E0FDD0E0FCE493A3C0C9
:10057300E0E493C0E022851983851882E0A3FEE0BE
:10058300A3F5207808E0A3F608DFFAE0A3FFE0A3D1
:10059300C0E0E0A3C0E0E0A3C0E0E0A3C0E0E0A3CC
:1005A300C0E010AF088582188583198008858218FA
:1005B300858319D2AFD083D0820207F1D083D08252
:1005C300E9C0E0E493A3C386F0C5F095F0F908E42D
:1005D30093A386F0C5F095F0700BE493A3C3994001
:1005E30005E9048002A3E475F002A42582F582E5FF
:1005F300F03583F583D0E0F9E493A3C0E0E493C03E
:10060300E022C0E0C3E49396087401939618400F68
:10061300E49366700808740193661870007019A358
:10062300A3C3E49396087401939618A3A3400DD033
:10063300E0D0E0D0E0020569A3A3A3A3A3A3D0E085
:10064300227404800474028000CCC0E0EDC0E0E5B5
:1006530018C39CCCAD1950011D10AF068C188D1911
:1006630080068C188D19D2AF12076DD0E0FDD0E053
:10067300FC22C0E074F21203CCE589A2E15003121C
:100683001924758900C2C57F0102042BC0E074F2EE
:100693001203CCE58BA2E05003121924758B00C220
:1006A300E880E474028000CCC0E0EDC0E0E518C34C
:1006B3009CCCAD1950011D10AF068C188D19800606
:1006C3008C188D19D2AF12074BD0E0FDD0E0FC227D
:1006D300C0E0C0F088F0E493667008087401936684
:1006E300187000A8F0A3A3700BD0F0D0E0D0E0D036
:1006F300E0020569A3A3D0F0D0E022D083D082CC5E
:10070300C0E0E493A360061207AD1470FAE493A368
:1007130060061208BD1470FAD0E0FCE493A3C0E0B5
:10072300E493C0E022C0E074F21203CCA2AFE4333E
:10073300FED2AFC2C0E5D1A2E450031219C0EEA2AB
:10074300E092AF7F0102042BCAC0E0E493A3C58209
:10075300CCC582C583CDC583F0A3C582CCC582C574
:1007630083CDC583DAE5D0E0CA22CAC0E0E0A3C5E1
:1007730082CCC582C583CDC583F0A3C582CCC58297
:10078300C583CDC583DAE6D0E0CA2270090808081C
:10079300226016181818C6C333C608C633C608C65F
:1007A30033C608C633C6D5E0EA22C0E0E493A3D338
:1007B3009C5010E493A3C39C400AD0E0D0E0D0E067
:1007C30002071BA3A3A3D0E022C008C3E096F50849
:1007D30008A3E096420808A3E096420808A3E0961F
:1007E30045087001D3D00822C09FF59FE473D09FC2
:1007F30022D083D082C09FE493C0E0740193C0E011
:10080300740293F59F222518F58210AF08F518405E
:100813000215198008F51840021519D2AF851983FE
:10082300227404800A74038006740280027401C077
:10083300E0F404120809D0E0120A6522C0D025189A
:1008430010AF08F518500205198008F51850020575
:1008530019D2AFD0D022BB0102E722C082C0838964
:10086300828A83BB0003E08002E493D083D0822298
:10087300C0E0C0D0E8C0E0E5A8D2AFC2C7A2E7920B
:10088300AFD0E0F8D0D0D0E0326016080808C6C375
:1008930013C618C613C618C613C618C613C6D5E0A2
:1008A300EA22C3E0C696F608A3E0C696F608A3E0DC
:1008B300C696F608A3E0C696F622C0E0E493A36CBE
:1008C3007009D0E0D0E0D0E002071BA3A3D0E02260
:1008D300251810AF08F518400215198008F51840BF
:1008E300021519D2AF22E76670100809E766700A8D
:1008F3000809E76670040809E76622E066701008D5
:10090300A3E066700A08A3E066700408A3E0662209
:10091300C3E09608A3E09608A3E09608A3E096A296
:10092300D265D03322C3E096F008A3E096F008A383
:10093300E096F008A3E096F022E026F008A3E03664
:10094300F008A3E036F008A3E036F022C0E0E8C0E8
:10095300E0E58124FCF8E6A2E7D0E0F8D0E022E667
:1009630047F60809E647F60809E647F60809E647A1
:10097300F622E026F608A3E036F608A3E036F608EA
:10098300A3E036F622E627F60809E637F60809E675
:1009930037F60809E637F622E657F60809E657F66A
:1009A3000809E657F60809E657F622E056F608A3C3
:1009B300E056F608A3E056F608A3E056F622E05602
:1009C300F008A3E056F008A3E056F008A3E056F0C1
:1009D30022700422600D18C6C333C608C633C6D5B9
:1009E300E0F41822E4C396F608E496F608E496F6D3
:1009F30008E496F622C6F4C608C6F4C608C6F4C6CA
:100A030008C6F4C622C3E7960809E7960809E796DD
:100A13000809E79622C3E09608A3E09608A3E096A8
:100A230008A3E0962275D0007581407518017519E9
:100A33000300020483E0F608A3E0F608A3E0F60847
:100A4300A3E0F622600C08C6C313C618C613C6D5A6
:100A5300E0F422E6F008A3E6F008A3E6F008A3E634
:100A6300F022CAC0E0E6F0A308DAFAD0E0FA22E006
:100A7300FAA3E0FBA3E0FCA3E0FD22EAF0A3EBF082
:100A8300A3ECF0A3EDF022E5C754F84401F5C779D0
:100A930001222518F582E43519F58322C2AF75D6F4
:100AA3009F020000221207F4D7DF021207F4B9E015
:100AB300021207F40EE3021207F45BE4021207F4D6
:100AC300FEE4021207F445E6021207F463E602129B
:100AD30007F49B22001207F4AD22001207F4FF2251
:100AE300001207F46023001207F4EA23001207F44C
:100AF3008E24001207F4E224001207F4FB240012F0
:100B030007F42125001207F45C25001207F4A02541
:100B1300001207F4C725001207F41826001207F481
:100B2300C826001207F48027001207F44828001291
:100B330007F40829001207F44C29001207F471295D
:100B4300001207F4B429001207F4012A001207F473
:100B5300592B001207F4DF2B001207F4FD2B0012B0
:100B630007F4272C001207F4412C001207F4502C31
:100B7300001207F45B2C001207F41B2D001207F47C
:100B8300742D001207F4362E001207F43E2E0012C5
:100B930007F4022F001207F46E2F001207F49930A6
:100BA300001207F4BE30001207F43431001207F4C8
:100BB300C631001207F48632001207F4A532001280
:100BC30007F4B433001207F4C633001207F43634C3
:100BD300001207F46034001207F4EE34001207F435
:100BE3002735001207F47335001207F48F3600120D
:100BF30007F4D838001207F4E338001207F4EE388C
:100C0300001207F4F938001207F40339001207F44D
:100C13000E39001207F42839001207F43239001292
:100C230007F43C39001207F44739001207F46F390F
:100C3300001207F4CA39001207F4D439001207F47A
:100C4300F839001207F41C3A001207F47A3A00123A
:100C530007F4BE3A001207F4DA3A001207F4513BE4
:100C6300001207F4893B001207F4D53B001207F486
:100C7300323C001207F4EC3C001207F4D03E0012A1
:100C830007F4293F001207F45940001207F47F408C
:100C9300001207F40842001207F48445001207F417
:100CA3005647001207F41F49001207F4CC490012FB
:100CB30007F4374B001207F4D64B001207F41B4C12
:100CC300001207F4854C001207F4944C001207F449
:100CD3001B4F001207F4CD50001207F43A510012D3
:100CE30007F41952001207F43253001207F4AF54F9
:100CF300001207F4CE54001207F42355001207F430
:100D03002856001207F45056001207F4A856001292
:100D130007F48757001207F4CB57001207F416584D
:100D2300001207F48158001207F4C259001207F4A5
:100D3300265A001207F4745B001207F4D45D001204
:100D430007F4055E001207F4BD5F001207F412609A
:100D5300001207F41661001207F4B361001207F4DE
:100D63000C62001207F4BF62001207F46163001201
:100D730007F40164001207F4A664001207F4A887BD
:100D8300011207F4E787011207F42E8A011207F410
:100D9300788A011207F4938B011207F4FB8B01127B
:100DA30007F4308C011207F4A48D011207F4279085
:100DB300011207F45091011207F4E691011207F4AE
:100DC300EE9A011207F4839B011207F46A9E011243
:100DD30007F45D9F011207F4CB9F011207F411A1E1
:100DE300011207F4F3A1011207F4D8A3011207F4C7
:100DF300E9A5011207F453A6011207F425A701126E
:100E030007F453A7011207F410A8011207F4E7A887
:100E1300011207F4AEA9011207F452AA011207F452
:100E23007BAA011207F49DAA011207F4F3AC011285
:100E330007F4CBAD011207F40FAE011207F477AE3E
:100E4300011207F42FAF011207F461AF011207F487
:100E5300A5AF011207F4DBAF011207F427B00112AB
:100E630007F47CB0011207F481B0011207F4D4B087
:100E7300011207F4F9B0011207F408B2011207F4E2
:100E83006CB2011207F4DCB2011207F468B3011269
:100E930007F435B6011207F419B7011207F49CB829
:100EA300011207F4D2BA011207F480BB011207F44E
:100EB30030BC011207F471BE011207F414BF011212
:100EC30007F45BBF011207F407C1011207F41BC14A
:100ED300011207F425C1011207F44DC1011207F4F1
:100EE30059C1011207F478C1011207F498C3011222
:100EF30007F4E7C4011207F42BC5011207F4D3C5A5
:100F0300011207F4B6C6011207F461C7011207F410
:100F1300ADC8011207F4ABC9011207F451CA01129B
:100F230007F4E1CA011207F4F8CA011207F42FCB40
:100F3300011207F439CB011207F444CB011207F471
:100F430062CB011207F4A6CB011207F403CC011202
:100F530007F428CC011207F442CC011207F4CECCDB
:100F6300011207F4EBCD011207F458CE011207F476
:100F73003FCF011207F466CF011207F4DACF011253
:100F830007F455D0011207F459D1011207F44FD2D7
:100F9300011207F4FED2011207F411D4011207F46F
:100FA300ADD4011207F43AD5011207F418D6011291
:100FB30007F450D6011207F4A8D6011207F471D72B
:100FC300011207F492D7011207F419D8011207F49A
:100FD3003DD8011207F45FD8011207F4A8D8011213
:100FE30007F4BEDA011207F4A5DB011207F456DC9D
:100FF300011207F48CDE011207F4DCDE011207F4A0
:101003001CDF011207F45EDF011207F4BADF0112DD
:1010130007F4E8DF011207F40CE0011207F45FE0C4
:10102300011207F48DE0011207F4C6E0011207F480
:101033001BE1011207F481E1011207F4D5E2011269
:1010430007F4F8E4011207F465E5011207F48EE5ED
:10105300011207F419E6011207F480E6011207F4FE
:10106300CBE6011207F4EFE6011207F413E70112CE
:1010730007F46EE7011207F489E7011207F442E867
:10108300011207F4F8F8031207F437F9031207F40F
:101093007880021207F4BE80021207F49E810212C6
:1010A30007F4A082021207F4A383021207F42F8528
:1010B300021207F48D85021207F44A86021207F41E
:1010C3006887021207F4D987021207F415880212FF
:1010D30007F46388021207F46D88021207F4B188DB
:1010E300021207F40D89021207F4A889021207F409
:1010F300258A021207F4F48A021207F48D8B021276
:1011030007F4AD8B021207F4E38B021207F4148C7D
:10111300021207F4D58C021207F4E58C021207F4CD
:10112300398D021207F4548D021207F4668D0212F0
:1011330007F46F8D021207F4C98D021207F4258E8E
:10114300021207F4718E021207F48C8E021207F456
:10115300BD8E021207F4DA8E021207F4E68E021233
:1011630007F45A90021207F47390021207F4DA900C
:10117300021207F4ED90021207F4FB90021207F437
:10118300AF91021207F49392021207F49993021299
:1011930007F42394021207F42D94021207F49A948D
:1011A300021207F4B194021207F4E394021207F453
:1011B3001C95021207F44695021207F4A795021232
:1011C30007F4C795021207F4E595021207F42B966C
:1011D300021207F45197021207F49E97021207F4C2
:1011E300CD97021207F44398021207F46B98021288
:1011F30007F4A498021207F4B298021207F40A99AA
:10120300021207F45999021207F49899021207F48B
:10121300C899021207F4F499021207F4FF99021213
:1012230007F41D9A021207F4DF9A021207F4E99AEF
:10123300021207F42A9B021207F47F9B021207F49F
:10124300939B021207F4A19C021207F4B49C0212AE
:1012530007F4C99C021207F46B9D021207F4EE9D7A
:10126300021207F4AC9E021207F4B79E021207F4AF
:10127300E39F021207F4FF9F021207F451A0021228
:1012830007F490A0021207F4A5A0021207F407A125
:10129300021207F496A1021207F4E1A1021207F465
:1012A30032A4021207F4B0A4021207F425A5021215
:1012B30007F447A7021207F45FA7021207F462A715
:1012C300021207F46EA7021207F482A7021207F4B0
:1012D3008AA7021207F4BDA7021207F46DA802122F
:1012E30007F4E3A8021207F456A9021207F40AAAA4
:1012F300021207F4BFAA021207F4DEAA021207F4CD
:1013030084AB021207F4AFAB021207F4B2AB0212C2
:1013130007F41CAC021207F444AD021207F41CAE2E
:10132300021207F4A7AE021207F4C0AF021207F4C9
:101333007DB0021207F4B6B0021207F4E7B002124E
:1013430007F4A5B1021207F4D5B1021207F4B0B243
:10135300021207F449B3021207F4D4B3021207F4DA
:1013630085B4021207F408B5021207F43AB5021263
:1013730007F47BB5021207F405F5021207F46AF5C8
:10138300021207F4A7F5021207F4F6F5021207F4A6
:101393000CF8021207F4EFF9021207F459FD0212D6
:1013A30007F494FD021207F4B6FD021207F419FEC6
:1013B300021207F44DFE021207F470FE021207F444
:1013C3009DFE021207F4F9FE021207F4278D0312A1
:1013D30007F4A58D031207F4DB8D031207F4478E80
:1013E300031207F4BA8F031207F486D6021207F426
:1013F3001B90031207F4A990031207F4029103123E
:1014030007F42F92031207F44193031207F49E93F8
:10141300031207F40A94031207F46B94031207F4FC
:10142300AC94031207F45995031207F46B96031255
:1014330007F49696031207F4E196031207F428972C
:10144300031207F4BBDF021207F47598031207F4C3
:1014530035DC031207F4B0DC031207F4BBDC031220
:1014630007F4DCDC031207F4EC98031207F4F69894
:10147300031207F44299031207F4B099031207F415
:10148300D199031207F4819A031207F4159D0312ED
:1014930007F41E9D031207F4719D031207F49A9D2E
:1014A300031207F4019E031207F4929E031207F43A
:1014B300D49E031207F41E9F031207F47D9F0312A9
:1014C30007F4A99F031207F43AA0031207F479A0C3
:1014D300031207F4B8A0031207F4EDA0031207F4F4
:1014E300FFA0031207F411A1031207F430A10312A2
:1014F30007F439A1031207F4EFA1031207F42FA293
:10150300031207F4A6F6031207F40CE9031207F417
:1015130042E9031207F48BE9031207F4DBEA03122F
:1015230007F47CE8011207F4BBE9011207F4F7E9B9
:10153300011207F4B6EB011207F4DFEB011207F413
:1015430072EE011207F4B6EE011207F43FF0011236
:1015530007F4D7F0011207F43FF1011207F4E0F1A9
:10156300011207F422F2011207F462F2011207F4E6
:10157300EDF3011207F45DF5011207F482F701128E
:1015830007F4B0F7011207F4D7F7011207F4E0F7F5
:10159300011207F467F8011207F485FB011207F43F
:1015A30055FA031207F46BFA031207F4ADF80312AA
:1015B30007F4A4D5031207F4B7D5031207F454D6DE
:1015C300031207F48FD6031207F4AAD6031207F403
:1015D300CFD6031207F414D7031207F445D7031227
:1015E30007F476D7031207F4FCD8031207F419F2B1
:1015F300031207F44FF2031207F46BF2031207F41A
:10160300ADF2031207F4BDF2031207F452F303120F
:1016130007F45CF3031207F409D9031207F4C2D9E0
:10162300031207F472DA031207F4B0DA031207F4B1
:101633004FDB031207F4C4DB031207F40080031229
:1016430007F45580031207F43E81031207F4D78190
:10165300031207F42182031207F47E82031207F4B4
:101663009282031207F4C482031207F4C2830312A3
:1016730007F40684031207F42184031207F4708429
:10168300031207F48684031207F49384031207F406
:10169300C784031207F4E084031207F4AA85031234
:1016A30007F40486031207F45286031207F47486C0
:1016B300031207F4EB88031207F42089031207F4DB
:1016C300B089031207F4258A031207F42A8A031246
:1016D30007F4668A031207F4BC8A031207F4808BAB
:1016E300031207F4A58B031207F4AF8B031207F45D
:1016F300B28B031207F43B8C031207F4568C0312CC
:1017030007F4698C031207F4A48C031207F4A78C63
:10171300031207F4B28C031207F4EE8C031207F4DE
:1017230060F8031207F478F8031207F494AB03127A
:1017330007F4E3AB031207F485AD031207F443AFD9
:10174300031207F48BAF031207F4ADB0031207F4CF
:10175300DEB1031207F400B2031207F45CB2031202
:1017630007F4DEB2031207F4F264001207F4136500
:10177300001207F49D65001207F42266001207F4B5
:101783009E66001207F40767001207F453670012FE
:1017930007F4D267001207F46468001207F4F068D4
:1017A300001207F43269001207F49E6D001207F469
:1017B3001E6F001207F4F46F001207F42370001277
:1017C30007F40E72001207F48E74001207F44775C3
:1017D300001207F46476001207F4BB79001207F4D1
:1017E300CB79001207F42C7B001207F4B87B0012AC
:1017F30007F4E17C001207F4D27D001207F4547E53
:10180300001207F48AE6021207F444E7021207F40F
:10181300B6E7021207F452E8021207F4C2E8021212
:1018230007F47BEB021207F452EC021207F4BFEC4D
:10183300021207F43CEE021207F406EF021207F459
:1018430076EF021207F43FF1021207F452F202128A
:1018530007F4EBF2021207F4B1F3021207F400CB20
:10186300031207F454CB031207F4ACCB031207F4AF
:10187300F7CB031207F459CC031207F4C5CC0312B8
:1018830007F478CD031207F4B9CD031207F4CFCDD3
:10189300031207F42BCE031207F469CE031207F4E5
:1018A30026ED031207F457ED031207F411EE0312AA
:1018B30007F477EE031207F482DF031207F40EE155
:1018C300031207F4E0F9031207F4F1F9031207F422
:1018D30000EF031207F40EEF031207F4E5FF021201
:1018E30007F479F7031207F489F7031207F4A4F74F
:1018F300031207F405F8031207F4A4F5031207F41F
:1019030029F6031207F48DF6031207F492F4031277
:1019130007F4B4F4031207F41EF5031207F429F5D0
:10192300031207F46DF5031207F407B8031207F463
:1019330015B8031207F456B8031207F470B803126C
:1019430007F4EDB8031207F4E7B9031207F40CBA6E
:10195300031207F429BA031207F446BA031207F471
:101963006BBA031207F493BA031207F4DBBA031238
:1019730007F456BB031207F406BC031207F49ACE0E
:10198300031207F4A8CE031207F422CF031207F4BD
:1019930006D0031207F4BFD1031207F433FA03127C
:1019A30007F412B3031207F47EB3031207F43DB432
:1019B300031207F447B5031207F4A0B6031207F4A2
:1019C300FBB6031207F450B7031207F459B7031217
:1019D30007F46BB7031207F4D5B7031207F4E9B79B
:1019E300031207F4F3B7031207F482C1031207F4D7
:1019F300D7C1031207F4D3C3031207F405C40312B8
:101A030007F427C4031207F440C4031207F459C4AC
:101A1300031207F463C5031207F4FEC5031207F4A8
:101A2300B8F0031207F4DCF0031207F4F5F0031225
:101A330007F428F1031207F459F1031207F487F1AD
:101A4300031207F4E9F1031207F4F8F1031207F4A0
:101A530002F2031207F40FF2031207F4B9E10312BF
:101A630007F4DFE1031207F41CE2031207F42BE28D
:101A7300031207F44AE2031207F4B2E2031207F473
:101A8300BBE2031207F41AE3031207F43EE3031263
:101A930007F4FDE3031207F40AE4031207F41BE45B
:101AA300031207F441F9031207F45EF9031207F472
:101AB30075C6031207F4D3C7031207F4E0C7031272
:101AC30007F4F3C7031207F412C8031207F428C874
:101AD300031207F43CC8031207F4B1C8031207F456
:101AE30016C9031207F4C6C9031207F49BCA0312EB
:101AF30007F4ABCA031207F4BACA031207F44CFF84
:101B0300021207F470FF021207F498FF021207F49F
:101B1300C0FF021207F449E4031207F470E403124E
:101B230007F491E4031207F4F6E4031207F4AFE6B3
:101B3300031207F4C8E6031207F4D4E6031207F40A
:101B4300E8E6031207F406E7031207F410E70312AB
:101B530007F41AE7031207F42DE7031207F480E7EB
:101B6300031207F4B9E7031207F4E8E7031207F4D3
:101B730036E8031207F485E8031207F4A0E803121A
:101B830007F4AAE8031207F4BBE8031207F401E918
:101B9300031207F40FF8031207F458A2031207F411
:101BA30082A2031207F49EA2031207F4B1A2031246
:101BB30007F4C7A2031207F424A3031207F457A3DD
:101BC300031207F493A7031207F4B9A8031207F447
:101BD300ECA8031207F438A9031207F464AA03124A
:101BE30007F48CAA031207F4A1AA031207F4B1AAFB
:101BF300031207F4F5AA031207F456AB031207F412
:101C030066AB031207F45FF3031207F47AF30312CC
:101C130007F4A3F3031207F4BDF3031207F4E2F38B
:101C2300031207F401F4031207F419F4031207F47F
:101C330047F4031207F461F4031207F4BAFF011225
:101C430007F424D2031207F42BD2031207F437D379
:101C5300031207F467D3031207F48DD3031207F4B7
:101C6300B0D3031207F4D2D3031207F40CD4031234
:101C730007F472D4031207F4ABD4031207F4F7D4B6
:101C8300031207F424D5031207F444D5031207F40F
:101C93003EEB031207F456EB031207F444EC031272
:101CA30007F423ED031207F4EC7E001207F45E7FC2
:101CB300001207F49C7F001207F4DD7F001207F483
:101CC30006FC011207F425FC011207F474FC01124F
:101CD30007F490FC011207F4C1FC011207F4CEFCD7
:101CE300011207F4DBFC011207F4C7FD011207F42C
:101CF30005FE011207F415FF011207F420FF01127C
:101D030007F432FF011207F43BFF011207F445FF0A
:101D1300011207F4C5BC031207F40AC1031207F446
:101D230018C1031207F4B3F9031207F47DF9031280
:101D330007F40BFA031207F475FA031207F4DAD562
:101D4300021207F420D4021207F4D0D1021207F4CE
:101D530057D1021207F4FED0021207F48ED00212FA
:101D630007F465D0021207F445CE021207F411CE30
:101D7300021207F4DECD021207F4C2CD021207F4F9
:101D8300DBCC021207F493CC021207F4DECA021270
:101D930007F45ECA021207F45BCA021207F458C9B9
:101DA300021207F426C9021207F463C8021207F4E9
:101DB3008EC6021207F41FC6021207F4F1C50212FF
:101DC30007F43FDF021207F4F6DE021207F4AEDE79
:101DD300021207F4FCDD021207F46EDD021207F4AF
:101DE300EEC5021207F4DBC5021207F486C5021220
:101DF30007F461DD021207F475C5021207F467C424
:101E0300021207F431C4021207F4DFC3021207F40B
:101E13005BDA021207F4BA97031207F480C30212C3
:101E230007F44FC3021207F417C0021207F4D7BF17
:101E3300021207F4CBBF021207F42BBF021207F4FE
:101E43006BBE021207F4EDBB021207F47EB9021255
:101E530007F43CB9021207F410B8021207F4C5B72D
:101E6300021207F404B7021207F4D7B6021207F4FA
:101E73001AB6021207F4B0B5021207F4EAB5021259
:101E830007F4BDD7021207F4D68F0300000080FBCE
:101E9300E473000136360101000102010001030170
:101EA30000010401060605020000070100340801D1
:101EB300000F090401010D0100FF0E0800001702C5
:101EC3000000190100FF1A0100011B0100FE1C01A3
:101ED30000081D0200001F01000120010001210272
:101EE30000002301000F2402000026010001270146
:101EF3000008280200FF2A0100072B0102402C01E1
:101F030000002D0100012E0100012F0100FF30010F
:101F13000B1C310800003A0100083B01000F2F01A0
:101F2300000003027102300160021102700201021B
:101F3300020202028002100261023A0041006302BF
:101F430073027202620243020002130238000002AB
:101F53000002040212020002000200020002040254
:101F63000402370037003C02440200023900000239
:101F730000026502000235028102000205028202AC
:101F83008302000203007100300160001100700041
:101F9300310220035004800010006100000014008F
:101FA3006300730072006200430000001300060028
:101FB3000000000004001200000000000000000008
:101FC30004000400370037003C0244000000000016
:101FD30000000000650000003500810000000500DE
:101FE3000000830000000304710402046004110470
:101FF30070040204020401040204100461040004D6
:102003001404630473047204620443040004130499
:102013000604000400040404120400040004000481
:102023000004510464000004000400044404000498
:102033000004000400046504000435048104640002
:102043000504000483040004010371030103010375
:10205300010301030103220302030103100300032D
:102063000003000300030003000300034203000313
:1020730024030603000300030403120325032303BD
:1020830025032303040304030003000300034403A1
:1020930000030003230300036503210035038103C9
:1020A30000030503000300030003010171010101A3
:1020B300010111010101310101010101800110013F
:1020C30061013B001400630173017201620143016A
:1020D3000001130106013D01350004011201000155
:1020E30000010001000104010401330133013C013B
:1020F3004401320136000001000165010001350091
:102103008101000105018201830100013600010004
:10211300060000000F0000000000000000000000A7
:10212300000003FFFF00000403FFFF0000FFFF0F99
:10213300F4010005C4040320000100030B000000A8
:10214300000000000003010F00001C181300BC175F
:1021530001001C180200861703008C170400921755
:10216300050098170600A417FFFF000001C60D061F
:10217300F60D08F00D0B020E10420D02CC0D05E416
:102183000D07D20D0CA80D0DBA0DFF000003EAF5E3
:10219300E5D5D5C5B5A595958585757565655555FC
:1021A300454535352525151505CE11FE11D411DA12
:1021B30011F811EC11E61104120A1210121C12E0AC
:1021C30011C811C21100160F00000B150B020002FB
:1021D300220F32000006B812CA12D0129811D6127A
:1021E30092119E11D210CC1008110E110211BA10C7
:1021F300121330133613181324131E13303016180A
:102203001920231A1C1E300C0E020B040B0A07089C
:10221300000F00383C3E363B3B352B432C30301708
:10222300181921301B1D1F30000119161816161519
:1022330023030000034948424D18172505020613DE
:10224300DC12E212EE12E812F21116122A13221213
:102253002812020402010101010902DE10E410D870
:10226300101411000000000000EA10FC1000BE046E
:102273000A0E00150004007F00E8030C002800008C
:102283000000000308100C0A03080900040001FF02
:102293001E1E0C05040F1008C082C0838A828B8324
:1022A300E0D2E7F01216EA023412C082C08379004A
:1022B30012276712547EC082C083900334124204F3
:1022C300D083D082C3E09CA3E09D500C125B52FAF2
:1022D300A3E01222DE600109023412FBEA75F00B5F
:1022E300A4FAA8F075F00BEBA428FB900336E02AC0
:1022F300F8A3E03B8882F583E0540F2274F71203BE
:1023030060890812276712280DACF075F00BE9A459
:102313002CF9900336E028FEA3E039FF7401650829
:1023230060067402650870208A828B831227F91273
:1023330034E074026508701B1226B812284070132B
:102343008E828F83E4F0800BEA2403FCEB1227DBFD
:102353001227E7EEFAEFFB120AD202344A74F412A0
:10236300036012647979008E828F83E06076890A34
:10237300890B8065E50A75F00BA4FAA8F075F00BDC
:10238300E50B1222EB7046E50A75F00BA4F8AAF0F0
:1023930075F00BE50B12281F8E828F83E085088270
:1023A300850983122901850882850983A31234E0F4
:1023B300EE2403FCEF1227E4123419124EF8AA0894
:1023C300AB09120AD2790190033412490DE50A24AC
:1023D30001F50AE50B3400F50B1226C0E50A9AE570
:1023E3000B9B409002368A74F5120360EAFEEBFF02
:1023F300740B120A9512341E750A01EC4D602BEC16
:10240300126495ED12547E1234D87901120ADEE576
:10241300084509606F850882850983A3126483795F
:1024230002AA08AB09120ADE805AE5084509602BA7
:10243300125482123B4C12341A12282A700CEEFAF0
:10244300EFFB120AE4E9F50A80CBEE2403FA122724
:102453006270317903EEFAEFFB80CA8E828F83A319
:10246300E064FE7003A3E0F4700BEE24030A0A0A8F
:10247300122762700CEEFAEFFB120AE4E9F50A8008
:1024830003750A00A90A7F0302057974F712036032
:1024930090033412345AEA4B602FEA75F00BA4FA16
:1024A300A8F075F00BEBA428FBEAFEEBFF12151660
:1024B30090033612345A9003361247526012EEFCE0
:1024C300EFFD790012147A8007900336E4F0A3F04D
:1024D30002344A900334123EBCC3EE98EF9922C0F3
:1024E30082C083EC4D6005121CBA80097C087D0014
:1024F300790012147A02341274F61203607900EA36
:102503004B6018780088081257C5EB125B4E6004C5
:102513007901780808E8C3940840EA0234E974F7BB
:1025230012036074F31208D3ECFEEDFF8518828565
:102533001983E4F004120A95EAF0A3EB124C7E74BB
:1025430003120A95AC82AD83EEFAEFFB120AF6EEA4
:10255300FAEFFB120AFC02344574F712036074F3BA
:102563001208D3ECFEEDFF851882851983E4F0EAA7
:10257300FCEBFD7403120A951228FA7401120A95F2
:102583001234D48E828F831234E074FE6870037425
:10259300FF69600479018002790002344574F712FF
:1025A3000360EAFEEBFF1225FE70141226098E82E9
:1025B3008F83E0F4F88A828B83E058F0120AD2A961
:1025C3000802344A74F7120360EAFEEBFF75080051
:1025D3008E828F83E060221225FE701D1226098AE7
:1025E300828B83E08F838E82F8E058700CE0F88A48
:1025F300828B83E048F0120AD280C4120AD8E9F52C
:1026030008740165082212648E122811122753FAE6
:10261300A3E039FB2274F41203608A088B097C005F
:102623007D001226B81227E71227781264807900FA
:10263300850882850983A3E064FE7003A3E0F46048
:10264300717E007F008062EEFAEF1222DE6057EEA9
:10265300FAEFFBEA75F00BA4FAA8F075F00BEBA404
:1026630028FB900336E02AF50AA3E03BF50B850827
:1026730082850983A3124BCC850A82850B83A3E051
:102683006A7003A3E06B701EE50A2403FAE50B12DC
:102693002763700AE50A2403FCE50B1227E41227DB
:1026A3006C79011254941230571226C0EE9AEF9BA4
:1026B300409502368AEA24030A0A0AEB229003347D
:1026C30012506BC32274F31203608A088B098A8247
:1026D3008B83A3126483122767126480750C001224
:1026E30026B812276370547E007F00804912274565
:1026F300FAA3E0398A82F583E0540F603612274546
:10270300F50AA3E039F50BE50A2403FCE50B1227D0
:10271300EE3400FB121CB4E964017017850A82854C
:102723000B83A312512CA31234E012276C750C01F6
:102733001254941230571224D640B2A90C7F0502CA
:102743000579EEF8EFF9E875F00BA4F81227532298
:10275300AAF075F00BE9A42AF9900336E02822EFDA
:1027630012283A22126494EB2212277812548FEE25
:10277300F0A3EFF022E508126495E5092274F5123F
:102783000360EAFEEBFF8E828F83A31264837C00D7
:102793007D00EE24030A0A0AEF1227E7EEFAEFFBA5
:1027A300120AD8E9F50A7401650A702912648E12B7
:1027B300280DAAF075F00BE912281F850882F5830E
:1027C3001227F912282A700DE5082403FCE50912E3
:1027D30027DB1227E70224873400FDEE2403FAEFF8
:1027E300221227EE3400FB120AF6223400FDE5081C
:1027F3002403FAE50922A31227FE2212280222E06B
:10280300F8A3E0F98E828F83A322122811223400C9
:10281300F583123EC0E875F00BA4F822122759F590
:1028230008A3E039F50922E8F0A3E9F0E508240359
:10283300FAE50912283A221228406401223400FBE7
:10284300120AFCE92274F312036074E61208D3122D
:102853006479750C01750800750900750A00750B1C
:1028630000851882851983E4F0EE2403FCEF34001D
:10287300FD7403120A951228FAE964017023740B9C
:10288300120A951234D87401120A95124BD07003B0
:10289300A3E0696051851882851983858208858341
:1028A30009740D120A95E4122901740E120A951285
:1028B30034E0740D120A95AA82AB83120B1AE964F1
:1028C30001700B740D120A9585820A85830B780AB1
:1028D30012082CAC08AD09EEFAEFFB120AEA7402F7
:1028E30012083FE9F50CEEFAEFFB120B14A90C7476
:1028F3001A12083F022740122BCD120B202212344A
:1029030055123EBC22C082C0837800790080031236
:1029130029F81226C0E89AE99B5029E8FAE9FBEA6C
:1029230075F00BA4FAACF075F00BEBA42CFB900341
:1029330036E02AFCA3E03B8C82F583E0540F70CF92
:10294300790080027901023412C082C0839022761A
:10295300123F12EC75F012A4FCA8F075F012EDA46E
:1029630028FD79FF7A257B0B12147A02341274F74F
:10297300120360E9FEEAFF7A007B007800790080A9
:1029830028E8FCE9FDEC75F012A4FC85F00875F06D
:1029930012EDA42508122E0DC39E400AE0FCEFC3DE
:1029A3009C4003122F2C1229F8122E0140D302341B
:1029B3004AC082C0837800790080031229F8122963
:1029C300EC501F122E11F470F2E875F012A4F8AA5D
:1029D300F075F012E9A42AF9742528FA740B39FB6F
:1029E30080047A007B00023412902276122EC2C336
:1029F300E89AE99B22E8240108E93400F92274F0FB
:102A030012036074F31208D38A0A8B0B8C0C8D0D9E
:102A13008908EC450D6016AA0CAB0D120B6E8A0EDD
:102A23008B0FAE0EAF0FEE4F6003022ABF120B44A3
:102A33008A0E8B0FA80EA90FE8FEE9FFE849607C18
:102A4300902284122B2160227403650860067404AB
:102A5300650870167A047903120B3E902284122BB8
:102A63003840077A007B00022B1E902282122B2112
:102A7300601B74016508600674026508700F7A02B2
:102A83007901120B3E902282122B3850D685188280
:102A93008519837401F0120A95124EF8AC0CAD0D32
:102AA3007403120A95122BC6740B120A951234265C
:102AB3001238C0E4124EE01210128004EE4F604A46
:102AC300780074FF2508C39404500278048E828F23
:102AD30083124EF88E828F83A3A3A3A3E508F0E8A5
:102AE3008E828F83A3A3A3A3A3124F0012020F12FC
:102AF3002ED98E828F83A3A3A3A3A3A3A3F0122E05
:102B0300D0120A72125478120A7E122B26400590B4
:102B13001081E4F0120EECEEFAEFFB023EC6125007
:102B23001A49227A047900120B3E902276125B3402
:102B3300EA98EB9922122B51758322758276E493DE
:102B4300C398F8A3E49399F9C3EA98EB9922E49321
:102B5300F8740193F92274F212036074F31208D328
:102B63008A088B09ECFEEDFF750A00EEFAEFFB1203
:102B73000B6E8A0C8B0DA80CA90DE849603E888268
:102B83008983E065087004A3E06509602F88828962
:102B930083A3A3A3A3E0C39405502112532685184E
:102BA300828519837401F0120A9512532AEEFCEF01
:102BB300FD7403120A95122BC6750A01A90A740D36
:102BC3000249C4122BCD120B2C22AA82AB83120A08
:102BD300F6851882851983AA82AB832274F61203C1
:102BE30060122C1B600FA3A3A3A3E014C39404508F
:102BF300047901800279000234E974F61203601249
:102C03002C1B600FA3A3A3A3E014C3940250047965
:102C130001800279000234E9120B688A828B83E512
:102C23008245832274F6120360122C1B600BA3A34C
:102C3300A3A3E070047901800279000234E9C08221
:102C4300C083EAFCEBFD7A007B0002340FC082C034
:102C5300837C007D0002340F74F412036074F3125A
:102C630008D3EAFEEBFF8C0A8D0BC3EC94F8ED94CA
:102C7300FF4007EE4F7003022D147508007509001D
:102C8300802E8518828519837401F012307F120A11
:102C93009512308D60137403120A95AC82AD83EEE6
:102CA300FAEFFB121CB4E97049E5082401122EADBA
:102CB300902276E4125022E50898E509995052E5EE
:102CC3000875F012A4F8AAF075F012E509A42AF920
:102CD300125B6760D4EE4F70A974FF650A700474C9
:102CE300FF650B60C412306F650A7004A3E0650BC7
:102CF30070B7E50875F012A4F508A8F075F012E5B1
:102D030009A428F50974252508FA740B3509FB80F5
:102D1300047A007B0002368574F412036074F312A4
:102D230008D3750800120B6E8A0A8B0BAE0AAF0B21
:102D3300EE4F602A851882851983740112344FF887
:102D4300A3E0F9740B120A95123563120B0E7C1271
:102D53007D0079FFEEFAEFFB12147A750801122B4E
:102D63002650099010817401F0120EECA908023666
:102D73008574F7120360E9FE74FE6A700374FF6BD7
:102D830078007900700580521229F8122E01504AFA
:102D9300E8FCE9FDEC75F012A4FCAFF075F012ED60
:102DA300A42F122E0DF460E0E8FCE9FDEC75F0129F
:102DB300A4FC75F012EDA42FFD74252CF582740B81
:102DC3003DF583E06A7003A3E06B70BC8009122EAB
:102DD3001114C3940440171229F81229EC5018EE69
:102DE30070EC122E1164016005E0640370E9123087
:102DF30060FAA3E0FB80047AFE7BFF02344A902250
:102E030076123F16C3E89CE99D22122F6122E8FA4D
:102E1300E9FBEA75F012A4FAACF075F012EBA42CFE
:102E2300FB74292AF582740B3BF583E022120B8095
:102E3300023412C082C083790180F274F0120360FD
:102E43008A0A8B0B7A047901120B3E8A0C8B0DEAEA
:102E5300450D603EEAC333FAEB33FB1215168A08BD
:102E63008B09AE08AF09EE4F60237AFE7BFF120B8E
:102E73008674FE6A700374FF6B601B850882850984
:102E83008312345AE5082402122EAD80E1750C003A
:102E930080047E007F00850A82850B83E50CF0EEBB
:102EA300FAEFFB023ECBE5082407F508E5093400F9
:102EB300F50922902276123F16C3EA9CEB9D22E489
:102EC30093FA740193FB2212146E74032212548931
:102ED300E4F090877C22E88E828F83A3A3A3A3A32D
:102EE300A3A3A3122EFB7401122EFBA3F0EE241056
:102EF30012548CE4F0A3F0221238CCA3A3A322C073
:102F030082C0837A007B00800419122F2C122EB604
:102F13005010122F4BC3940550F0E970EC122F356B
:102F230080047A007B00023412EA24010AEB3400A5
:102F3300FB22EA75F012A4FA75F012EBA428FB74D5
:102F4300252AFA740B3BFB22EAFCEBFDEC75F0122D
:102F5300A4FCA8F075F012EDA428122F6122FD74D1
:102F6300292CF582740B3DF583E02274F71203607C
:102F730074F31208D37E007F00023013E50875F066
:102F830017A4F8A9F0125DC8FAA3E0FBEEF8EFF975
:102F9300E875F012A4F8ACF075F012E9A42C123025
:102FA3006E6A7003A3E06B603FE50875F017A4F841
:102FB300AAF0EA125DC7F8A3E0F97401120A95E0DA
:102FC300687003A3E0696020E50875F017A4F8EAC8
:102FD300F974A128FC740C39FD7403120A95AA82B2
:102FE300AB83121CB4E96014E50875F017A4F8A9C3
:102FF300F0749F28FA740C39FB12101E05089022F6
:1030030088E493F8E508C3985003022F7F123057E2
:1030130090227612610E5039EEF8EFF9123060F417
:103023007003A3E0F460E68518828519837401F0C8
:10303300EEF8EFF9E875F012A4F875F012E9A42A96
:10304300F912307F120A9512308D60C17508008025
:10305300AD023445EE24010EEF3400FF22E875F093
:1030630012A4F8AAF075F012E9A42AF91230732217
:10307300742528F582740B39F583E022742728F52B
:1030830082740B39123EBA740B22E8F0A3E91235AD
:103093006B120B26E922C082C08390033D74DEF0DD
:1030A300A3740DF090033F74D8F0A3740DF0900354
:1030B3004374F8F0A3740BF002341274F712036034
:1030C300EAFEEBFF900377E06408601BE0640460B2
:1030D300168E828F83E054036401704812341912F0
:1030E30039C1E06406703D8E828F83A3A3E064FE42
:1030F3007003A3E0F4602D8E828F83A3A31234D4D4
:10310300900368E0687003A3E069700BEE2415F583
:1031130082EF125B4E6008120E8CE9F508800812EC
:103123000E9280F67508C2EEFAEFFB12151C02250B
:10313300C274F41203608A088B098A828B83E0F8D5
:10314300A3E0FAE82AFAE43400FB1215168A0A8B84
:103153000BAE0AAF0BEE4F6063850882850983E0EF
:10316300FC7D00790012147A8E828F83A3A31264EC
:1031730083120ECE8E828F83A3A3A3A312345A8508
:103183000882850983E0F8EE28F8EF34001234DC76
:10319300850882850983A3E0C0E0EE240D12547BE9
:1031A300D0E0F0120EE0EE240E12547BE9124B2D08
:1031B300E0C0E0EE241112547BD0E0F0EEFAEFFB16
:1031C30002368A74F612036074EB1208D3EAFEEB3C
:1031D300FF12474F600302326A7A077B001215160B
:1031E30090033912345A12474F60788E828F8312BC
:1031F3000A7290033A1239C4120A7E126347C0E07E
:10320300123276D0E0F0EE2405FAEF3400FB8A08A0
:103213008B098A82F583E0C0E0123271D0E0123666
:1032230081E0C0E0123271A3D0E01234C6120A72F8
:10323300851882851983120A7E88828983E0C0E01B
:103243007405120A95D0E0F0850882850983E0C0F1
:10325300E07404120A95D0E0F07407120A95123351
:10326300AC800679108002790174150234E61232BB
:1032730076A322900339E0FAA3E0F5838A82A3A31D
:10328300A3A322C082C08312474F600D900339125B
:103293005059900339E4F0A3F0120DFC120FBE0253
:1032A300341274F012036074EB1208D3ECFEEDFFDA
:1032B30089087425120A95780C120A387429120A9F
:1032C30095E0F9742A120A95E0FC742B120A95E032
:1032D300FD740F697005740F6C60129010C6E06482
:1032E30002700579C10233A7E9C39C40F6900378C5
:1032F300780C120A56E50890037EF0E990037CF0FF
:10330300ECA3F0ED90037FF074FF6A700374FF6B1E
:10331300701D9010D1E0F47003A3E0F47005121453
:103323008C800C9010D112342FE8F0A3E980079021
:103333000375EAF0A3EBF0EE4F6017EEFAEFFB1222
:10334300107EE96401700BEEFCEFFD7A897B0312BA
:103353001CBA900368E4F0A3F090036BF0A3F09021
:103363000388F09010C6E06402700890037C740F29
:10337300F0A3F09003777405F014120A95E4F0902B
:103383000378120A72851882851983120A7E9003C4
:103393007EE0C0E07405120A95D0E0F07407120ACB
:1033A300951233AC7415023EC8E412356B121CE45B
:1033B30022C082C083900338E070031217B6120B49
:1033C300C8804CC082C083900338E09010807004A2
:1033D300E4F0802D7401F0900338E0F460237C4125
:1033E300E0C394415002E0FCECF8E0C398F0EC75C4
:1033F300F0E8A4CCA8F075F003A428FD7A80123F6E
:103403001E7A807B107941121CD28003120B74D078
:1034130083D0820207F1EE12548A22E0F508A3E07A
:10342300F5092212342A22122802A322123EBC904A
:1034330003752274F7120360EB90037FF0120DEA19
:103443008005740D12083F7F01020579123455A3DC
:10345300E0221234C6A322EAF0A3EBF02274F7129F
:10346300036074F81208D3EAFEEBFF790090037748
:10347300E06408704485188285198374FDF0A37491
:10348300FFF0120EC87402120A9512345A74051210
:103493000A95E4123455E0C0E07404120A95D0E0B2
:1034A3001234C1C0E07406120A95D0E0F07407121A
:1034B3000A95E4123567120F0A740802344712346E
:1034C300C6E022F08E828F8322F0851882851983CD
:1034D30022123EBC22E0F8A3E0F9125489E8F0A3DB
:1034E300E9F02212083F7F02020579C082C083906F
:1034F30003497488F0A3740CF09003EF7464F0A391
:10350300740FF090034D74BEF0A3740CF090034F4E
:103513007488F0A3740CF090035174C4F0A3740C7A
:10352300F002341274F412036074F91208D38A0897
:103533008B098C0A8D0B8518828519837808120AEA
:10354300567404120A95E9F07405120A95E4F074AE
:1035530006120A95E4123567120BB0740702368718
:10356300E8F0A3E912356B221234CCAA82AB832292
:1035730074F41203608A088B098A828B831254972E
:10358300EE4F700302367F90031212475260158A82
:10359300828B83A3A3E0F9EEFAEFFB9003131239B6
:1035A300C4121E938E828F83A3A3A3A3A3A3A3A357
:1035B300A3E0640270748E828F83A3A3A3A3A3A347
:1035C300E054027003023651850882850983A3A360
:1035D300E064E960798E828F83A3A3A3A3A3A3A34B
:1035E300A3A3A3E070149010C9E0048E828F83A379
:1035F300A3A3A3A3A3A3A3A3A3F08E828F83A3A3B5
:10360300A3A3A3A3A3A3A3A3E014123681A3A3A3F9
:103613007404F09010CA124ED2E8F0A3E9125FAB23
:103623008B0BEA450B70031259898E828F83A3A3F8
:10363300A3A3A3A3A3A3A3E0640260128E828F8338
:10364300A3A3A3A3A3A3A3A3A3E06406702E8E82C4
:103653008F83A3A3A3A3A3A3E0A2E0501F850882A3
:10366300850983A3A3E0F9EEFAEFFB121D748E82A2
:103673008F83A3A3A3A3A3A3E054FEF0800912386E
:10368300C822740D12083F7F0402057974EC1203FB
:103693006074DD1208D3EAFEEBFF8C088D097437E2
:1036A300120A95780C120A38750A007405120A95E5
:1036B300AC82AD83120AAE7412120A95E0700874DC
:1036C30015120A95E060207405120A95E0A2E650EF
:1036D3001E8E828F83A3A3A3A3A3A3A3A3A3124B8F
:1036E300CC120F40E960087903121CA20238AE74B1
:1036F30005120A95E0540C64047005750B018003F0
:10370300750B00E0A2E55035750A01E50BA2E04018
:103713002C120ECE8A108B11A810A911123419E0A5
:10372300687003A3E06960157405120A9512648A30
:10373300124BC8121D80E96004790480AC74051231
:103743000A95E0A2E650227406120A95E05403702B
:10375300187405120A95E0540C640C600CE0540CC8
:103763006408600575100180037510007405120A62
:1037730095E05403F8740268700C12648A124BC803
:10378300120AC00238AE740168703AE510A2E05024
:10379300031238B67405120A95A882A9837403121A
:1037A3000A95E8F0A3E9123EB085188285198312C1
:1037B30038C0E0C0E07402120A95D0E012356712F7
:1037C3001E640238AEE860030238AE90035FE06423
:1037D3000170108E828F83A3A3A3A3A3A3E070031E
:1037E30002373C7422120A957402123EB0741A1204
:1037F3000A951234E0E510A2E050087405120A9508
:103803001238B6E50BA2E0506AEE240FF582EF12F0
:103813005B4EC0E07417120A95D0E0F090031412C7
:10382300475270030238AE120ECE8A128B13A812BF
:10383300A913741A120A95E0687003A3E069706B08
:10384300780C120824780A120830780812082CA978
:1038530010740C120A95AC82AD837421120A95AAD6
:1038630082AB839003141239C1121E93740712089A
:103873003F8038780C120824780A1208307808122E
:10388300082C900375120648EE2412F582EF1258A5
:103893007C7423120A95AC82AD83740E120A95AA26
:1038A30082AB83121D68740912083F742312083F08
:1038B300025F7612648A125067120AB422E8F0A3F8
:1038C300E91238C8221238CC22F08E828F83A3A348
:1038D300A3A3A3A32274F71203601216A202344A0D
:1038E30074F71203601216A802344A74F7120360C5
:1038F3001216B402344AC082C0831216AE023412C6
:1039030074F71203601216BA02344A74F712036092
:103913007409120A95E0F50878081208301216C6E1
:103923007401023447C082C0831216D2023412C01B
:1039330082C0831216D802341274F712036012166F
:10394300DE02344A74F7120360EAFEEBFF8908745F
:1039530001650870147900120D00902293E493FC22
:103963007900EEFAEFFB120C7602344A74F4120378
:103973006074F91208D3E9FE8A088B098C0A8D0B4F
:103983007413120A95124BCC900599124752602773
:10399300EE851882851983F07401120A957808124E
:1039A3000A56EAF8EBF97405120A95123563900585
:1039B300991239C1121E9302355EFB90034BE0F856
:1039C300A3E0F583888222C082C08312170E0234DB
:1039D3001274F7120360901083E0F97E00800B12DB
:1039E3005B3A540D64017001190E123BCE5003E98A
:1039F30070ED02344A74F7120360901084E0F97E8C
:103A030000800B125B3A548D64817001190E123BD6
:103A1300CE5003E970ED02344A74F2120360890B4D
:103A2300E975F006A4240CF508E5F0122EB18A0C12
:103A3300E508250CFAE5093400FB1215168A0C8BF0
:103A43000DAE0CAF0DEE4F6027AC08AD0979001237
:103A5300147A123419E50BF0EE2508F8EF3509F95D
:103A63008E828F83A3A3A3A3A3A3A3A3A31234E050
:103A7300EEFAEFFB0249C774F6120360EAFEEBFFAE
:103A8300120C52901082E0F8E9C398400990034564
:103A9300124BCC120C58EE2402F8EF1251DC9003B7
:103AA30047125096900347E004F0EEFAEFFB120C36
:103AB3005E850882850983E0025692C082C08379BD
:103AC30000900345800109124BCC8A828B83E582E7
:103AD300458370F202341274F7120360EAFEEBFFBF
:103AE300EE4F6056900345124752604E8882898399
:103AF3007A007B00EE65827003EF6583600FAA8214
:103B0300AB83123B40E5824583602F80E7900345FA
:103B1300123B4C687002EF698E828F8370081234F7
:103B2300D49003458003125F881234E0EEFAEFFB72
:103B3300121E34EEFAEFFB12151C02344A123B44F8
:103B430022123EC08882898322123EBCEE22C082AA
:103B5300C083900345800488828983124752600B97
:103B630088828983124204EC4D70EC8A828B83E451
:103B7300F0A3F0E8496006888289838003900345B7
:103B830012345A02341274F712036090034580040E
:103B93008A828B83123BC94B60257E0080010E1203
:103BA3003BCE50ECEE75F006A4FCADF0EA2CFCEB3A
:103BB3003DFDEC2410F582ED123C1E70E180047A89
:103BC300007B0002344A12506BEA22123C27EEC3F8
:103BD300982274F71203607D0080010D123C23EDDF
:103BE300C3985034ED75F006A4FEA8F0E8FFEA2E62
:103BF300FEEB3FFFEE2410F582EF123C1E70DCED6E
:103C030075F006A4FEE8FFEA2EFAEB3FFBEA241167
:103C1300F582EB125B4E4CF002344A125B5A692276
:103C2300123C2722126494EB3400F583E0F82274EB
:103C3300F6120360120D787A007B008025EAF8EB18
:103C4300F9E875F006A4F8ACF075F006E9A42C12B7
:103C53005040126355A3E4125136F0A312635B1272
:103C630064D290227E122B3040D37A007B00801CDA
:103C73008A088B09740378081209D4124AF4A374CE
:103C8300FEF0A304124F16A3E41264D2902287120B
:103C93003CD140DC7A007B00801D8A088B097403C9
:103CA30078081209D474C71257C6740F12600D74C2
:103CB300FEF0A3041264D290228D123CD140DB901B
:103CC3002291E493900353F0123CDB0234E9E49332
:103CD300F8C3EA98EB9400227CE87D037A107B001A
:103CE3009003C2E0F91215D02274F012036074F548
:103CF3001208D38A088B09890A8C0BE9A2E05014B5
:103D03007508FC7509FFA2E15005D2E4023DAED26D
:103D1300E3023DAE1249B37003A3E0697005790075
:103D2300023E7BAC0A7902AA08AB09120D54E96082
:103D3300EDE50AF50C780C12083079027CFE7DFF64
:103D4300AA08AB0912472E12083FE96003023E7925
:103D5300E50AC2E5F50A9003B5E07051E50AA2E66B
:103D6300404B7403120A95AC82AD83AA08AB0912C7
:103D73000B02E9703212404F8A0C8B0DA80CA90D6F
:103D8300E8FEE9FFE8496025EE24020A0AEF12285B
:103D930040601AEE2402FCEF3400FD7403120A950E
:103DA300AA82AB83121CBAE50AD2E5F50A9003484E
:103DB300E0F50C900368E0F50EA3E0F50F780E1222
:103DC300082C7D017C00900348E0F9AA0EAB0F128A
:103DD3000D0C740212083FE9F8900348E004F0E880
:103DE3006003023E79E50AA2E55004740E80027472
:103DF30006C0E07401120A95D0E01254A88A0E8B13
:103E03000FAE0EAF0FEE4F6069123E99123EB088AF
:103E13008289837401F07478550AA312649AE50CBD
:103E230012649AA3E508F0E509123E88E4F0E50A76
:103E3300A2E5500F7403120A95AC82AD83E8240601
:103E4300123E7F8E828F83A3A374FDF0A374FFF0D1
:103E5300E50B6015902294E493F8E50BC3985009A1
:103E6300EE241312547BE50BF0EEFAEFFB120BA4D6
:103E730080067910800279C7740B8049FAE934000F
:103E8300FB121CBA2288828983A3A3A3A3123E94A4
:103E93002212520FA322EE241712548C7401F01233
:103EA3000EC8EE241A12548CEAF0A3EB22F012642B
:103EB3008E3400123EBA22F583123EC022E0F8A3EC
:103EC300E0F922740D12083F7F0802057974F61297
:103ED30003607A007B1012599660089003D4740132
:103EE300F0802990063AE064019010C77006E0FC68
:103EF30079018004E0FC79037A007B00120C769050
:103F0300227C123F127A007B10123F200234E91206
:103F13003F1622E493FC740193FD227B009003C2BD
:103F2300E0F91215CA2274EC1203608A088B098C1B
:103F33000C8D0D890E7414120A9512490D74161204
:103F43000A95E0F510A3E0F511120F40E960077A36
:103F5300FF7BFF02404C9010C6E064026003024006
:103F63003F7900AA08AB09120D5AA90E120D4E8A09
:103F7300128B13AE12AF13EE4F70030240278E82E3
:103F83008F83A3A3A3A3A3E064018E828F83A3A340
:103F93007069124BCC8E828F83A3A3A3A3A3A3E048
:103FA30054186043902292E4938E828F83A3A3A339
:103FB300A3F0EA650C7003EB650D6014EA650A7003
:103FC30003EB650B600AEA65107003EB6511701F64
:103FD300781012082CAC0AAD0BAA0CAB0D12103CD6
:103FE300740212083F8008900367125980A3F0748B
:103FF300FE6A700374FF6B601D804EA3A3A3E0648D
:104003000360298E828F83A3A3A3A3A3E064047018
:10401300057AFE023F548E828F83A3A3A3A3A3E05A
:10402300640270089003B4E06402701012404F8B76
:104033000BEA450B6006AA08AB09800DAA08AB0979
:104043009003491239C1121E93025F7690037512D1
:1040530047341210002274F7120360EAFEEBFF12DA
:104063000B56E9700AEEFAEFFB120B62E96006EEFB
:10407300FAEFFB80047AFE7BFF02344A74F01203EA
:10408300608A0A8B0B8C0E8D0F8909750800120F3D
:1040930040E9790060030241F6AA0AAB0B120D5AFC
:1040A300A909120D4E8A0C8B0DAE0CAF0DEE4F60AD
:1040B300198E828F83A3A3A3A3A3E06402705590F8
:1040C30003B4E0640270030241F4AA0AAB0B900349
:1040D3004F1239C1121E93120B688A0C8B0DA80C58
:1040E300A90DE84970030241F488828983A3A3A33D
:1040F300A3A3E0A2E040030241F4750C01A2E15046
:10410300687901AC0AAD0BAA0EAB0F120CA6E970CD
:10411300640241F48E828F83A3A3A3A3A3E0640369
:104123007005750C0280528E828F83A3A3A3A3A371
:10413300E0640160030241F49003751242048E822D
:104143008F831245598A0C8B0DA80CA90DE8496081
:10415300D190228BE493FA88828983E0C39A50C278
:10416300A3E060030241F480B988828983A3A3A3F7
:10417300A3A3D2E1F0EE4F603A8E828F83A3A3A371
:10418300A3A3A3E05418602B7508018E828F83A329
:10419300A3120648750CFE750DFF780C12082C79D6
:1041A30000AC0AAD0BAA0EAB0F120D6C740412080F
:1041B3003F803E900368E0650E7004A3E0650F70D6
:1041C30014902293E493FCA909AA0AAB0B120C7670
:1041D300750801801CA90CAC0AAD0BAA0EAB0F121B
:1041E3000CA6E9700C750801A909AA0AAB0B120DFC
:1041F30000A908023ECBE50C2415F582E50D125407
:104203008F124EEC2274EA12036074F01208D38A00
:104213000C8B0D8C088D097426120A95E0F514A3F6
:10422300E0F5157512069003F512475260239003CB
:1042330075124204AA08AB0912102A8A108B11EADC
:104243004511600D8A828B83A3E0700579000245D6
:1042530041E50C241DF50EE50D3400F50F850E82A6
:1042630012473EF51388828983A3A3A3E0FA8882C9
:104273008983A3A3A3A3E0F9EA2400FEE439FFAAF8
:1042830008AB09120D06850E82850F8312457CE06B
:1042930029F50BE50AA2E5500375120E7487550A3A
:1042A30070177418550A6418600FE50C2417F5820B
:1042B300E50D125B4E651260077901121CA2808C1A
:1042C300530A78C3EE94F8EF94FF501D7900EEFA89
:1042D300EFFB12454B601288828983A3A3A3A3A398
:1042E300A3E05418600302424F780812082C7D00A3
:1042F30012456F12083FE9F8740368700302424FD6
:10430300E860030243BA7418550A700302446FE568
:104313000AD2E0F50AA2E45004D2E1F50AA90A128E
:104323004BC512454B605388828983A3A3A3A3A3E0
:10433300A3E05418604488828983A3A3A3A3A3E0C2
:1043430064017036E5104511603090037512420424
:10435300888289831245598A0E8B0FA80EA90FE80C
:1043630049601788828983A3E0600F8510828511D5
:1043730083A312569D500302424FE50AF50E780EB1
:1043830012083012456212083FE9702B7C007D0051
:1043930085148285158374FFF0A3F0850C82850D47
:1043A30083A3A3A3A3A3A3A3A3E060031241F9A937
:1043B3000B124BC51216CC851482851583E0F4705D
:1043C30003A3E0F460399003B4E064027003024293
:1043D3004F1248FEE0FAA3E01239BD121E93EA65BC
:1043E300087003EB6509600302424FEEFAEF1239DE
:1043F300BD121E93851482851583EAF0A3EBF07832
:104403000812082C7D0112456F12083FA90AEEFA23
:10441300EFFB120D5A8A088B09A808A909900368B3
:10442300E0687003A3E0696003024532EEFAEFFB34
:10443300120B688A088B09A808A909E849606E88E5
:10444300828983A3A3A3A3E06401600D8882898387
:10445300A3A3A3A3E064027054851882851983ACD7
:1044630082AD83EEFAEFFB120B028055900361E0FD
:10447300600FE50AF50E780E120830124562120835
:104483003FE50AF50E780E12083079027CFE7DFFB7
:10449300EEFAEFFB12472E12083FE960030243BA1C
:1044A30085148285158374FFF0A3024401120EC89C
:1044B300EAFCEBFD851882851983AA82AB83121C63
:1044C300BA850C82850D83A3A3A3A3A3A3A3A3E00F
:1044D3006401700F1241F97408120A95AA82AB8322
:1044E300121CBA1247081253144430F50878081204
:1044F30008307401120A95858208858309780812A9
:10450300082C740B120A9585820885830978081292
:10451300082CE513F50878081208307900EEFCEF53
:10452300FD124BC5120CA0740612083F02424F1233
:10453300470812547E12457CE50BF0120EE074100E
:1045430012083F7F0E020579120D4E8A0E8B0FA8BB
:104553000EA90FE84922A3A312506B12102A227945
:1045630001AC08AD0912506012472E22AC0BA913FF
:10457300125060120D0C74022212531CA3A3A3A3A6
:104583002274F012036074F01208D38A0C8B0DECC2
:10459300FAEDFB750F089003F5124752601412569B
:1045A300968A828B83E58245836007A3E0700302CA
:1045B3004703124708340012473EF50B888289836C
:1045C300124711E0FBEC2400FEE43BFF8882898361
:1045D300A3A3124711A3A3E0FBECF508E43BF50901
:1045E30088828983A3A3A3A3A3A3A3E0F50EE50A6B
:1045F300A2E45003750F10A2E550067408250FF5C9
:104603000F748F550A700FE50C2417F582E50D1210
:104613005B4E650F60087901121CA2024703530A1F
:10462300707800E50AA2E45022124708125B4E2478
:1046330008FCA3E03400FD7408120A95AA82AB8338
:10464300121CBA7808E50AC2E4F50AE50AA2E550A5
:1046530028124708125B4E28F8A3E03400F9E82437
:1046630008FCE93400FD851882851983AA82AB838F
:10467300121CBAE50AC2E5F50AAC0EA90BEEFAEF75
:10468300FB120D12E9F87403686075900368E06E1D
:104693007003A3E06F605EE87054E50AF50F780FCE
:1046A30012083012471F12083FE97054780A1208A3
:1046B300307401120A9585820C85830D780C1208DB
:1046C3002C740B120A9585820C85830D780C1208C5
:1046D3002CE50BF50A780A120830A90EAC08AD09CF
:1046E300EEFAEFFB120CA0740612083F801274045A
:1046F30068700D80B7780A12083012471F12083FFE
:104703007410023EC8E50C241DF582E50D22A3A317
:10471300A3E0FC88828983A3A3A3A322790112497E
:104723000512548F12473412472E22120CCA7401F9
:1047330022E0FCA3E0FDAA08AB0922F583123B4467
:10474300A3E0F50A88828983A3A3E02290033912A8
:1047530050C72274E812036074F51208D3EAFEEB23
:10476300FF8C088D0989147423120A95E0F50F74E0
:1047730024120A95E0F512A3E0F5137426120A95A4
:10478300E0F516A3E0F5177428120A95E0F50EA9D3
:104793000F120D188A108B117401120A957408F008
:1047A300E50EA2E450037410F0E50EA2E55004E018
:1047B3002408F0851882851983AA82AB83120F28F7
:1047C3008A0C8B0DEA450D70030248E5EA2417F5C0
:1047D30082EB1248F7120EC8E50C241AF582E50D98
:1047E30012547E12345A7403120A95AC82AD83AA12
:1047F30010AB11120B02E9601D1248EF7403120A89
:1048030095A882A983E50C2418F582E50D12547E40
:10481300E8F0A3E98024E50EA2E4501FE5106E70D2
:1048230003E5116F70151248EFE50C2418F582E5C6
:104833000D12547EE512F0A3E513F01248FE12495F
:104843000D850A82F5837402F0A3E50E124915E57E
:104853000FF0EE850A82850B83A3A3A3F0EF850AED
:1048630082850B83A3A3A3A3124915A3A3A3E508DE
:10487300F0E509850A82850B83A3A3A3A3A3A3F071
:10488300AA10AB11120D06E92514850A82850B8344
:10489300A3A3A3A3A3A3A3F0750800E50EA2E4506A
:1048A30011AC12AD13E50A2408FAE50B123E81752B
:1048B3000808E50EA2E55014AC16AD17E50A250865
:1048C300F8E50B3400F9E82408123E7F850C828555
:1048D3000D83A3A3E510F0A3E511F0AA0CAB0D1211
:1048E3000BA4740B12083F7F10020579E50C241604
:1048F300F582E50D12548F7401F02212490512540A
:104903008F22E50C126495E50D22E0F50AA3E0F58C
:104913000B22F0850A82850B83A3A32274F2120370
:10492300608A088B09ECFEEDFF890A79001249B30E
:104933007003A3E069700479018073750B01900320
:1049430068E065087004A3E06509601F750B0078D3
:104953000B120830A90AEEFCEFFDAA08AB09120FEF
:104963007C740112083FE9F50B80417900EEFAEF00
:10497300FB120D4EEA4B602B8A828B83A3A3A3A366
:10498300A3A3E05418601C7508FE7509FF7808128C
:10499300082C8A828B83A3A31206481262AA1208E8
:1049A3003F80097901EEFAEFFB120C28A90B801462
:1049B300120D5A8A0C8B0DA80CA90D900368E068A0
:1049C3002212083F7F0602057974F412036075080A
:1049D3000F75090E7A10125FB28B0BEA450B700349
:1049E300123CDB900353E014F0700C902291E4939B
:1049F300900353F0120D667E007F00806C85088261
:104A0300850983A3A3A3A3E06059F46056E50824B2
:104A130004F582E50912597A70498508828509836C
:104A2300A3A3A3A3A3E06403701979028508828575
:104A33000983124204850882850983A3A3124BCC00
:104A4300120CA6850882850983A3A3A3A3A3E0640C
:104A530001601085088285098374FEF0A304124B5C
:104A630026E4F0123057122EA990228012610E40D4
:104A73008C7E007F008039120E6E8E088F097403BE
:104A830078081209D474872508FC740F3509FD7A58
:104A9300B27B0C120E5CEA4B70DD8E088F09740337
:104AA30078081209D4124AF4126355E4F01230570D
:104AB300902287E493F8C3EE98EF9400501B8E087E
:104AC3008F09740378081209D4124AFCE82407F505
:104AD30082E912597A70D680A17E007F00800A1283
:104AE3004B07600214F012305712610B40F102368B
:104AF3008A124AFC888289832274872508F8740FF6
:104B03003509F922EEF8EFF9E875F006A4F8AAF0F2
:104B130075F006E9A42AF9742728F582740F39F58C
:104B230083E022124B2DA3A3A322F08508828509DB
:104B330083A3A32274F712036074E11208D3ECFE7B
:104B4300EDFF750800EE4F60728A828B83E0241CB0
:104B53001259AB12475260638A828B83124BCC8506
:104B63001882851983AC82AD83EA241BF582EB128C
:104B7300587CEA241CF582EB124BC8120EB0740B5E
:104B8300120A95124BD07003A3E069702E740212BF
:104B93000A95E064017024741D120A951239C1E06C
:104BA30064017017741D120A951239C3A3A3E0F8A8
:104BB3008E828F83E0687003750801A908741F0251
:104BC30034471249053400F58312506B221227FE35
:104BD300E0682274F4120360E97024790090034DB5
:104BE3001239C1121E938A0A8B0BAE0AAF0B74FEE5
:104BF3006E700374FF6F701A90228EE493601379C2
:104C03000190034D1239C1121E938A0A8B0BAE0A0F
:104C1300AF0B120EEC0231BF74F612036074F31281
:104C230008D312148C8A088B09AE08AF0990036865
:104C3300E06E7003A3E06F60E9120ED4EA6E7002B7
:104C4300EB6F60DEEEFAEFFB120F40E970D4EE4F2C
:104C530060D0851882851983E4F004120A95EEF07A
:104C6300A3EF124C7EE970BA74FE6E700374FF6F8B
:104C730060B0EEFAEFFB740D0234E612356B120BE3
:104C83001A22C082C083120EEC0234127F0A02057C
:104C93007974F2120360EAFEEBFF8C0A8D0B89082C
:104CA300740E120A95E0F50974FC6E700374FF6FBD
:104CB300700579000249C77900120D5A8A0C8B0DD1
:104CC300AE0CAF0D900368E06E7003A3E06F700647
:104CD300E509A2E650DCA909126198706179007AAE
:104CE300FE7BFF1261987056741855097003024DCC
:104CF300CB7800790080031229F89022801229EFE3
:104D03004003024DCBE8FAE9FBEA75F007A4FAACDD
:104D1300F075F007EBA42CFB74152AF582740E3B97
:104D2300F583E0541870D0E875F007A4F8AAF0757D
:104D3300F007E9A42AF9740F28F8740E39F9888268
:104D43008983A3A3A3A3A3A3E054186009741855EC
:104D5300097003024CB588828983EEF0A3EFF074E7
:104D6300FE650A700474FF650B6003124EF28882BD
:104D73008983A3A3A3A3A3A3E509F0A2E0500D880D
:104D8300828983A3A3A3A3A3A3D2E2F0740165083A
:104D930088828983A3A3A3A3A370387401124F1637
:104DA300E054186028902292E49388828983A3A315
:104DB300A3A3124EE012102A8B0DEA450D600302E5
:104DC3004CB57800790080397902024CB7900367BB
:104DD300E080D7E064017003024CB588828983A325
:104DE300A3A3A3A3A3E054186007902292E49380A3
:104DF30004900366E0123E88E508F0024CB51229E0
:104E0300F8902288E493FAC3E89AE99400400302F5
:104E13004CB57A007B00804BEAFCEBFDEC75F007A8
:104E2300A4FCAEF075F007EDA42EFD74112CF582F1
:104E3300740E3DF583125497E8FCE9FDEC75F01709
:104E4300A4FC85F00975F017EDA42509FD749F2CCA
:104E5300F582740C3DF583E06E7003A3E06F609EF2
:104E6300122F2C902280122EB940AD123F12EC6A01
:104E73007002ED6B7088E875F017A4F8AAF075F06E
:104E830017E9A42AF9749F28FE740C39FF7C177D57
:104E9300007900EEFAEFFB12147A8E828F83124EA2
:104EA300F8900375124ED2A3A3A3A3A3A3E8F0A380
:104EB300E9124ED87401F0EE240E12547B740112E1
:104EC3004F0012020FEE240D12547BE8024DFD1227
:104ED300342AA3A322F0EE240F12548C22F0124E94
:104EE300E9AA0AAB0B22900375E0FCA3E0FD22883C
:104EF300828983A3A3E50AF0A3E50BF022F0124F06
:104F0300052290228BE4932401F8E43400F97A0219
:104F13007B0022123E94A32274ED1203608A088B55
:104F230009890E12504940057905025017121714CA
:104F3300AA08AB0912511B90227E12501A650A70FF
:104F430003E9650B70077AFE7BFF12511B90227EEB
:104F5300E4125022E50A98E50B994003025015121A
:104F630050266012E50A75F006A4F875F006E50B05
:104F730012507112151CE50E6018E50A75F006A4AF
:104F8300F8AAF075F006E50B12509D701A7901022C
:104F93005017E50A75F006A4F8AAF075F006E50BBC
:104FA30012507EE4F0A3F0E50A75F006A4F8AAF027
:104FB30075F006E50B12503EA312532A88828983AB
:104FC300A3AA82AB8312508C8A828B83E0603F1248
:104FD3005026603A8E108F1175120078101208282F
:104FE300E50EC333FCE433FDE50A75F006A4F50AC8
:104FF300A8F075F006E50BA428F50B742B250AF52C
:1050030082740F350B124BCA122ECA12083F790055
:10501300800279070261AE122B51E82290227612A8
:105023005B3522E50A75F006A4F8AAF075F006E5EB
:105033000B125079F8A3E0F9E84922A42A1251D2BD
:1050430088828983A322ECFEEDFF902289E493F802
:10505300E9C39822F58312506B12151C22E50C123A
:105063006495E50D3400F583E0FAA3E0FB221250CA
:1050730079FAA3E0FB2212507EE022A42AF9742BD2
:1050830028F582740F39F58322E50EF09010C812CB
:10509300509622E088828983F0221251F6F50CE9BA
:1050A3003400F50DE50EC333FAE433FB1215168510
:1050B3000C82850D83EAF0A3EBF0850C82850D83CA
:1050C3001250C722123EC0E8492274F4120360EC66
:1050D300FEEDFF740C120A951234D4880889091264
:1050E300511BAC0AAD0BECF8EDF990227E12512363
:1050F3005021E875F006A4F8AAF075F006E91250FD
:105103003EE08E828F8312513612512C1234E07995
:10511300008002790402368A120CDC8A0A8B0B2285
:10512300122EC2C3EC9AED9B22123EBC85088285E7
:1051330009832212520B2274F61203607E007F0051
:105143008028EEF8EFF9E875F006A4F8ACF075F0F6
:1051530006E9A42CF9742928F582740F125DB96A43
:105163007003A3E06B605712305712610B40D312E8
:1051730061067002E96F704674FE6A700374FF6B18
:10518300703C7E007F00800312305712610B502E5B
:10519300124B0770F3EEF8EFF9E875F006A4F81276
:1051A30051C81251FD60171251E4F8E91251DC881D
:1051B30082125057850882850983E4F0A3F0EEFA42
:1051C300EFFB0234E975F006E91251D022A42AF963
:1051D300742728F8740F39F9223400F988088909EB
:1051E30022EEF8EFF9E875F006A4F875F006E91277
:1051F30051F6221251D0E8240422A3A374FE1252C2
:10520300081250C722F0A30412520F22F088828999
:1052130083A3A3A3A32274F6120360EA241DF582D9
:10522300EB125314F9604BEA241DF582EB125B4E2B
:105233002402FCA3E03400FD12504D400302530747
:10524300780080298C828D83E0F508A3E0FFE508D0
:105253002400E43FF509E833FEE433FF746F2EF5D1
:1052630082740F3FF58312532A12530A08E8C39935
:1052730040D28A828B83A3A3A3A3A3A3A3A3A31232
:105283004204900368E06C7003A3E06D700F7C6FC1
:105293007D0F122767124BC8120CD08067EA2411C6
:1052A300F582EB125B4E605CFC74FF2CF075080119
:1052B300780812083075086F75090F780812082CE2
:1052C300E9F5087808120830EA2412F582EB125B3C
:1052D3004EF5087808120830EA2415F582EB1254CB
:1052E3007E120648ECF91227671242018A828B83E9
:1052F300A3A3A3A3A3A3A3A3A3124BCC120CE8744D
:105303000712083F0234E9EC24020C0CED3400FDD3
:105313002212548F12531CE022E0F8A3E0F5838895
:1053230082A32288828983E508F0A3E509F0227429
:10533300EA12036074FD1208D38A148B158C0E8D48
:105343000F890D7419120A95125497741B120A953A
:10535300E0F511741C120A95E0F50C741D120A9500
:1053630012490D741F120A95E0F5106008E50CC38D
:1053730033240480027402C0E07401120A95D0E061
:105383001254A88A088B09EA450970030254738AE8
:10539300828B83A3A3E514F0A3E515125FA1E50EA9
:1053A300F0A3E50FF0EA2413F582EB12547EE50D2A
:1053B300F0EA2414F582EB12547EE511F0EA241787
:1053C300F582EB125B4E64017040120ECE8A0E8B97
:1053D3000FA80EA90F850882850983A3A3A3A3E0C1
:1053E300687003A3E0696022EE4F6011E508241A98
:1053F300F582E50912547EEEF0A3EF800CE5082454
:1054030017F582E50912547EE4F012548212549780
:105413008E828F837405F0A3E5107004E50C804839
:105423007401250C1254A17A008028850A82850B09
:1054330083E012549D850A82850B83A3E08E828FBD
:1054430083F0E50A2402F50AE50B3400F50BA30EFD
:10545300AF830AEAC3950C40D2120ECEEA12549DD2
:10546300120ECEEB8E828F83F0AA08AB09120BA427
:105473007403024543EE240CF582EF12548F22127B
:10548300277812548F22EE240BF582EF3400F58334
:1054930022900334E0FEA3E0FF228E828F83F0A3E9
:1054A300AE82AF832212356B120F2822C082C083D3
:1054B300E9C333FCE433FDEA2CFAEB3DFBEA24FEBB
:1054C300F582EB34FF124BCA02341274F2120360FA
:1054D30089098A0A125049400479008040750800FE
:1054E30080020508E508C39509502AE508C333F887
:1054F300E433F9EE28F582EF39F583C082C08312D5
:105503000ECE8A0C8B0DD083D082E0650C7004A381
:10551300E0650D70CDE50A650870BE79010249C7E3
:1055230074F012036074F31208D38A088B098C0A8F
:105533008D0B890C750D00120F40E9790060030291
:105543005625AA08AB09120D5AA90C120D4E8A0E44
:105553008B0FAE0EAF0FEE4F70030256238E828F6A
:1055630083A3A3A3A3A3A3E0A2E2400302562312AF
:105573000ECEEA650A7003EB650B7011780D120805
:1055830030E4F50EF50F780E12082C8044AA0AAB0E
:105593000B120B5CE96401706885188285198374AA
:1055A30004F07401120A95124EF885188285198346
:1055B300AA82AB83120B1AE964017045750D017859
:1055C3000D120830E4F50EF50F780E12082C750D48
:1055D30000780D120830780D1208307408120A95FD
:1055E30085820E85830F780E12082C902294E49303
:1055F300F9AC0AAD0BAA08AB09120CE87407120840
:105603003F8E828F83A3A3A3A3A3A3E0A2E1400DB4
:105613008E828F83A3A3A3A3A3A3C2E2F0750D017C
:10562300A90D023EC674F6120360E9FE7900120D5D
:105633005AEEF9120D4E8A088B09A808A909E84900
:1056430060061264DCF9800279040234E974F6120C
:1056530003607E0790035CE070341256968A088BD1
:1056630009A808A909E8496025900361E064018855
:10567300828983A3A3700B12569D8882898350016C
:10568300A3A3E0F9121048E9FEEE70027E07EEF9DB
:105693000234E9124EE912102A22E0FA8882898341
:1056A300A3E0C39A2274EE120360EAFEEBFF890AB9
:1056B3008C0C8D0B7412120A9512341E125772122F
:1056C30050505051890E750F007403780E1209D48F
:1056D300748D250EF582740F350FF583E0F8E50C14
:1056E300C398502DE50B60247511007403781012D4
:1056F30009D474872510F8740F3511F988828983CA
:10570300A3A3A3A3A3A3E50C12577CF07900024C37
:105713008F790380F979007AFE7BFF125772E49345
:1057230065107004790280E6E50B60E0890E750F61
:10573300007403780E1209D47487250EF8740F359C
:105743000FF988828983A3EEF0A3EF12577C124FDF
:1057530016E50C123E9074FF12635BE50AF09003AA
:1057630066E088828983A3A3A3A3A3A3A3809C1237
:105773000D48E9F5109022872212649EA3E508F0F4
:10578300A3E5092274F6120360ECFF120D48902280
:10579300871250505027890875090074037808123E
:1057A30009D4748C1257C6740F12600DE0F8EFC35E
:1057B300985006EFF079008006790380027904029D
:1057C30034E9EA2508F5822274F4120360EAFEEB59
:1057D300FF120D48E9F50A902287125050501975AF
:1057E3000B007403780A1209D4748A250AF58274AB
:1057F3000F350B124BCA801890034B124752600CA3
:10580300EEFAEFFB1239C4121E9380047AFE7BFF7B
:1058130002368A74F61203608A828B83A3A3A3A33E
:10582300A3E4F0F880010890228DE493F9E8C3998A
:10583300501E88081258748C828D83A3A3A3A3A33C
:10584300A3A3A3E06970DFECFAEDFB120E74801ED4
:10585300E4936870198C828D83A3A3A3A3A3A3A34A
:10586300A3A37406F07A008C828D8312599F0234AD
:10587300E9740F2508F5827410125B5AF92274F447
:10588300120360EAFEEBFF8E828F83A3A3E0141260
:1058930059B6A3E0F9120E508A088B09EA4509703C
:1058A300030259778E828F83A3A3E070358A828B9C
:1058B30083A3A3A3A3A3A3A3A3A3E064028A828BCA
:1058C30083A3A3A3A3A3A3A3A3A360107406F07A43
:1058D300F08508828B8312599F0259777406F00270
:1058E30059778E828F83A3A3A3A3A3A3E060738EB0
:1058F300828F83A3A3A3A3E0607AEE2403F582EF50
:1059030012597A706F9003551259801259B6E014E8
:10591300125F98E06403705C8E828F83A3A3A3A3BA
:10592300E0700DAC08AD09EEFAEFFB120D1E8044DA
:105933008A828B83A3A3A3A3A3A3A3A3A37404F027
:1059430012148CEA540F04850882850983A3A3A348
:10595300A3F0A3E4F07A20FB125996701712598929
:1059630080128A828B83A3A3A3A3A3A3A3A3A3E0ED
:10597300640360AF02368A125B5A14F022E08E820F
:105983008F83A3A3A3227A207B009003C2E0F912A2
:1059930014CE22125FB48B09EA450922E0240C12CB
:1059A30059ABE0F9120D9622F8A3E03400F988828E
:1059B3008983221259BBA3221234C6A3A3A3227440
:1059C300F612036079007E0080258E087509007445
:1059D3000378081209D474C72508FA740F3509FB34
:1059E3008A828B83A3A3E06005120D2479010E90B4
:1059F300228DE493F8EEC39840D0E9A2E07A407B8D
:105A0300009003C2E0F950151215DC8B09EA450931
:105A1300700E7C647D007A40123CE180031215D63F
:105A23000234E974F4120360ECFEEDFF7508C775E8
:105A3300090F7C008045850882850983A3A3A3A35E
:105A4300A3A3A3E0F8EA2412F582EB125B4E68707D
:105A53001F8508828509831234D4125B5268700350
:105A6300A3E069700B850882850983A3A3E07020F6
:105A73000CE5082408F8E5091251DC90228DE49323
:105A8300F8ECC39840B0E4936C7005790002368A51
:105A9300850882850983A3A3A3A3A3A3E070047944
:105AA3000180EA1261A61210008B0BEA450B600F0E
:105AB300850882850983A3A3A3A3A3A3E014F07C91
:105AC3000080010C8C0A125B285020EC125B606092
:105AD300F212306F6E7003A3E06F70E78508828562
:105AE3000983A3A3A3A3A3A3E014F0902288E493C0
:105AF300F8902276E49328F8A3E4933400F9850818
:105B030082850983A3A3A3A3A3A3E0FAC3E89AE925
:105B13009400508B850882850983A3A3A3A3A3A321
:105B2300E4F0025AA2902276125B34E50A98E499D3
