:020000040000FA
:06000000020A300201BB00
:03002B0002087B4D
:030033000206972B
:0300430002073081
:030053000200ECBC
:03006B0002067D0D
:100083000201500101FF01010503010F10FEFFE40E
:1000930012E412E412E4129A119411E412891F007B
:1000A3000000004D20000000000C0000000C0001C7
:1000B300FFFF010101006605000000DB05E80364A2
:1000C300006400B801020200080000050207051ED3
:1000D30002051E020A0A03B80B02803E0102F1FF69
:1000E300011496511800020206C0E074F21203D400
:1000F300A2AFE433FED2AFE5A7FFE5A1F5085F5455
:10010300106006121A4075A1EFE5085F54086008F5
:10011300121A4675A1F7802BEFA2E0C0D0E508A222
:10012300E092F0120957158182F05017906198E020
:10013300F8900AB5E0C398A2D265D0335002E8F034
:1001430075A1FEEEA2E092AF7F01020433C0E0741A
:10015300F21203D4A2AFE433FED2AF9061A4E0F86D
:10016300759B00E59158540860087591F7121A8E33
:10017300802AE59158541060087591EF121A948003
:100183001BE8A2E0C0D0E591A2E092F01209571556
:100193008182F05007E0C2E0F0121BD89061A3E027
:1001A300F8E5E9585404600E121BAE75E9FB906143
:1001B30093E0A2E640F2808BC0E074F21203D4A273
:1001C300AFE433FED2AF9061A5E0F8E5BF58540425
:1001D300600675BFFB121BF0020146C3E498F8E406
:1001E30099F912021F8026C3E49AFAE49BFBE920E3
:1001F300E7E912021FE498F8E499F922C3E498F8B6
:10020300E499F912021FE498F8E499F9C3E49AFA1D
:10021300E49BFB22EB20E7CFE920E7E0B90010BB2A
:100223000008E88AF084F8AAF022E4FBC8FA22EB7B
:1002330070227B10C833C8C933C9335007C39AC36C
:10024300DBF280069A50012ADBEAC833F4C8C933CB
:10025300F4C9FA2275F008E4C833C8C933C933C9ED
:100263009AC99B5004C92AC93BD5F0ECFBC833F4A7
:10027300C8E4C9FA22080808EAC0E0EBC0E086F047
:10028300E7A4FA180986F0E7A42AFA180986F0E722
:10029300A42AFA180986F0E7A42AFA1986F0E7A433
:1002A300FBE5F02AFA190886F0E7A42BFBE5F03A00
:1002B300FA190886F0E7A42BFBE5F03AFA181809B7
:1002C30086F0E7A4C5F02BFBE43AFA1908E7C5F07A
:1002D300C6A426F6E5F03BFBE43AFA1886F0E7A459
:1002E300F6E5F00826F6E43B08F6E43A08F6D0E033
:1002F300FBD0E0FA22E4CFC0E0E4CEC0E0E4CDC01E
:10030300E0E4CCC0E075F020C3E633F608E633F64C
:1003130008E633F608E633F6181818EC33FCED3329
:10032300FDEE33FEEF33FFC3EC9709ED9709EE972C
:1003330009EF97191919400FFFEC97FC09ED97FD89
:1003430009EE97FE191906D5F0BEECF709EDF7098A
:10035300EEF709EFF7191919D0E0FCD0E0FDD0E072
:10036300FED0E0FF222518C582C0E0E51934FFC5A1
:1003730083C0E0E518C3958224F810AF088583197C
:100383008582188008858319858218D2AFCEF0A3A1
:10039300E520F0A37808E608F0A3DEFAEFF0A3E582
:1003A3008124FAF8E608F0A3E608F0A3E608F0A330
:1003B3000808E608F0A3E608F0A315811581D0E04C
:1003C300FED0E0F8158115811581E8C0E0EEC0E0AC
:1003D30022C0D02518C582C0E0E51934FFC583C00B
:1003E300E0E518C3958224F310AF0885831985824D
:1003F300188008858319858218D2AFC8F0A3E9F065
:10040300A3EAF0A3EBF0A37908E709F0A3D8FAEC89
:10041300F0A3EDF0A3EEF0A3EFF0A3D0E0F0A3D0B0
:10042300E0F0A3D0E0F0A3E520F0A3E5F0F0A322F1
:10043300851983851882E0C0E0A3E0F9A3E0FAA35D
:10044300E0FBA37808E0F608A3DFFAE0FCA3E0FDF5
:10045300A3E0FEA3E0FFA3E0C0E0A3E0C0E0A3E0CD
:10046300F5D0A3E0F520A3E0A3F5F010AF08858352
:10047300198582188008858319858218D2AFD082A6
:10048300D083D0E0F8D0E032120A92B9000302041C
:10049300CDE4900301787C790E8002F0A3D8FCD9D7
:1004A300FA90107CAA82AB839000867867790180EA
:1004B30015E493A3AC82AD838A828B83F0A3AA82D3
:1004C300AB838C828D83D8E9D9E775828F7583D806
:1004D30074031207F375829075831E74001207F379
:1004E3000975F0108E1A8F1B85821F85831E851850
:1004F30082851983E0CEA3E0CF851F82851E83EB1F
:10050300C9EAC8EDCBECCAC3E833C8E933C9EA3357
:10051300CAEB33CBC3EA9EF51DEB9FF51CB3500426
:10052300AB1CAA1DEC33CCED33CDD5F0DAAE1AAF4C
:100533001B22D083D082ECC0E0EDC0E0E493A3FCA7
:10054300E493A3FDED4C600D12060DEC24FFFCEDCE
:1005530034FFFD80EFE493A3FCE493A3FDED4C6033
:100563000D1206DBEC24FFFCED34FFFD80EFD0E041
:10057300FDD0E0FCE493A3C0E0E493C0E02285193E
:1005830083851882E0A3FEE0A3F5207808E0A3F6B4
:1005930008DFFAE0A3FFE0A3C0E0E0A3C0E0E0A32C
:1005A300C0E0E0A3C0E0E0A3C0E010AF088582187C
:1005B3008583198008858218858319D2AFD083D0AB
:1005C300820207F9D083D082E9C0E0E493A3C38613
:1005D300F0C5F095F0F908E493A386F0C5F095F023
:1005E300700BE493A3C3994005E9048002A3E47567
:1005F300F002A42582F582E5F03583F583D0E0F996
:10060300E493A3C0E0E493C0E022C0E0C3E4939684
:10061300087401939618400FE493667008087401F8
:1006230093661870007019A3A3C3E493960874012A
:10063300939618A3A3400DD0E0D0E0D0E00205715B
:10064300A3A3A3A3A3A3D0E0227404800474028011
:1006530000CCC0E0EDC0E0E518C39CCCAD1950015F
:100663001D10AF068C188D1980068C188D19D2AF0A
:10067300120775D0E0FDD0E0FC22C0E074F2120353
:10068300D4E589A2E1500312191A758900C2C57F06
:1006930001020433C0E074F21203D4E58BA2E050EC
:1006A3000312191A758B00C2E880E474028000CC2F
:1006B300C0E0EDC0E0E518C39CCCAD1950011D109E
:1006C300AF068C188D1980068C188D19D2AF1207BE
:1006D30053D0E0FDD0E0FC22C0E0C0F088F0E4930A
:1006E3006670080874019366187000A8F0A3A370DD
:1006F3000BD0F0D0E0D0E0D0E0020571A3A3D0F09E
:10070300D0E022D083D082CCC0E0E493A360061271
:1007130007B51470FAE493A360061208C51470FABF
:10072300D0E0FCE493A3C0E0E493C0E022C0E07413
:10073300F21203D4A2AFE433FED2AFC2C0E5D1A21A
:10074300E450031219B6EEA2E092AF7F0102043324
:10075300CAC0E0E493A3C582CCC582C583CDC5835B
:10076300F0A3C582CCC582C583CDC583DAE5D0E0CD
:10077300CA22CAC0E0E0A3C582CCC582C583CDC569
:1007830083F0A3C582CCC582C583CDC583DAE6D009
:10079300E0CA227009080808226016181818C6C390
:1007A30033C608C633C608C633C608C633C6D5E043
:1007B300EA22C0E0E493A3D39C5010E493A3C39C28
:1007C300400AD0E0D0E0D0E0020723A3A3A3D0E007
:1007D30022C008C3E096F50808A3E096420808A3E0
:1007E300E096420808A3E09645087001D3D008229A
:1007F300C09FF59FE473D09F22D083D082C09FE433
:1008030093C0E0740193C0E0740293F59F2225180E
:10081300F58210AF08F518400215198008F5184045
:10082300021519D2AF851983227404800A740380D8
:1008330006740280027401C0E0F404120811D0E0CF
:10084300120A6D22C0D0251810AF08F51850020502
:10085300198008F51850020519D2AFD0D022BB0178
:1008630002E722C082C08389828A83BB0003E080BF
:1008730002E493D083D08222C0E0C0D0E8C0E0E598
:10088300A8D2AFC2C7A2E792AFD0E0F8D0D0D0E0F1
:10089300326016080808C6C313C618C613C618C69E
:1008A30013C618C613C6D5E0EA22C3E0C696F608F7
:1008B300A3E0C696F608A3E0C696F608A3E0C6969C
:1008C300F622C0E0E493A36C7009D0E0D0E0D0E05E
:1008D300020723A3A3D0E022251810AF08F5184080
:1008E3000215198008F51840021519D2AF22E766E0
:1008F30070100809E766700A0809E76670040809BA
:10090300E76622E066701008A3E066700A08A3E0B9
:1009130066700408A3E06622C3E09608A3E0960885
:10092300A3E09608A3E096A2D265D03322C3E09653
:10093300F008A3E096F008A3E096F008A3E096F091
:1009430022E026F008A3E036F008A3E036F008A37F
:10095300E036F022C0E0E8C0E0E58124FCF8E6A23E
:10096300E7D0E0F8D0E022E647F60809E647F608C4
:1009730009E647F60809E647F622E026F608A3E06B
:1009830036F608A3E036F608A3E036F622E627F6A5
:100993000809E637F60809E637F60809E637F622C6
:1009A300E657F60809E657F60809E657F60809E692
:1009B30057F622E056F608A3E056F608A3E056F6EB
:1009C30008A3E056F622E056F008A3E056F008A389
:1009D300E056F008A3E056F022700422600D18C61A
:1009E300C333C608C633C6D5E0F41822E4C396F66B
:1009F30008E496F608E496F608E496F622C6F4C6EA
:100A030008C6F4C608C6F4C608C6F4C622C3E796E9
:100A13000809E7960809E7960809E79622C3E096CE
:100A230008A3E09608A3E09608A3E0962275D000F9
:100A33007581407518017519030002048BE0F608EF
:100A4300A3E0F608A3E0F608A3E0F622600C08C6CC
:100A5300C313C618C613C6D5E0F422E6F008A3E60E
:100A6300F008A3E6F008A3E6F022CAC0E0E6F0A38C
:100A730008DAFAD0E0FA22E0FAA3E0FBA3E0FCA351
:100A8300E0FD22EAF0A3EBF0A3ECF0A3EDF022E506
:100A9300C754F84401F5C77901222518F582E435D6
:100AA30019F58322C2AF75D69F020000221207FCFC
:100AB300A2E0021207FCF7E2021207FC44E402126E
:100AC30007FCE7E4021207FC2EE6021207FC4CE6E1
:100AD300021207FC9D22001207FCAF22001207FC42
:100AE3000123001207FC6223001207FCEC2300120F
:100AF30007FC9024001207FCE424001207FCFD24E9
:100B0300001207FC2325001207FC5E25001207FCD8
:100B1300A225001207FCC925001207FC1A260012A1
:100B230007FCCA26001207FC8227001207FC4A288A
:100B3300001207FC0A29001207FC4E29001207FCC9
:100B43007329001207FCB629001207FC032A0012BE
:100B530007FC5B2B001207FCE12B001207FCFF2BA9
:100B6300001207FC292C001207FC432C001207FC7F
:100B7300522C001207FC5D2C001207FC1D2D0012E5
:100B830007FC762D001207FC382E001207FC402EBE
:100B9300001207FC042F001207FC702F001207FC41
:100BA3009B30001207FCAC30001207FC223100120C
:100BB30007FCB431001207FC0C32001207FCCC32E4
:100BC300001207FCF332001207FC0533001207FC86
:100BD3005833001207FC9533001207FCA2330012AE
:100BE30007FC2535001207FC7A36001207FCAC36E9
:100BF300001207FC3F37001207FC7837001207FC8E
:100C0300C437001207FCE038001207FC293B00122E
:100C130007FC343B001207FC3F3B001207FC493B37
:100C2300001207FC543B001207FC6E3B001207FC4A
:100C3300783B001207FC823B001207FC8D3B00123D
:100C430007FCB53B001207FC103C001207FC343CC8
:100C5300001207FC583C001207FCB63C001207FCCC
:100C6300FA3C001207FC163D001207FC8D3D0012F2
:100C730007FCC53D001207FC113E001207FC6E3E47
:100C8300001207FC283F001207FC0C41001207FC6E
:100C93006541001207FC9542001207FCBB4200129B
:100CA30007FC4444001207FCC047001207FC9249AA
:100CB300001207FC5B4B001207FC084C001207FCF8
:100CC300734D001207FC124E001207FC574E001220
:100CD30007FCC14E001207FCD04E001207FC57510F
:100CE300001207FC0953001207FC7653001207FC9D
:100CF3005554001207FC6E55001207FCEB56001208
:100D030007FC0A57001207FC5F57001207FC6458E0
:100D1300001207FC8C58001207FCE458001207FC71
:100D2300C359001207FC075A001207FC525A00125B
:100D330007FCBD5A001207FCFE5B001207FC625C55
:100D4300001207FCB05D001207FC1060001207FCE4
:100D53004160001207FCF961001207FC4E620012A9
:100D630007FC5263001207FCEF63001207FC4864A0
:100D7300001207FCFB64001207FC9D65001207FCD0
:100D83003D66001207FCE266001207FCB087011201
:100D930007FCEF87011207FC368A011207FC808AE1
:100DA300011207FC9B8B011207FC0B8C011207FC41
:100DB300408C011207FCB48D011207FC379001121D
:100DC30007FC6091011207FCF691011207FCFE9AE1
:100DD300011207FC939B011207FC7A9E011207FC88
:100DE3006D9F011207FCCE9F011207FCEAA00112BE
:100DF30007FCCFA2011207FCE0A4011207FC4AA5DD
:100E0300011207FC1CA6011207FCD3A6011207FC62
:100E1300DDA6011207FC0BA7011207FCC8A70112EC
:100E230007FC9FA8011207FC66A9011207FC18AA78
:100E3300011207FC41AA011207FC63AA011207FC75
:100E4300B9AC011207FC91AD011207FCD5AD01123B
:100E530007FC3DAE011207FCF5AE011207FC27AFFC
:100E6300011207FC6BAF011207FCA1AF011207FCD3
:100E7300EDAF011207FC42B0011207FC47B00112AB
:100E830007FC9AB0011207FCBFB0011207FCCEB1F8
:100E9300011207FC32B2011207FCA2B2011207FCD5
:100EA3002EB3011207FCFBB5011207FCDFB60112DA
:100EB30007FC62B8011207FC98BA011207FC46BB93
:100EC300011207FCF6BB011207FC37BE011207FC37
:100ED300DABE011207FC21BF011207FCCDC00112CB
:100EE30007FCE1C0011207FCEBC0011207FC13C1B0
:100EF300011207FC1FC1011207FC3EC1011207FCCE
:100F030023C3011207FC5AC3011207FC64C3011275
:100F130007FC9AC3011207FCE9C4011207FC2DC5A3
:100F2300011207FCD5C5011207FCB8C6011207FC64
:100F330063C7011207FCAFC8011207FCADC9011258
:100F430007FC53CA011207FCE3CA011207FCFACAE1
:100F5300011207FC31CB011207FC3BCB011207FC4A
:100F630046CB011207FC64CB011207FCA8CB01128C
:100F730007FC05CC011207FC2ACC011207FC44CC68
:100F8300011207FCD0CC011207FCEDCD011207FCC6
:100F93005ACE011207FC41CF011207FC68CF0112A0
:100FA30007FCDCCF011207FC57D0011207FC5BD111
:100FB300011207FC51D2011207FC00D3011207FCF6
:100FC30013D4011207FCAFD4011207FC3CD5011264
:100FD30007FC1AD6011207FC52D6011207FCAAD647
:100FE300011207FC73D7011207FC94D7011207FC07
:100FF3001BD8011207FC3FD8011207FC61D801126C
:1010030007FCAAD8011207FCC0DA011207FCA7DB10
:10101300011207FC58DC011207FC8EDE011207FCEB
:10102300DEDE011207FC1EDF011207FC60DF011286
:1010330007FCBCDF011207FCEADF011207FC0EE02C
:10104300011207FC61E0011207FC8FE0011207FCAB
:10105300C8E0011207FC1DE1011207FC83E1011244
:1010630007FCD7E2011207FCFAE4011207FC67E56B
:10107300011207FC90E5011207FC1BE6011207FCB5
:1010830082E6011207FCCDE6011207FCF1E601122C
:1010930007FC15E7011207FC70E7011207FC8BE759
:1010A300011207FC44E8011207FCD5F3031207FC05
:1010B30014F4031207FC7880021207FCBE800212AC
:1010C30007FC9E81021207FCA082021207FCA38385
:1010D300021207FC2F85021207FC8D85021207FC02
:1010E3004A86021207FC6887021207FCD98702129C
:1010F30007FC1588021207FC6388021207FC6D883F
:10110300021207FCB188021207FC0D89021207FCC8
:10111300A889021207FC258A021207FCF48A02122C
:1011230007FC8D8B021207FCAD8B021207FCE38BCD
:10113300021207FC148C021207FCD58C021207FC66
:10114300E58C021207FC398D021207FC548D021242
:1011530007FC668D021207FC6F8D021207FCC98D16
:10116300021207FC258E021207FC718E021207FC85
:101173008C8E021207FCBD8E021207FCDA8E02125D
:1011830007FCE68E021207FC5A90021207FC7390CA
:10119300021207FCDA90021207FCED90021207FC20
:1011A300FB90021207FCAF91021207FC939202120A
:1011B30007FC9993021207FC2394021207FC2D9457
:1011C300021207FC9A94021207FCB194021207FC64
:1011D300E394021207FC1C95021207FC46950212C7
:1011E30007FCA795021207FCC795021207FCE595B9
:1011F300021207FC2B96021207FC5197021207FCFE
:101203009E97021207FCCD97021207FC4398021225
:1012130007FC6B98021207FCA498021207FCB29811
:10122300021207FC0A99021207FC5999021207FCE1
:101233009899021207FCC899021207FCF49902124A
:1012430007FCFF99021207FC1D9A021207FCDF9AA2
:10125300021207FCE99A021207FC249B021207FC04
:101263003A9B021207FC8F9B021207FCA39B0212FC
:1012730007FCB19C021207FCC49C021207FCD99C18
:10128300021207FC7B9D021207FCFE9D021207FC63
:10129300BC9E021207FCC79E021207FCF39F0212B8
:1012A30007FC0FA0021207FC61A0021207FCA0A01A
:1012B300021207FCB5A0021207FC17A1021207FCD9
:1012C300A6A1021207FCF1A1021207FC42A402121A
:1012D30007FCC0A4021207FC35A5021207FC57A79E
:1012E300021207FC6FA7021207FC72A7021207FC87
:1012F3007EA7021207FC92A7021207FC9AA702120A
:1013030007FCCDA7021207FC7DA8021207FCF3A875
:10131300021207FC66A9021207FC1AAA021207FCB2
:10132300CFAA021207FCEEAA021207FC8EAB02122E
:1013330007FC9AAB021207FCC5AB021207FCC8AB51
:10134300021207FC32AC021207FC5AAD021207FC70
:1013530032AE021207FCBDAE021207FCD6AF021278
:1013630007FC93B0021207FCCCB0021207FCFDB0DD
:10137300021207FCBBB1021207FCEBB1021207FC1D
:10138300C6B2021207FC5FB3021207FCEAB30212F1
:1013930007FC9BB4021207FC1EB5021207FC50B5F2
:1013A300021207FC91B5021207FC4E99031207FCC7
:1013B300B399031207FCF099031207FC3F9A031237
:1013C30007FC559C031207FC389E031207FCA2A1DD
:1013D300031207FCDDA1031207FCFFA1031207FCA4
:1013E30062A2031207FC96A2031207FCB9A203121E
:1013F30007FCA6D7021207FC42A3031207FC898D40
:10140300031207FC078E031207FC3D8E031207FC31
:10141300A98E031207FC1C90031207FC38900312D9
:1014230007FC7D90031207FC0B91031207FC6491E8
:10143300031207FC9192031207FCA393031207FC08
:101443000094031207FC6C94031207FCC0DF021222
:1014530007FC0E95031207FCBB95031207FCCD9600
:10146300031207FCF896031207FC4397031207FCC9
:101473008A97031207FC1C98031207FCD7980312E0
:1014830007FCCDD5031207FC48D6031207FC53D63D
:10149300031207FC74D6031207FC8EA3031207FC86
:1014A30098A3031207FCE4A3031207FC52A403123C
:1014B30007FC73A4031207FC23A5031207FCB7A7B9
:1014C300031207FCC0A7031207FC13A8031207FCAF
:1014D3003CA8031207FCA3A8031207FC34A90312B8
:1014E30007FC76A9031207FCC0A9031207FC1FAA75
:1014F300031207FC4BAA031207FCDCAA031207FC26
:101503001BAB031207FC5AAB031207FC8FAB03128E
:1015130007FCA1AB031207FCB3AB031207FCD2AB6E
:10152300031207FCDBAB031207FC91AC031207FCAD
:10153300D1AC031207FC81F1031207FC48E5031247
:1015430007FC7EE5031207FCC7E5031207FC17E758
:10155300031207FC2E67001207FC6D68001207FCDC
:10156300A968001207FC686A001207FC916A00125E
:1015730007FC246D001207FC686D001207FCF16E76
:10158300001207FC896F001207FCF16F001207FCC1
:101593009270001207FCD470001207FC1471001241
:1015A30007FC9F72001207FC0F74001207FC3476CD
:1015B300001207FC6276001207FC8976001207FC12
:1015C3009276001207FC1977001207FC377A001293
:1015D30007FC76F5031207FC8CF5031207FC8AF36C
:1015E300031207FC3CCF031207FC4FCF031207FC87
:1015F300ECCF031207FC27D0031207FC42D00312DF
:1016030007FC67D0031207FCACD0031207FCDDD044
:10161300031207FC0ED1031207FC94D2031207FC3A
:10162300F4EC031207FC2AED031207FC46ED031248
:1016330007FC88ED031207FC98ED031207FC2DEE5F
:10164300031207FC37EE031207FCA1D2031207FCB7
:101653005AD3031207FC0AD4031207FC48D403121B
:1016630007FCE7D4031207FC5CD5031207FC73E6FF
:10167300021207FCC8E6021207FCB1E7021207FCDC
:101683004AE8021207FC94E8021207FCF6E8021289
:1016930007FC0AE9021207FCECEA021207FC67EBFB
:1016A300021207FC91EB021207FC6AED021207FC1F
:1016B30085ED021207FCD4ED021207FCEAED0212DB
:1016C30007FCF7ED021207FC2BEE021207FC44EEB7
:1016D300021207FCE4EE021207FC3EEF021207FCC3
:1016E3008CEF021207FC9FF0021207FC10F30212A8
:1016F30007FC45F3021207FCD3F3021207FC34F490
:10170300021207FC39F4021207FC75F4021207FCFB
:10171300D7F4021207FCA7F5021207FCCCF502125C
:1017230007FCD6F5021207FCD9F5021207FC48F6AE
:10173300021207FC63F6021207FC76F6021207FC9C
:10174300A2F6021207FCDDF6021207FCE0F6021213
:1017530007FC1CF7021207FCB1FF011207FCC9FFCB
:10176300011207FC55F7021207FCA4F7021207FC4B
:1017730046F9021207FC04FB021207FC4CFB02129F
:1017830007FC6EFC021207FC9FFD021207FCC1FD61
:10179300021207FC1DFE021207FC9FFE021207FC49
:1017A3007EE8011207FCA9E8011207FC96E9011281
:1017B30007FC1BEA011207FC84EA011207FCD0EACA
:1017C300011207FC4FEB011207FCE1EB011207FCCE
:1017D3006DEC011207FCAFEC011207FC1BF10112C7
:1017E30007FC9BF2011207FC6BF3011207FC92F357
:1017F300011207FCF3F5011207FC7FF6011207FC47
:1018030099F7011207FC78F8011207FCFAF80112A4
:1018130007FC0080031207FCBA80031207FC2C812B
:10182300031207FCC881031207FC3882031207FC6A
:10183300F184031207FCC885031207FC35860312E3
:1018430007FCB287031207FC7C88031207FCC389D9
:10185300031207FCD68A031207FC6F8B031207FCE3
:10186300358C031207FC54DB031207FCA8DB0312BD
:1018730007FC00DC031207FC4BDC031207FCADDCA6
:10188300031207FC46DD031207FCAEDD031207FC5F
:10189300BADD031207FC62E9031207FC93E90312A2
:1018A30007FC4DEA031207FCB3EA031207FC1AD93B
:1018B300031207FCA6DA031207FC01F5031207FC67
:1018C30012F5031207FC3CEB031207FC4AEB03126D
:1018D30007FCE6FF021207FCF4F2031207FC04F311
:1018E300031207FC1FF3031207FC80F3031207FC28
:1018F3007FF0031207FC04F1031207FC68F10312E3
:1019030007FC6DEF031207FC8FEF031207FCF9EFDF
:10191300031207FC04F0031207FC48F0031207FC50
:1019230092F9011207FCA0F9011207FCE1F9011277
:1019330007FCFBF9011207FC78FA011207FC72FBA2
:10194300011207FC97FB011207FCB4FB011207FC11
:10195300D1FB011207FCF6FB011207FC1EFC01126E
:1019630007FC66FC011207FCE1FC011207FC91FD78
:10197300011207FC32C8031207FC40C8031207FC1C
:10198300BAC8031207FC9EC9031207FC57CB031204
:1019930007FC54F5031207FCB87A001207FC247BFA
:1019A300001207FCE37B001207FCED7C001207FC2E
:1019B300467E001207FCA17E001207FCF67E001291
:1019C30007FCFF7E001207FC117F001207FC7B7FE0
:1019D300001207FC8F7F001207FC997F001207FC9F
:1019E300F3BA031207FC48BB031207FC44BD0312FE
:1019F30007FC76BD031207FC98BD031207FCB1BDBB
:101A0300031207FCCABD031207FCD4BE031207FC72
:101A13006FBF031207FC50FE011207FC74FE011294
:101A230007FC8DFE011207FCC0FE011207FCF1FE4C
:101A3300011207FC1FFF011207FC81FF011207FCC3
:101A430090FF011207FC9AFF011207FCA7FF011286
:101A530007FCF5DD031207FC1BDE031207FC58DE4F
:101A6300031207FC67DE031207FC86DE031207FC82
:101A7300EEDE031207FCF7DE031207FC56DF031248
:101A830007FC7ADF031207FC39E0031207FC46E088
:101A9300031207FC57E0031207FC62F4031207FC6E
:101AA3007FF4031207FCE6BF031207FC44C10312D1
:101AB30007FC51C1031207FC64C1031207FC83C175
:101AC300031207FC99C1031207FCADC1031207FC03
:101AD30022C2031207FC87C2031207FC37C3031297
:101AE30007FC0CC4031207FC1CC4031207FC2BC421
:101AF300031207FC5BF2031207FC7FF2031207FCDD
:101B0300A7F2031207FCCFF2031207FC85E00312CE
:101B130007FCACE0031207FCCDE0031207FC32E143
:101B2300031207FCEBE2031207FC04E3031207FCB6
:101B330010E3031207FC24E3031207FC42E303123E
:101B430007FC4CE3031207FC56E3031207FC69E3AB
:101B5300031207FCBCE3031207FCF5E3031207FCC3
:101B630024E4031207FC72E4031207FCC1E403122A
:101B730007FCDCE4031207FCE6E4031207FCF7E4CA
:101B8300031207FC3DE5031207FCAD7F001207FCBF
:101B9300FAAC031207FC24AD031207FC40AD031299
:101BA30007FC53AD031207FC69AD031207FCC6AD76
:101BB300031207FCF9AD031207FC35B2031207FC4D
:101BC3005BB3031207FC8EB3031207FCDAB30312F1
:101BD30007FC06B5031207FC2EB5031207FC43B539
:101BE300031207FC53B5031207FC97B5031207FC56
:101BF300F8B5031207FC08B6031207FC3AEE03120A
:101C030007FC55EE031207FC7EEE031207FC98EE69
:101C1300031207FCBDEE031207FCDCEE031207FC04
:101C2300F4EE031207FC22EF031207FC3CEF03124E
:101C330007FC1EF4031207FCBCCB031207FCC3CB47
:101C4300031207FCCFCC031207FCFFCC031207FCE3
:101C530025CD031207FC48CD031207FC6ACD0312FE
:101C630007FCA4CD031207FC0ACE031207FC43CEE4
:101C7300031207FC8FCE031207FCBCCE031207FC32
:101C8300DCCE031207FC7AE7031207FC92E7031288
:101C930007FC80E8031207FC5FE9031207FCD3FE8D
:101CA300021207FC45FF021207FC83FF021207FC26
:101CB300C4FF021207FC64C4031207FC83C40312AB
:101CC30007FCD2C4031207FCEEC4031207FC1FC5B2
:101CD300031207FC2FC5031207FC3CC5031207FCC4
:101CE30049C5031207FC35C6031207FC73C603126A
:101CF30007FC7DC6031207FC8DC7031207FC98C7B8
:101D0300031207FCAAC7031207FCB3C7031207FC9D
:101D1300BDC7031207FC36B6031207FC7BBA0312D6
:101D230007FC89BA031207FCD4F4031207FC9EF4E0
:101D3300031207FC2CF5031207FC96F5031207FCAC
:101D43006FD6021207FCC3D5021207FC09D4021294
:101D530007FCB9D1021207FC40D1021207FCE7D0FD
:101D6300021207FC77D0021207FC4ED0021207FCC6
:101D73002ECE021207FCFACD021207FCC7CD0212C7
:101D830007FCABCD021207FCC4CC021207FC7CCCCF
:101D9300021207FCC7CA021207FC47CA021207FC59
:101DA30044CA021207FC41C9021207FC0FC90212FE
:101DB30007FC4CC8021207FC77C6021207FC08C6D0
:101DC300021207FCA4DF021207FC28DF021207FC41
:101DD300DFDE021207FC97DE021207FCE5DD0212CA
:101DE30007FCDAC5021207FCD7C5021207FCC4C5FB
:101DF300021207FC57DD021207FC6FC5021207FC33
:101E03005EC5021207FC50C4021207FC1AC4021278
:101E130007FC4ADD021207FCCD94031207FCC8C37A
:101E2300021207FC69C3021207FC38C3021207FC43
:101E330000C0021207FCC0BF021207FCB4BF0212AB
:101E430007FC14BF021207FC54BE021207FCD6BBE8
:101E5300021207FC67B9021207FC25B9021207FC3C
:101E6300F9B7021207FCAEB7021207FCEDB6021275
:101E730007FC30B6021207FCC6B5021207FC00B617
:101E8300021207FC44DA021207FCE6A20300000078
:101E930080FBE473000136360101000102010001F9
:101EA30003010001040106060502000007010034D6
:101EB3000801000F090401010D0100FF0E080000D5
:101EC30017020000190100FF1A0100011B0100FEA7
:101ED3001C0100081D0200001F0100012001000178
:101EE300210200002301000F24020000260100014B
:101EF30027010008280200FF2A0100072B010240E6
:101F03002C0100002D0100012E0100012F0100FF13
:101F130030010B1C310800003A0100083B01000F9F
:101F23002F010000030271023001600211027002EE
:101F33000102020202028002100261023A00410021
:101F43006302730272026202430200021302380048
:101F53000002000204021202000200020002000258
:101F630004020402370037003C0244020002390035
:101F7300000200026502000235028102000205022E
:101F8300820283020002030071003001600011002D
:101F93007000310220035004800010006100000033
:101FA300140063007300720062004300000013001A
:101FB3000600000000000400120000000000000002
:101FC300000004000400370037003C024400000016
:101FD30000000000000065000000350081000000E3
:101FE3000500000083000000030471040204600480
:101FF30011047004020402040104020410046104C5
:1020030000041404630473047204620443040004AC
:10201300130406040004000404041204000400046E
:102023000004000451046400000400040004440498
:102033000004000400040004650400043504810462
:102043006400050400048304000401037103010315
:10205300010301030103010322030203010310032C
:102063000003000300030003000300030003420313
:1020730000032403060300030003040312032503E0
:1020830023032503230304030403000300030003C2
:102093004403000300032303000365032100350306
:1020A3008103000305030003000300030101710121
:1020B300010101011101010131010101010180014E
:1020C300100161013B00140063017301720162019D
:1020D30043010001130106013D0135000401120112
:1020E3000001000100010001040104013301330177
:1020F3003C01440132013600000100016501000189
:1021030035008101000105018201830100013600D0
:102113000100060000000F000000000000000000A6
:102123000000000003FFFF00000403FFFF0000FFA7
:10213300FF0FF4010005C4040320000100030B009A
:102143000000000000000003010F00002A18130024
:10215300EE1701002A180200B8170300BE17040087
:10216300C4170500CA170600D617FFFF000001D4E5
:102173000D06FE0D08F80D0B160E10500D02DA0DAC
:1021830005EC0D07E00D0CB60D0DC80DFF000003A7
:10219300EAF5E5D5D5C5B5A59595858575756565C7
:1021A3005555454535352525151505F4112412FAE0
:1021B3001100121E1212120C122A1230123612427F
:1021C300120612EE11E81100160F00000B150B0298
:1021D3000002220F32000006E412F612FC12BE11B6
:1021E3000213B811C411F810F2102E113411281172
:1021F300E0104413621368134A135613501330301C
:1022030016181920231A1C1E300C0E020B040B0A7D
:102213000708000F00383C3E363B3B352B432C3040
:102223003017181921301B1D1F30000119161816FD
:10223300161523030000034948424D1817250502CC
:10224300381308130E131A13141318123C125C13C9
:1022530048124E1202040201010101090204110A8B
:1022630011FE103A110000000000001011221100AD
:10227300BE040A0E00150004007F00E8030C0028CA
:1022830000000000000308100C0A03080900040002
:1022930001FF1E1E0C05040F1008C082C0838A8232
:1022A3008B83E0D2E7F0121722023351C082C0833E
:1022B30079001227691256BAC082C0839003341280
:1022C3004440D083D082C3E09CA3E09D500C125DB8
:1022D3008EFAA3E01222E0600109023351FBEA7592
:1022E300F00BA4FAA8F075F00BEBA428FB900336CF
:1022F300E02AF8A3E03B8882F583E0540F2274F7C9
:10230300120368890812276912280FACF075F00BC5
:10231300E9A42CF9900336E028FEA3E039FF740109
:10232300650860067402650870208A828B83122711
:10233300FB12373174026508701B1226BA12284249
:1023430070138E828F83E4F0800BEA2403FCEB127C
:1023530027DD1227E9EEFAEFFB120AD402368E7458
:10236300F41203681266B579008E828F83E060767B
:10237300890A890B8065E50A75F00BA4FAA8F07544
:10238300F00BE50B1222ED7046E50A75F00BA4F88D
:10239300AAF075F00BE50B1228218E828F83E0855E
:1023A3000882850983122903850882850983A3127C
:1023B3003731EE2403FCEF1227E612350F125134A6
:1023C300AA08AB09120AD47901900334124B49E5E8
:1023D3000A2401F50AE50B3400F50B1226C2E50ABF
:1023E3009AE50B9B40900238DB74F5120368EAFE12
:1023F300EBFF740B120A9D123514750A01EC4D6044
:102403002BEC1266D1ED1256BA1237297901120A52
:10241300E0E5084509606F850882850983A3126694
:10242300BF7902AA08AB09120AE0805AE5084509F8
:10243300602B1256BE123D8812351012282C700CD8
:10244300EEFAEFFB120AE6E9F50A80CBEE2403FA73
:1024530012276470317903EEFAEFFB80CA8E828F04
:1024630083A3E064FE7003A3E0F4700BEE24030A7D
:102473000A0A122764700CEEFAEFFB120AE6E9F57A
:102483000A8003750A00A90A7F0302058174F71203
:10249300036890033412369EEA4B602FEA75F00B03
:1024A300A4FAA8F075F00BEBA428FBEAFEEBFF12ED
:1024B300154890033612369E90033612498E6012E9
:1024C300EEFCEFFD79001214AC8007900336E4F0C4
:1024D300A3F002368E9003341240F8C3EE98EF99BE
:1024E30022C082C083EC4D6005121CB080097C08B9
:1024F3007D0079001214AC02335174F6120368792B
:1025030000EA4B601878008808125A01EB125D8AC2
:1025130060047901780808E8C3940840EA02373A6E
:1025230074F712036874F31208DBECFEEDFF8518F1
:1025330082851983E4F004120A9DEAF0A3EB124E9C
:10254300BA7403120A9DAC82AD83EEFAEFFB120A52
:10255300F8EEFAEFFB120AFE02368974F7120368EB
:1025630074F31208DBECFEEDFF851882851983E412
:10257300F0EAFCEBFD7403120A9D1228FC740112AD
:102583000A9D1237258E828F8312373174FE68704D
:102593000374FF696004790180027900023689744B
:1025A300F7120368EAFEEBFF122600701412260BE3
:1025B3008E828F83E0F4F88A828B83E058F0120ACC
:1025C300D4A90802368E74F7120368EAFEEBFF758E
:1025D30008008E828F83E06022122600701D12266F
:1025E3000B8A828B83E08F838E82F8E058700CE035
:1025F300F88A828B83E048F0120AD480C4120ADA84
:10260300E9F50874016508221266CA122813122715
:1026130055FAA3E039FB2274F41203688A088B0984
:102623007C007D001226BA1227E912277A1266BCB3
:102633007900850882850983A3E064FE7003A3E023
:10264300F460717E007F008062EEFAEF1222E06098
:1026530057EEFAEFFBEA75F00BA4FAA8F075F00B4E
:10266300EBA428FB900336E02AF50AA3E03BF50B25
:10267300850882850983A3124E08850A82850B8308
:10268300A3E06A7003A3E06B701EE50A2403FAE576
:102693000B122765700AE50A2403FCE50B1227E6F3
:1026A30012276E79011256D01230591226C2EE9AB1
:1026B300EF9B40950238DBEA24030A0A0AEB2290D7
:1026C30003341252A7C32274F31203688A088B09D6
:1026D3008A828B83A31266BF1227691266BC750CAC
:1026E300001226BA12276570547E007F00804912BB
:1026F3002747FAA3E0398A82F583E0540F60361244
:102703002747F50AA3E039F50BE50A2403FCE50B9B
:102713001227F03400FB121CAAE964017017850A22
:1027230082850B83A3125368A312373112276E7568
:102733000C011256D01230591224D840B2A90C7F82
:1027430005020581EEF8EFF9E875F00BA4F81227FE
:102753005522AAF075F00BE9A42AF9900336E02874
:1027630022EF12283C221266D0EB2212277A12564D
:10277300CBEEF0A3EFF022E5081266D1E50922744F
:10278300F5120368EAFEEBFF8E828F83A31266BF06
:102793007C007D00EE24030A0A0AEF1227E9EEFA11
:1027A300EFFB120ADAE9F50A7401650A7029126669
:1027B300CA12280FAAF075F00BE9122821850882A6
:1027C300F5831227FB12282C700DE5082403FCE582
:1027D300091227DD1227E90224893400FDEE2403C0
:1027E300FAEF221227F03400FB120AF8223400FD1C
:1027F300E5082403FAE50922A3122800221228047B
:1028030022E0F8A3E0F98E828F83A32212281322F9
:102813003400F5831240FCE875F00BA4F82212276C
:102823005BF508A3E039F50922E8F0A3E9F0E50830
:102833002403FAE50912283C2212284264012234B7
:1028430000FB120AFEE92274F312036874E612080D
:10285300DB1266B5750C01750800750900750A0071
:10286300750B00851882851983E4F0EE2403FCEFD1
:102873003400FD7403120A9D1228FCE964017023DD
:10288300740B120A9D1237297401120A9D124E0C01
:102893007003A3E0696051851882851983858208D6
:1028A300858309740D120A9DE4122903740E120A1A
:1028B3009D123731740D120A9DAA82AB83120B1C31
:1028C300E96401700B740D120A9D85820A85830BDE
:1028D300780A120834AC08AD09EEFAEFFB120AECE1
:1028E3007402120847E9F50CEEFAEFFB120B16A976
:1028F3000C741A120847022742122BCF120B222202
:102903001236991240F822C082C083780079008081
:10291300031229FA1226C2E89AE99B5029E8FAE938
:10292300FBEA75F00BA4FAACF075F00BEBA42CFBEF
:10293300900336E02AFCA3E03B8C82F583E0540F3E
:1029430070CF790080027901023351C082C0839035
:10295300227812414EEC75F012A4FCA8F075F01227
:10296300EDA428FD79FF7A247B0B1214AC023351BA
:1029730074F7120368E9FEEAFF7A007B00780079B6
:10298300008028E8FCE9FDEC75F012A4FC85F00852
:1029930075F012EDA42508122E0FC39E400AE0FC29
:1029A300EFC39C4003122F2E1229FA122E0340D399
:1029B30002368EC082C0837800790080031229FA20
:1029C3001229EE501F122E13F470F2E875F012A4C0
:1029D300F8AAF075F012E9A42AF9742428FA740B02
:1029E30039FB80047A007B00023351902278122E47
:1029F300C4C3E89AE99B22E8240108E93400F922D8
:102A030074F012036874F31208DB8A0A8B0B8C0CC4
:102A13008D0D8908EC450D6016AA0CAB0D120B70D9
:102A23008A0E8B0FAE0EAF0FEE4F6003022AC11258
:102A33000B468A0E8B0FA80EA90FE8FEE9FFE849A3
:102A4300607C902286122B23602274036508600643
:102A53007404650870167A047903120B4090228679
:102A6300122B3A40077A007B00022B20902284121B
:102A73002B23601B74016508600674026508700FE0
:102A83007A027901120B40902284122B3A50D68598
:102A930018828519837401F0120A9D125134AC0C0B
:102AA300AD0D7403120A9D122BC8740B120A9D12EA
:102AB300351C123B11E412511C1210388004EE4FE6
:102AC300604A780074FF2508C39404500278048E8A
:102AD300828F831251348E828F83A3A3A3A3E5082D
:102AE300F0E88E828F83A3A3A3A3A312513C120207
:102AF30017122EDB8E828F83A3A3A3A3A3A3A3F01A
:102B0300122ED2120A7A1256B4120A86122B2840B7
:102B130005901080E4F0120F12EEFAEFFB0241026F
:102B230012525649227A047900120B4090227812ED
:102B33005D70EA98EB9922122B5375832275827884
:102B4300E493C398F8A3E49399F9C3EA98EB992221
:102B5300E493F8740193F92274F212036874F31284
:102B630008DB8A088B09ECFEEDFF750A00EEFAEF2D
:102B7300FB120B708A0C8B0DA80CA90DE849603E63
:102B830088828983E065087004A3E06509602F8863
:102B9300828983A3A3A3A3E0C394055021125562A2
:102BA3008518828519837401F0120A9D125566EE09
:102BB300FCEFFD7403120A9D122BC8750A01A90AC2
:102BC300740D024C00122BCF120B2E22AA82AB8360
:102BD300120AF8851882851983AA82AB832274F6B8
:102BE300120368122C1D600FA3A3A3A3E014C394C4
:102BF30004500479018002790002373A74F6120313
:102C030068122C1D600FA3A3A3A3E014C394025066
:102C13000479018002790002373A120B6A8A828BA7
:102C230083E58245832274F6120368122C1D600B20
:102C3300A3A3A3A3E0700479018002790002373AC9
:102C4300C082C083EAFCEBFD7A007B0002334EC0F6
:102C530082C0837C007D0002334E74F412036874D7
:102C6300F31208DBEAFEEBFF8C0A8D0BC3EC94F83E
:102C7300ED94FF4007EE4F7003022D1675080075A3
:102C83000900802E8518828519837401F012308122
:102C9300120A9D12308F60137403120A9DAC82AD29
:102CA30083EEFAEFFB121CAAE97049E5082401122E
:102CB3002EAF902278E412525EE50898E509995008
:102CC30052E50875F012A4F8AAF075F012E509A40C
:102CD3002AF9125DA360D4EE4F70A974FF650A70E0
:102CE3000474FF650B60C4123071650A7004A3E0BD
:102CF300650B70B7E50875F012A4F508A8F075F038
:102D030012E509A428F50974242508FA740B35097A
:102D1300FB80047A007B000238D674F412036874D3
:102D2300F31208DB750800120B708A0A8B0BAE0ACC
:102D3300AF0BEE4F602A8518828519837401123612
:102D430093F8A3E0F9740B120A9D1237B4120B1017
:102D53007C127D0079FFEEFAEFFB1214AC750801CB
:102D6300122B2850099010807401F0120F12A90839
:102D73000238D674F7120368E9FE74FE6A700374AE
:102D8300FF6B78007900700580521229FA122E0326
:102D9300504AE8FCE9FDEC75F012A4FCAFF075F0C5
:102DA30012EDA42F122E0FF460E0E8FCE9FDEC75A0
:102DB300F012A4FC75F012EDA42FFD74242CF582FF
:102DC300740B3DF583E06A7003A3E06B70BC80096C
:102DD300122E1314C3940440171229FA1229EE5029
:102DE30018EE70EC122E1364016005E0640370E9C1
:102DF300123062FAA3E0FB80047AFE7BFF02368E78
:102E0300902278124152C3E89CE99D22122F63223B
:102E1300E8FAE9FBEA75F012A4FAACF075F012EBEC
:102E2300A42CFB74282AF582740B3BF583E0221251
:102E33000B82023351C082C083790180F274F01295
:102E430003688A0A8B0B7A047901120B408A0C8B74
:102E53000DEA450D603EEAC333FAEB33FB12154826
:102E63008A088B09AE08AF09EE4F60237AFE7BFF19
:102E7300120B8874FE6A700374FF6B601B850882F3
:102E830085098312369EE5082402122EAF80E17570
:102E93000C0080047E007F00850A82850B83E50C8D
:102EA300F0EEFAEFFB024107E5082407F508E50910
:102EB3003400F50922902278124152C3EA9CEB9D1B
:102EC30022E493FA740193FB221214A074032212D6
:102ED30056C5E4F090879022E88E828F83A3A3A344
:102EE300A3A3A3A3A3122EFD7401122EFDA3F0EE40
:102EF30024101256C8E4F0A3F022123B1DA3A3A38F
:102F030022C082C0837A007B00800419122F2E1204
:102F13002EB85010122F4DC3940550F0E970EC12E7
:102F23002F3780047A007B00023351EA24010AEB35
:102F33003400FB22EA75F012A4FA75F012EBA42810
:102F4300FB74242AFA740B3BFB22EAFCEBFDEC75C1
:102F5300F012A4FCA8F075F012EDA428122F63223E
:102F6300FD74282CF582740B3DF583E02274F7126F
:102F7300036874F31208DB7E007F00023015E50856
:102F830075F017A4F8A9F0126004FAA3E0FBEEF8B9
:102F9300EFF9E875F012A4F8ACF075F012E9A42C7F
:102FA3001230706A7003A3E06B603FE50875F01799
:102FB300A4F8AAF0EA126003F8A3E0F97401120A74
:102FC3009DE0687003A3E0696020E50875F017A42D
:102FD300F8EAF974A028FC740C39FD7403120A9DF5
:102FE300AA82AB83121CAAE96014E50875F017A442
:102FF300F8A9F0749E28FA740C39FB1210440508E2
:1030030090228AE493F8E508C3985003022F8112B3
:10301300305990227812634A5039EEF8EFF91230A2
:1030230062F47003A3E0F460E68518828519837463
:1030330001F0EEF8EFF9E875F012A4F875F012E973
:10304300A42AF9123081120A9D12308F60C17508CB
:103053000080AD023689EE24010EEF3400FF22E832
:1030630075F012A4F8AAF075F012E9A42AF9123047
:103073007522742428F582740B39F583E0227426B3
:1030830028F582740B391240F6740B22E8F0A3E999
:103093001237BC120B28E922C082C083900341740B
:1030A300E6F0A3740DF002335174F7120368EAFEDD
:1030B300EBFF900377E06408601BE0640460168E06
:1030C300828F83E054036401704812350F123C076A
:1030D300E06406703D8E828F83A3A3E064FE7003D9
:1030E300A3E0F4602D8E828F83A3A3123725900370
:1030F30068E0687003A3E069700BEE2415F582EFB6
:10310300125D8A6008120EA0E9F5088008120EA667
:1031130080F67508C2EEFAEFFB12154E0225C47451
:10312300F41203688A088B098A828B83E0F8A3E090
:10313300FAE82AFAE43400FB1215488A0A8B0BAE2C
:103143000AAF0BEE4F6063850882850983E0FC7D3F
:103153000079001214AC8E828F83A3A31266BF1270
:103163000EE28E828F83A3A3A3A312369E850882C9
:10317300850983E0F8EE28F8EF340012372D85082F
:1031830082850983A3E0C0E0EE240D1256B7D0E098
:10319300F0120EF4EE240E1256B7E9124D69E0C098
:1031A300E0EE24111256B7D0E0F0EEFAEFFB02384E
:1031B300DB74F412036874EB1208DB8A088B098C46
:1031C3000A8D0BE9FE900377E064046005E0640870
:1031D300700479C2802EA37808120A5EEE90037EF3
:1031E30012338F120A5E7405120A9DE9F0740412F9
:1031F3000A9D7401F07407120A9DE4F0900377743A
:10320300021232EC74150238D874F612036874EBA8
:103213001208DBEAFEEBFF12498B60030232B07A3D
:10322300077B0012154890033912369E12498B60B2
:10323300788E828F83120A7A90033A123C0A120A1A
:1032430086126583C0E01232BCD0E0F0EE2405FAAA
:10325300EF3400FB8A088B098A82F583E0C0E01211
:1032630032B7D0E01238D2E0C0E01232B7A3D0E0D8
:10327300123712120A7A851882851983120A8688F0
:10328300828983E0C0E07405120A9DD0E0F08508CE
:1032930082850983E0C0E07404120A9DD0E0F074D3
:1032A30007120A9D1232EB800679108002790174AD
:1032B300150237371232BCA322900339E0FAA3E098
:1032C300F5838A82A3A3A3A322C082C08312498B5E
:1032D300600D900339125295900339E4F0A3F01274
:1032E3000E10120FE4023351E41237BC121CE02219
:1032F300C082C083900338E070031217E8120BCA30
:10330300804CC082C083900338E090107F7004E447
:10331300F0802D7401F0900338E0F460237C41E0E9
:10332300C394415002E0FCECF8E0C398F0EC75F074
:10333300E8A4CCA8F075F003A428FD7A8012415AC2
:103343007A7F7B107941121CC88003120B76D083DD
:10335300D0820207F974F412036874EB1208DB8A53
:10336300088B098C0A8D0B900377740112338F122B
:103373000A5E7405120A9DE9F07404120A9D74032F
:10338300F07407120A9D1232EB02320712371D78CE
:10339300082274F71203687C01120BDC02368E7468
:1033A300F212036874FC1208DBE98518828519831D
:1033B300F0EAFEEBFF8C0A900375124440120E04F0
:1033C3008A088B09EA4509700579CA02350A8A8297
:1033D3008B83A3A3A3A3A3A3A3E064FE7003A3E02F
:1033E300F4700579C302350A900375124E08121062
:1033F3004A850882850983A3A3A3A3A3A3A3A3A3A5
:10340300A3E00490038812366D7402120A9D7402BD
:10341300F014120A9DAA82AB83120F4E8A0C8B0DF5
:10342300AE0CAF0DEE4F700302350112350F123D96
:103433007C7406F0A3A882A9839003621252D2126D
:1034430040D5F0EE24131256B77401125114744090
:10345300F0A3E4124D62A3A312351C123731EE24FC
:10346300111256B7E50AF0EEFAEFFB120BA6E9FECE
:1034730060030235039003777409F0122EABAA0898
:10348300FB794B121CC885088285098312365F12AB
:10349300373190036AE0F8851882851983E0686004
:1034A3000CE090036A1237B879E1121CC89010BA85
:1034B3001237259010BCE0687003A3E069601A908E
:1034C300033B1237319010BC124E08120F0C9010B0
:1034D300BC1244407A0112415A7A007B049003C221
:1034E300E0F91216089010BC123514740278081211
:1034F30009DCAC08AD09FA7B0412415C80027E1042
:1035030090054FE4F0EEF97404024C00EE1256C637
:1035130022E0F508A3E0F50922123520221228043F
:10352300A32274F512036874E21208DB85188285FE
:103533001983ECF0A3EDF0EAFEEBFF89087429127E
:103543000A9DE0F509742C120A9DE0F50A900377B1
:10355300E064046005E06408700579C202365774BC
:103563002A120A9DE064FE7003A3E0F4700579C398
:1035730002365790037774031237B87950121CC878
:10358300742A120A9DAA82AB83794B121CC8851830
:1035930082851983123666123731E50890036AF083
:1035A300742A120A9D12365F123731E509900362BD
:1035B30012366D74CE55094480C0E07412120A9D10
:1035C300D0E0F07401250A900388F0740F120A9D6D
:1035D3007402F0742A120A9D1237257407120A9D89
:1035E300E8F0A3E91236A47410120A9D123731745D
:1035F30005120A9DE508F0741B120A9DE4F090037E
:103603007D740FF07A7D7B037954121CC890037C80
:10361300740FF07A7C7B037947121CC890037CE01B
:10362300C3940F50237405120A9DE0C0E074021284
:103633000A9DD0E0F07404120A9D7401F004120A8A
:103643009DAA82AB83121CEC7405120A9DAA82AB5D
:1036530083121CCE741E12084702248B1240F8906A
:10366300036B221240F890037522F0EEFCEFFD7A13
:10367300897B03121CB02274F7120368EB90037F5B
:10368300F0120DF28005740D1208477F01020581C7
:10369300123699A3E022123712A322EAF0A3EBF029
:1036A30022123718F8A3E0F92274F712036874F8AA
:1036B3001208DBEAFEEBFF7900900377E064087001
:1036C3004485188285198374FDF0A374FFF0120EEC
:1036D300DC7402120A9D12369E7405120A9DE412CE
:1036E3003699E0C0E07404120A9DD0E012370DC091
:1036F300E07406120A9DD0E0F07407120A9DE412EA
:1037030037B8120F30740802368B123712E022F0EA
:103713008E828F832212371DE022F085188285194D
:1037230083221240F822E0F8A3E0F91256C5E8F02C
:10373300A3E9F0221208477F02020581C082C083F9
:103743009003497496F0A3740CF09003EF748AF01D
:10375300A3740FF090034D74CCF0A3740CF090039A
:103763004F7496F0A3740CF090035174D2F0A374C9
:103773000CF002335174F412036874F91208DB8AF3
:10378300088B098C0A8D0B8518828519837808129A
:103793000A5E7404120A9DE9F07405120A9DE4F0AE
:1037A3007406120A9DE41237B8120BB87407023874
:1037B300D8E8F0A3E91237BC2212371DAA82AB83E3
:1037C3002274F41203688A088B098A828B83125647
:1037D300D3EE4F70030238D090031212498E601556
:1037E3008A828B83A3A3E0F9EEFAEFFB9003131213
:1037F3003C0A121E958E828F83A3A3A3A3A3A3A324
:10380300A3A3E0640270748E828F83A3A3A3A3A3F4
:10381300A3E0540270030238A2850882850983A3BA
:10382300A3E064E960798E828F83A3A3A3A3A3A3F8
:10383300A3A3A3A3E070149010CFE0048E828F8320
:10384300A3A3A3A3A3A3A3A3A3A3F08E828F83A362
:10385300A3A3A3A3A3A3A3A3A3E0141238D2A3A354
:10386300A37404F09010D012510EE8F0A3E9126192
:10387300E78B0BEA450B7003125BC58E828F83A324
:10388300A3A3A3A3A3A3A3A3E0640260128E828FC6
:1038930083A3A3A3A3A3A3A3A3A3E06406702E8E71
:1038A300828F83A3A3A3A3A3A3E0A2E0501F850851
:1038B30082850983A3A3E0F9EEFAEFFB121D7C8E48
:1038C300828F83A3A3A3A3A3A3E054FEF0800912D2
:1038D3003B1922740D1208477F0402058174EC1210
:1038E300036874DD1208DBEAFEEBFF8C088D0974B4
:1038F30037120A9D780C120A40750A007405120AE1
:103903009DAC82AD83120AB07412120A9DE0700856
:103913007415120A9DE060207405120A9DE0A2E668
:10392300501E8E828F83A3A3A3A3A3A3A3A3A31237
:103933004E08120F66E960087903121C98023AFFD9
:103943007405120A9DE0540C64047005750B018024
:1039530003750B00E0A2E55035750A01E50BA2E003
:10396300402C120EE28A108B11A810A91112350FE8
:10397300E0687003A3E06960157405120A9D12667E
:10398300C6124E04121D88E96004790480AC7405E4
:10399300120A9DE0A2E650227406120A9DE0540327
:1039A30070187405120A9DE0540C640C600CE0540A
:1039B3000C6408600575100180037510007405120E
:1039C3000A9DE05403F8740268700C1266C6124E26
:1039D30004120AC2023AFF740168703AE510A2E0C9
:1039E3005003123B077405120A9DA882A98374032E
:1039F300120A9DE8F0A3E91240EC85188285198329
:103A0300123B11E0C0E07402120A9DD0E01237B8F5
:103A1300121E6C023AFFE86003023AFF90035FE074
:103A2300640170108E828F83A3A3A3A3A3A3E0706A
:103A33000302398D7422120A9D74021240EC741A27
:103A4300120A9D123731E510A2E050087405120ADC
:103A53009D123B07E50BA2E0506AEE240FF582EFBF
:103A6300125D8AC0E07417120A9DD0E0F09003142F
:103A730012498E7003023AFF120EE28A128B13A8C8
:103A830012A913741A120A9DE0687003A3E0697007
:103A93006B780C12082C780A12083878081208344C
:103AA300A910740C120A9DAC82AD837421120A9D75
:103AB300AA82AB83900314123C07121E957407125B
:103AC30008478038780C12082C780A1208387808CE
:103AD300120834900375120650EE2412F582EF1289
:103AE3005AB87423120A9DAC82AD83740E120A9DD8
:103AF300AA82AB83121D707409120847742312083B
:103B0300470261B21266C61252A3120AB622E8F045
:103B1300A3E9123B1922123B1D22F08E828F83A34D
:103B2300A3A3A3A3A32274F71203681216DA02361F
:103B33008E74F71203681216EC02368EC082C083AD
:103B43001216E602335174F71203681216F20236A4
:103B53008E74F71203687409120A9DE0F508780859
:103B63001208381216FE740102368BC082C083120B
:103B7300170A023351C082C08312171002335174E3
:103B8300F712036812171602368E74F7120368EAE7
:103B9300FEEBFF89087401650870147900120D0E9D
:103BA300902295E493FC7900EEFAEFFB120C840269
:103BB300368E74F412036874F91208DBE9FE8A087E
:103BC3008B098C0A8D0B7413120A9D124E089005F3
:103BD3009B12498E6027EE851882851983F0740144
:103BE300120A9D7808120A5EEAF8EBF97405120AC4
:103BF3009D1237B490059B123C07121E950237AFF6
:103C0300FB90034BE0F8A3E0F58388822274F7125C
:103C13000368901082E0F97E00800B125D76540DEC
:103C230064017001190E123E0A5003E970ED023669
:103C33008E74F7120368901083E0F97E00800B12F4
:103C43005D76548D64817001190E123E0A5003E9AA
:103C530070ED02368E74F2120368890BE975F00673
:103C6300A4240CF508E5F0122EB38A0CE508250C04
:103C7300FAE5093400FB1215488A0C8B0DAE0CAF24
:103C83000DEE4F6027AC08AD0979001214AC123564
:103C93000FE50BF0EE2508F8EF3509F98E828F83D7
:103CA300A3A3A3A3A3A3A3A3A3123731EEFAEFFB0A
:103CB300024C0374F6120368EAFEEBFF120C6090E9
:103CC3001081E0F8E9C3984009900345124E0812A9
:103CD3000C66EE2402F8EF1254189003471252D2E6
:103CE300900347E004F0EEFAEFFB120C6C850882B8
:103CF300850983E00258CEC082C0837900900345D2
:103D0300800109124E088A828B83E582458370F213
:103D130002335174F7120368EAFEEBFFEE4F60566D
:103D230090034512498E604E888289837A007B0016
:103D3300EE65827003EF6583600FAA82AB83123D49
:103D43007CE5824583602F80E7900345123D8868B8
:103D53007002EF698E828F837008123725900345B6
:103D630080031261C4123731EEFAEFFB121E3CEEF0
:103D7300FAEFFB12154E02368E123D80221240FCE2
:103D830088828983221240F8EE22C082C083900386
:103D93004580048882898312498E600B88828983D7
:103DA300124440EC4D70EC8A828B83E4F0A3F0E87C
:103DB30049600688828983800390034512369E02F8
:103DC300335174F712036890034580048A828B830E
:103DD300123E054B60257E0080010E123E0A50EC18
:103DE300EE75F006A4FCADF0EA2CFCEB3DFDEC24F3
:103DF30010F582ED123E5A70E180047A007B0002D6
:103E0300368E1252A7EA22123E63EEC3982274F74B
:103E13001203687D0080010D123E5FEDC39850349C
:103E2300ED75F006A4FEA8F0E8FFEA2EFEEB3FFFD7
:103E3300EE2410F582EF123E5A70DCED75F006A405
:103E4300FEE8FFEA2EFAEB3FFBEA2411F582EB12C0
:103E53005D8A4CF002368E125D966922123E632211
:103E63001266D0EB3400F583E0F82274F61203688F
:103E7300120D867A007B008025EAF8EBF9E875F0ED
:103E830006A4F8ACF075F006E9A42C12527C126576
:103E930091A3E4125372F0A312659712670E902256
:103EA30080122B3240D37A007B00801C8A088B0956
:103EB300740378081209DC124D30A374FEF0A304D6
:103EC300125152A3E412670E902289123F0D40DC77
:103ED3007A007B00801D8A088B0974037808120915
:103EE300DC74C6125A02740F12624974FEF0A30402
:103EF30012670E90228F123F0D40DB902293E493C2
:103F0300900353F0123F1702373AE493F8C3EA9849
:103F1300EB9400227CE87D037A107B009003C2E0DF
:103F2300F91216022274F012036874F51208DB8A80
:103F3300088B09890A8C0BE9A2E050147508FC75FB
:103F430009FFA2E15005D2E4023FEAD2E3023FEACD
:103F5300124BEF7003A3E069700579000240B7AC20
:103F63000A7902AA08AB09120D62E960EDE50AF5C8
:103F73000C780C12083879027CFE7DFFAA08AB0985
:103F830012496A120847E960030240B5E50AC2E52F
:103F9300F50A9003B5E07051E50AA2E6404B7403BD
:103FA300120A9DAC82AD83AA08AB09120B04E97017
:103FB3003212428B8A0C8B0DA80CA90DE8FEE9FF87
:103FC300E8496025EE24020A0AEF122842601AEE3D
:103FD3002402FCEF3400FD7403120A9DAA82AB8312
:103FE300121CB0E50AD2E5F50A900348E0F50C90FF
:103FF3000368E0F50EA3E0F50F780E1208347D0197
:104003007C00900348E0F9AA0EAB0F120D1A74025C
:10401300120847E9F8900348E004F0E8600302401F
:10402300B5E50AA2E55004740E80027406C0E0747C
:1040330001120A9DD0E01256E48A0E8B0FAE0EAF2A
:104043000FEE4F60691240D51240EC888289837469
:1040530001F07478550AA31266D6E50C1266D6A34E
:10406300E508F0E5091240C4E4F0E50AA2E5500FC3
:104073007403120A9DAC82AD83E824061240BB8E02
:10408300828F83A3A374FDF0A374FFF0E50B601587
:10409300902296E493F8E50BC3985009EE2413128B
:1040A30056B7E50BF0EEFAEFFB120BA6800679107C
:1040B300800279C7740B8049FAE93400FB121CB003
:1040C3002288828983A3A3A3A31240D02212544B34
:1040D300A322EE24171256C87401F0120EDCEE244C
:1040E3001A1256C8EAF0A3EB22F01266CA34001281
:1040F30040F622F5831240FC22E0F8A3E0F9227493
:104103000D1208477F0802058174F61203687A00CE
:104113007B10125BD260089003D47401F080299065
:10412300063AE064019010CD7006E0FC790180044A
:10413300E0FC79037A007B00120C8490227E12410A
:104143004E7A007B1012415C02373A12415222E44C
:1041530093FC740193FD227B009003C2E0F91215D6
:10416300FC2274EC1203688A088B098C0C8D0D8970
:104173000E7414120A9D124B497416120A9DE0F52F
:1041830010A3E0F511120F66E960077AFF7BFF02C7
:1041930042889010CCE06402600302427B7900AA5B
:1041A30008AB09120D68A90E120D5C8A128B13AEAF
:1041B30012AF13EE4F70030242638E828F83A3A369
:1041C300A3A3A3E064018E828F83A3A37069124E1D
:1041D300088E828F83A3A3A3A3A3A3E054186043F1
:1041E300902294E4938E828F83A3A3A3A3F0EA6522
:1041F3000C7003EB650D6014EA650A7003EB650B45
:10420300600AEA65107003EB6511701F78101208DD
:1042130034AC0AAD0BAA0CAB0D1210627402120877
:10422300478008900367125BBCA3F074FE6A7003B7
:1042330074FF6B601D804EA3A3A3E0640360298E0B
:10424300828F83A3A3A3A3A3E0640470057AFE0271
:1042530041908E828F83A3A3A3A3A3E0640270087B
:104263009003B4E06402701012428B8B0BEA450B8F
:104273006006AA08AB09800DAA08AB09900349128E
:104283003C07121E950261B2900375124970121019
:10429300262274F7120368EAFEEBFF120B58E9704B
:1042A3000AEEFAEFFB120B64E96006EEFAEFFB800D
:1042B300047AFE7BFF02368E74F01203688A0A8B3F
:1042C3000B8C0E8D0F8909750800120F66E97900B2
:1042D3006003024432AA0AAB0B120D68A909120D3E
:1042E3005C8A0C8B0DAE0CAF0DEE4F60198E828F76
:1042F30083A3A3A3A3A3E0640270559003B4E06473
:10430300027003024430AA0AAB0B90034F123C071E
:10431300121E95120B6A8A0C8B0DA80CA90DE84985
:10432300700302443088828983A3A3A3A3A3E0A2DA
:10433300E04003024430750C01A2E150687901ACFE
:104343000AAD0BAA0EAB0F120CB4E9706402443031
:104353008E828F83A3A3A3A3A3E064037005750CCC
:104363000280528E828F83A3A3A3A3A3E064016080
:10437300030244309003751244408E828F831247A8
:10438300958A0C8B0DA80CA90DE84960D190228D5C
:10439300E493FA88828983E0C39A50C2A3E060035E
:1043A30002443080B988828983A3A3A3A3A3D2E163
:1043B300F0EE4F603A8E828F83A3A3A3A3A3A3E05F
:1043C3005418602B7508018E828F83A3A3120650A5
:1043D300750CFE750DFF780C1208347900AC0AAD2C
:1043E3000BAA0EAB0F120D7A7404120847803E908D
:1043F3000368E0650E7004A3E0650F7014902295C6
:10440300E493FCA909AA0AAB0B120C84750801807A
:104413001CA90CAC0AAD0BAA0EAB0F120CB4E970BD
:104423000C750801A909AA0AAB0B120D0EA9080203
:104433004107E50C2415F582E50D1256CB125128E0
:104443002274EA12036874F01208DB8A0C8B0D8C59
:10445300088D097426120A9DE0F514A3E0F515757D
:1044630012069003F512498E60239003751244409F
:10447300AA08AB091210508A108B11EA4511600D7E
:104483008A828B83A3E07005790002477DE50C24C3
:104493001DF50EE50D3400F50F850E8212497AF5F0
:1044A3001388828983A3A3A3E0FA88828983A3A3C1
:1044B300A3A3E0F9EA2400FEE439FFAA08AB09123A
:1044C3000D14850E82850F831247B8E029F50BE59D
:1044D3000AA2E5500375120E7487550A70177418F3
:1044E300550A6418600FE50C2417F582E50D125D7B
:1044F3008A651260077901121C98808C530A78C36D
:10450300EE94F8EF94FF501D7900EEFAEFFB12479B
:1045130087601288828983A3A3A3A3A3A3E054186B
:10452300600302448B78081208347D001247AB12F3
:104533000847E9F8740368700302448BE8600302D8
:1045430045F67418550A70030246ABE50AD2E0F546
:104553000AA2E45004D2E1F50AA90A124E01124755
:1045630087605388828983A3A3A3A3A3A3E05418DA
:10457300604488828983A3A3A3A3A3E06401703664
:10458300E510451160309003751244408882898399
:104593001247958A0E8B0FA80EA90FE8496017885A
:1045A300828983A3E0600F851082851183A312584B
:1045B300D9500302448BE50AF50E780E120838121F
:1045C300479E120847E9702B7C007D008514828585
:1045D300158374FFF0A3F0850C82850D83A3A3A339
:1045E300A3A3A3A3A3E06003124435A90B124E01B6
:1045F300121704851482851583E0F47003A3E0F495
:1046030060399003B4E06402700302448B124B3AA6
:10461300E0FAA3E0123C03121E95EA65087003EB6F
:104623006509600302448BEEFAEF123C03121E95F8
:10463300851482851583EAF0A3EBF0780812083419
:104643007D011247AB120847A90AEEFAEFFB120DE0
:10465300688A088B09A808A909900368E0687003B1
:10466300A3E069600302476EEEFAEFFB120B6A8A5E
:10467300088B09A808A909E849606E88828983A381
:10468300A3A3A3E06401600D88828983A3A3A3A3EA
:10469300E064027054851882851983AC82AD83EE81
:1046A300FAEFFB120B048055900361E0600FE50AFB
:1046B300F50E780E12083812479E120847E50AF5E0
:1046C3000E780E12083879027CFE7DFFEEFAEFFBBE
:1046D30012496A120847E960030245F68514828588
:1046E300158374FFF0A302463D120EDCEAFCEBFDDA
:1046F300851882851983AA82AB83121CB0850C822C
:10470300850D83A3A3A3A3A3A3A3A3E06401700FB5
:104713001244357408120A9DAA82AB83121CB0128C
:1047230049441255504430F508780812083874018A
:10473300120A9D8582088583097808120834740B50
:10474300120A9D8582088583097808120834E513C7
:10475300F50878081208387900EEFCEFFD124E01D7
:10476300120CAE740612084702448B1249441256C7
:10477300BA1247B8E50BF0120EF474101208477F13
:104783000E020581120D5C8A0E8B0FA80EA90FE88D
:104793004922A3A31252A7121050227901AC08ADEB
:1047A3000912529C12496A22AC0BA91312529C1291
:1047B3000D1A740222125558A3A3A3A32274F01254
:1047C300036874F01208DB8A0C8B0DECFAEDFB75B1
:1047D3000F089003F512498E60141258D28A828B07
:1047E30083E58245836007A3E0700302493F1249D2
:1047F30044340012497AF50B8882898312494DE0CB
:10480300FBEC2400FEE43BFF88828983A3A31249C7
:104813004DA3A3E0FBECF508E43BF509888289830B
:10482300A3A3A3A3A3A3A3E0F50EE50AA2E4500365
:10483300750F10A2E550067408250FF50F748F55F8
:104843000A700FE50C2417F582E50D125D8A650FDA
:1048530060087901121C9802493F530A707800E5F9
:104863000AA2E45022124944125D8A2408FCA3E000
:104873003400FD7408120A9DAA82AB83121CB0781F
:1048830008E50AC2E4F50AE50AA2E55028124944FC
:10489300125D8A28F8A3E03400F9E82408FCE9341F
:1048A30000FD851882851983AA82AB83121CB0E5AB
:1048B3000AC2E5F50AAC0EA90BEEFAEFFB120D20C6
:1048C300E9F87403686075900368E06E7003A3E011
:1048D3006F605EE87054E50AF50F780F120838121E
:1048E300495B120847E97054780A120838740112B8
:1048F3000A9D85820C85830D780C120834740B1283
:104903000A9D85820C85830D780C120834E50BF51E
:104913000A780A120838A90EAC08AD09EEFAEFFBC3
:10492300120CAE74061208478012740468700D806E
:10493300B7780A12083812495B120847741002410B
:1049430004E50C241DF582E50D22A3A3A3E0FC8856
:10495300828983A3A3A3A3227901124B411256CBCD
:1049630012497012496A22120CD8740122E0FCA386
:10497300E0FDAA08AB0922F583123D80A3E0F50A06
:1049830088828983A3A3E0229003391253032274FC
:10499300E812036874F51208DBEAFEEBFF8C088D5E
:1049A3000989147423120A9DE0F50F7424120A9DD9
:1049B300E0F512A3E0F5137426120A9DE0F516A3A1
:1049C300E0F5177428120A9DE0F50EA90F120D26C3
:1049D3008A108B117401120A9D7408F0E50EA2E48B
:1049E30050037410F0E50EA2E55004E02408F085AE
:1049F3001882851983AA82AB83120F4E8A0C8B0D02
:104A0300EA450D7003024B21EA2417F582EB124BA2
:104A130033120EDCE50C241AF582E50D1256BA1298
:104A2300369E7403120A9DAC82AD83AA10AB111299
:104A33000B04E9601D124B2B7403120A9DA882A973
:104A430083E50C2418F582E50D1256BAE8F0A3E9C4
:104A53008024E50EA2E4501FE5106E7003E5116F8C
:104A63007015124B2BE50C2418F582E50D1256BA7E
:104A7300E512F0A3E513F0124B3A124B49850A8273
:104A8300F5837402F0A3E50E124B51E50FF0EE85AA
:104A93000A82850B83A3A3A3F0EF850A82850B8388
:104AA300A3A3A3A3124B51A3A3A3E508F0E5098590
:104AB3000A82850B83A3A3A3A3A3A3F0AA10AB111C
:104AC300120D14E92514850A82850B83A3A3A3A3DE
:104AD300A3A3A3F0750800E50EA2E45011AC12AD38
:104AE30013E50A2408FAE50B1240BD750808E50E24
:104AF300A2E55014AC16AD17E50A2508F8E50B340A
:104B030000F9E824081240BB850C82850D83A3A31A
:104B1300E510F0A3E511F0AA0CAB0D120BA6740B74
:104B23001208477F10020581E50C2416F582E50D76
:104B33001256CB7401F022124B411256CB22E50CD4
:104B43001266D1E50D22E0F50AA3E0F50B22F0850C
:104B53000A82850B83A3A32274F21203688A088B4B
:104B630009ECFEEDFF890A7900124BEF7003A3E015
:104B730069700479018073750B01900368E065081F
:104B83007004A3E06509601F750B00780B120838E9
:104B9300A90AEEFCEFFDAA08AB09120FA2740112D9
:104BA3000847E9F50B80417900EEFAEFFB120D5C43
:104BB300EA4B602B8A828B83A3A3A3A3A3A3E05412
:104BC30018601C7508FE7509FF78081208348A827C
:104BD3008B83A3A31206501264E612084780097957
:104BE30001EEFAEFFB120C3CA90B8014120D688A3C
:104BF3000C8B0DA80CA90D900368E06822120847DE
:104C03007F0602058174F412036875080E75090E98
:104C13007A101261EE8B0BEA450B7003123F17906B
:104C23000353E014F0700C902293E493900353F039
:104C3300120D747E007F00806C850882850983A332
:104C4300A3A3A3E06059F46056E5082404F582E5C4
:104C530009125BB67049850882850983A3A3A3A3C0
:104C6300A3E06403701979028508828509831244DD
:104C730040850882850983A3A3124E08120CB485CC
:104C83000882850983A3A3A3A3A3E064016010851D
:104C9300088285098374FEF0A304124D62E4F012C6
:104CA3003059122EAB90228212634A408C7E007FD1
:104CB300008039120E828E088F0974037808120956
:104CC300DC74862508FC740F3509FD7AC07B0C1251
:104CD3000E70EA4B70DD8E088F0974037808120991
:104CE300DC124D30126591E4F0123059902289E4C0
:104CF30093F8C3EE98EF9400501B8E088F0974034A
:104D030078081209DC124D38E82407F582E9125BB2
:104D1300B670D680A17E007F00800A124D436002E8
:104D230014F012305912634740F10238DB124D3848
:104D3300888289832274862508F8740F3509F9223D
:104D4300EEF8EFF9E875F006A4F8AAF075F006E9B5
:104D5300A42AF9742628F582740F39F583E0221208
:104D63004D69A3A3A322F0850882850983A3A32207
:104D730074F712036874E11208DBECFEEDFF7508AB
:104D830000EE4F60728A828B83E0241C125BE71271
:104D9300498E60638A828B83124E08851882851937
:104DA30083AC82AD83EA241BF582EB125AB8EA2462
:104DB3001CF582EB124E04120EC4740B120A9D12E0
:104DC3004E0C7003A3E069702E7402120A9DE06416
:104DD300017024741D120A9D123C07E064017017D0
:104DE300741D120A9D123C09A3A3E0F88E828F83DF
:104DF300E0687003750801A908741F02368B124B13
:104E0300413400F5831252A722122800E06822746D
:104E1300F4120368E97024790090034D123C0712E1
:104E23001E958A0A8B0BAE0AAF0B74FE6E70037469
:104E3300FF6F701A902290E4936013790190034DF1
:104E4300123C07121E958A0A8B0BAE0AAF0B120F88
:104E5300120231AD74F612036874F31208DB1214F4
:104E6300BE8A088B09AE08AF09900368E06E700331
:104E7300A3E06F60E9120EE8EA6E7002EB6F60DE8A
:104E8300EEFAEFFB120F66E970D4EE4F60D085188F
:104E930082851983E4F004120A9DEEF0A3EF124E0B
:104EA300BAE970BA74FE6E700374FF6F60B0EEFA05
:104EB300EFFB740D0237371237BC120B1C22C08272
:104EC300C083120F120233517F0A02058174F2125A
:104ED3000368EAFEEBFF8C0A8D0B8908740E120A35
:104EE3009DE0F50974FC6E700374FF6F7005790023
:104EF300024C037900120D688A0C8B0DAE0CAF0DBA
:104F0300900368E06E7003A3E06F7006E509A2E604
:104F130050DCA9091263D4706179007AFE7BFF1219
:104F230063D47056741855097003025007780079DA
:104F33000080031229FA9022821229F140030250C1
:104F430007E8FAE9FBEA75F007A4FAACF075F00795
:104F5300EBA42CFB74142AF582740E3BF583E05406
:104F63001870D0E875F007A4F8AAF075F007E9A463
:104F73002AF9740E28F8740E39F988828983A3A359
:104F8300A3A3A3A3E054186009741855097003027E
:104F93004EF188828983EEF0A3EFF074FE650A7008
:104FA3000474FF650B600312512E88828983A3A3C7
:104FB300A3A3A3A3E509F0A2E0500D88828983A3EC
:104FC300A3A3A3A3A3D2E2F0740165088882898313
:104FD300A3A3A3A3A370387401125152E054186021
:104FE30028902294E49388828983A3A3A3A31251D4
:104FF3001C1210508B0DEA450D6003024EF1780030
:10500300790080397902024EF3900367E080D7E09C
:1050130064017003024EF188828983A3A3A3A3A32F
:10502300A3E054186007902294E4938004900366ED
:10503300E01240C4E508F0024EF11229FA90228AE8
:10504300E493FAC3E89AE994004003024EF17A002C
:105053007B00804BEAFCEBFDEC75F007A4FCAEF0A3
:1050630075F007EDA42EFD74102CF582740E3DF53A
:10507300831256D3E8FCE9FDEC75F017A4FC85F028
:105083000975F017EDA42509FD749E2CF582740CA7
:105093003DF583E06E7003A3E06F609E122F2E90A8
:1050A3002282122EBB40AD12414EEC6A7002ED6BB0
:1050B3007088E875F017A4F8AAF075F017E9A42A28
:1050C300F9749E28FE740C39FF7C177D007900EE7D
:1050D300FAEFFB1214AC8E828F8312513490037556
:1050E30012510EA3A3A3A3A3A3E8F0A3E91251149F
:1050F3007401F0EE240E1256B7740112513C1202E1
:1051030017EE240D1256B7E8025039123520A3A327
:1051130022F0EE240F1256C822F0125125AA0AAB30
:105123000B22900375E0FCA3E0FD2288828983A310
:10513300A3E50AF0A3E50BF022F0125141229022DD
:105143008DE4932401F8E43400F97A027B002212FF
:1051530040D0A32274ED1203688A088B09890E12CA
:1051630052854005790502525312174CAA08AB0920
:10517300125357902280125256650A7003E9650B49
:1051830070077AFE7BFF125357902280E412525E1F
:10519300E50A98E50B9940030252511252626012DC
:1051A300E50A75F006A4F875F006E50B1252AD1288
:1051B300154EE50E6018E50A75F006A4F8AAF07519
:1051C300F006E50B1252D9701A7901025253E50A1F
:1051D30075F006A4F8AAF075F006E50B1252BAE4CE
:1051E300F0A3F0E50A75F006A4F8AAF075F006E559
:1051F3000B12527AA312556688828983A3AA82ABC3
:10520300831252C88A828B83E0603F125262603AF3
:105213008E108F117512007810120830E50EC3330B
:10522300FCE433FDE50A75F006A4F50AA8F075F071
:1052330006E50BA428F50B742A250AF582740F35AD
:105243000B124E06122ECC12084779008002790702
:105253000263EA122B53E822902278125D7122E551
:105263000A75F006A4F8AAF075F006E50B1252B51C
:10527300F8A3E0F9E84922A42A12540E888289830C
:10528300A322ECFEEDFF90228BE493F8E9C398226E
:10529300F5831252A712154E22E50C1266D1E50DC5
:1052A3003400F583E0FAA3E0FB221252B5FAA3E03F
:1052B300FB221252BAE022A42AF9742A28F5827436
:1052C3000F39F58322E50EF09010CE1252D222E070
:1052D30088828983F022125432F50CE93400F50DEB
:1052E300E50EC333FAE433FB121548850C82850DB2
:1052F30083EAF0A3EBF0850C82850D83125303221E
:105303001240FCE8492274F4120368ECFEEDFF74CA
:105313000C120A9D12372588088909125357AC0AC3
:10532300AD0BECF8EDF990228012535F5021E87534
:10533300F006A4F8AAF075F006E912527AE08E821C
:105343008F831253721253681237317900800279B6
:10535300040238DB120CEA8A0A8B0B22122EC4C316
:10536300EC9AED9B221240F885088285098322126C
:1053730054472274F61203687E007F008028EEF8FB
:10538300EFF9E875F006A4F8ACF075F006E9A42C83
:10539300F9742828F582740F125FF56A7003A3E08D
:1053A3006B605712305912634740D3126342700245
:1053B300E96F704674FE6A700374FF6B703C7E0085
:1053C3007F008003123059126347502E124D4370F1
:1053D300F3EEF8EFF9E875F006A4F812540412544A
:1053E300396017125420F8E9125418888212529324
:1053F300850882850983E4F0A3F0EEFAEFFB023718
:105403003A75F006E912540C22A42AF9742628F8F6
:10541300740F39F9223400F98808890922EEF8EF6C
:10542300F9E875F006A4F875F006E9125432221271
:10543300540CE8240422A3A374FE1254441253030D
:1054430022F0A30412544B22F088828983A3A3A3DE
:10545300A32274F6120368EA241DF582EB12555059
:10546300F9604BEA241DF582EB125D8A2402FCA34A
:10547300E03400FD1252894003025543780080292D
:105483008C828D83E0F508A3E0FFE5082400E43F68
:10549300F509E833FEE433FF746E2EF582740F3F93
:1054A300F58312556612554608E8C39940D28A829D
:1054B3008B83A3A3A3A3A3A3A3A3A31244409003F7
:1054C30068E06C7003A3E06D700F7C6E7D0F122794
:1054D30069124E04120CDE8067EA2411F582EB1286
:1054E3005D8A605CFC74FF2CF07508017808120873
:1054F3003875086E75090F7808120834E9F50878CD
:1055030008120838EA2412F582EB125D8AF508784E
:1055130008120838EA2415F582EB1256BA1206501F
:10552300ECF912276912443D8A828B83A3A3A3A3B8
:10553300A3A3A3A3A3124E08120CF67407120847E1
:1055430002373AEC24020C0CED3400FD221256CB48
:10555300125558E022E0F8A3E0F5838882A322885D
:10556300828983E508F0A3E509F02274EA1203684F
:1055730074FD1208DB8A148B158C0E8D0F890D7444
:1055830019120A9D1256D3741B120A9DE0F5117469
:105593001C120A9DE0F50C741D120A9D124B4974EE
:1055A3001F120A9DE0F5106008E50CC33324048044
:1055B300027402C0E07401120A9DD0E01256E48A1C
:1055C300088B09EA450970030256AF8A828B83A3CD
:1055D300A3E514F0A3E5151261DDE50EF0A3E50FD5
:1055E300F0EA2413F582EB1256BAE50DF0EA24141F
:1055F300F582EB1256BAE511F0EA2417F582EB12A5
:105603005D8A64017040120EE28A0E8B0FA80EA908
:105613000F850882850983A3A3A3A3E0687003A36E
:10562300E0696022EE4F6011E508241AF582E5096E
:105633001256BAEEF0A3EF800CE5082417F582E5C5
:10564300091256BAE4F01256BE1256D38E828F83D5
:105653007405F0A3E5107004E50C80487401250C73
:105663001256DD7A008028850A82850B83E0125664
:10567300D9850A82850B83A3E08E828F83F0E50AA6
:105683002402F50AE50B3400F50BA30EAF830AEAF7
:10569300C3950C40D2120EE2EA1256D9120EE2EB77
:1056A3008E828F83F0AA08AB09120BA674030247FC
:1056B3007FEE240CF582EF1256CB2212277A125674
:1056C300CB22EE240BF582EF3400F58322900334D2
:1056D300E0FEA3E0FF228E828F83F0A3AE82AF832E
:1056E300221237BC120F4E22C082C083E9C333FC9F
:1056F300E433FDEA2CFAEB3DFBEA24FEF582EB34BE
:10570300FF124E0602335174F212036889098A0AA2
:105713001252854004790080407508008002050814
:10572300E508C39509502AE508C333F8E433F9EED5
:1057330028F582EF39F583C082C083120EE28A0C0A
:105743008B0DD083D082E0650C7004A3E0650D70EF
:10575300CDE50A650870BE7901024C0374F01203AB
:105763006874F31208DB8A088B098C0A8D0B890C89
:10577300750D00120F66E979006003025861AA08EB
:10578300AB09120D68A90C120D5C8A0E8B0FAE0EBD
:10579300AF0FEE4F700302585F8E828F83A3A3A3D4
:1057A300A3A3A3E0A2E2400302585F120EE2EA655C
:1057B3000A7003EB650B7011780D120838E4F50ECF
:1057C300F50F780E1208348044AA0AAB0B120B5E55
:1057D300E9640170688518828519837404F0740183
:1057E300120A9D125134851882851983AA82AB83CC
:1057F300120B1CE964017045750D01780D12083810
:10580300E4F50EF50F780E120834750D00780D12BD
:105813000838780D1208387408120A9D85820E859F
:10582300830F780E120834902296E493F9AC0AADF4
:105833000BAA08AB09120CF674071208478E828F65
:1058430083A3A3A3A3A3A3E0A2E1400D8E828F832E
:10585300A3A3A3A3A3A3C2E2F0750D01A90D024163
:105863000274F6120368E9FE7900120D68EEF9126C
:105873000D5C8A088B09A808A909E8496006126724
:1058830018F98002790402373A74F61203687E0726
:1058930090035CE070341258D28A088B09A808A9D7
:1058A30009E8496025900361E0640188828983A344
:1058B300A3700B1258D9888289835001A3A3E0F9FE
:1058C30012106EE9FEEE70027E07EEF902373A120D
:1058D300512512105022E0FA88828983A3E0C39AEB
:1058E3002274EE120368EAFEEBFF890A8C0C8D0B1F
:1058F3007412120A9D1235141259AE12528C505161
:10590300890E750F007403780E1209DC748C250E52
:10591300F582740F350FF583E0F8E50CC398502D2D
:10592300E50B6024751100740378101209DC74868A
:105933002510F8740F3511F988828983A3A3A3A3D3
:10594300A3A3E50C1259B8F07900024ECB7903807A
:10595300F979007AFE7BFF1259AEE4936510700467
:10596300790280E6E50B60E0890E750F0074037819
:105973000E1209DC7486250EF8740F350FF9888230
:105983008983A3EEF0A3EF1259B8125152E50C121A
:1059930040CC74FF126597E50AF0900366E08882B5
:1059A3008983A3A3A3A3A3A3A3809C120D56E9F504
:1059B30010902289221266DAA3E508F0A3E50922F2
:1059C30074F6120368ECFF120D5690228912528C62
:1059D30050278908750900740378081209DC748B51
:1059E300125A02740F126249E0F8EFC3985006EF9F
:1059F300F07900800679038002790402373AEA25B8
:105A030008F5822274F4120368EAFEEBFF120D56C6
:105A1300E9F50A90228912528C5019750B00740310
:105A2300780A1209DC7489250AF582740F350B1282
:105A33004E06801890034B12498E600CEEFAEFFB72
:105A4300123C0A121E9580047AFE7BFF0238DB7437
:105A5300F61203688A828B83A3A3A3A3A3E4F0F8BB
:105A630080010890228FE493F9E8C399501E8808B7
:105A7300125AB08C828D83A3A3A3A3A3A3A3A3E0F1
:105A83006970DFECFAEDFB120E88801EE4936870F8
:105A9300198C828D83A3A3A3A3A3A3A3A3A3740697
:105AA300F07A008C828D83125BDB02373A740E2509
:105AB30008F5827410125D96F92274F4120368EAF1
:105AC300FEEBFF8E828F83A3A3E014125BF2A3E0AD
:105AD300F9120E648A088B09EA45097003025BB365
:105AE3008E828F83A3A3E070358A828B83A3A3A3C3
:105AF300A3A3A3A3A3A3E064028A828B83A3A3A388
:105B0300A3A3A3A3A3A360107406F07AF08508826D
:105B13008B83125BDB025BB37406F0025BB38E8292
:105B23008F83A3A3A3A3A3A3E060738E828F83A316
